{
	"data": {
		"bytecode": {
			"linkReferences": {},
			"object": "60806040526200001c69d3c21bcecceda100000060001962000680565b6200002a90600019620006a3565b6009556003600d819055600e819055600f819055601081905560118190556012556016805460ff19166001179055601a805461010160a81b61ffff60a81b1990911617905569d3c21bcecceda1000000601b55633b9aca00601c553480156200009257600080fd5b50604051620040f1380380620040f1833981016040819052620000b591620006e6565b620000c03362000220565b60095460016000620000da6000546001600160a01b031690565b6001600160a01b03168152602081019190915260400160002055620000ff8362000270565b600b80546001600160a01b038085166001600160a01b031992831617909255600c805492841692909116919091179055600160046000620001486000546001600160a01b031690565b6001600160a01b03908116825260208083019390935260409182016000908120805495151560ff19968716179055868216815260049093528183208054851660019081179091559085168352818320805485168217905530835291208054909216179055620001bf6000546001600160a01b031690565b6001600160a01b031660006001600160a01b03167fddf252ad1be2c89b69c2b068fc378daa952ba7f163c4a11628f55a4df523b3ef69d3c21bcecceda10000006040516200020f91815260200190565b60405180910390a350505062000755565b600080546001600160a01b038381166001600160a01b0319831681178455604051919092169283917f8be0079c531659141344cd1fd0a4f28419497f9722a3daafe3b4186f6b6457e09190a35050565b6000819050806001600160a01b031663c45a01556040518163ffffffff1660e01b8152600401602060405180830381865afa158015620002b4573d6000803e3d6000fd5b505050506040513d601f19601f82011682018060405250810190620002da919062000730565b6001600160a01b031663e6a4390530836001600160a01b031663ad5c46486040518163ffffffff1660e01b8152600401602060405180830381865afa15801562000328573d6000803e3d6000fd5b505050506040513d601f19601f820116820180604052508101906200034e919062000730565b6040516001600160e01b031960e085901b1681526001600160a01b03928316600482015291166024820152604401602060405180830381865afa1580156200039a573d6000803e3d6000fd5b505050506040513d601f19601f82011682018060405250810190620003c0919062000730565b601a80546001600160a01b0319166001600160a01b039290921691821790556200055257806001600160a01b031663c45a01556040518163ffffffff1660e01b8152600401602060405180830381865afa15801562000423573d6000803e3d6000fd5b505050506040513d601f19601f8201168201806040525081019062000449919062000730565b6001600160a01b031663c9c6539630836001600160a01b031663ad5c46486040518163ffffffff1660e01b8152600401602060405180830381865afa15801562000497573d6000803e3d6000fd5b505050506040513d601f19601f82011682018060405250810190620004bd919062000730565b6040516001600160e01b031960e085901b1681526001600160a01b039283166004820152911660248201526044016020604051808303816000875af11580156200050b573d6000803e3d6000fd5b505050506040513d601f19601f8201168201806040525081019062000531919062000730565b601a80546001600160a01b0319166001600160a01b03929092169190911790555b601980546001600160a01b0319166001600160a01b0383811691909117909155601a546200058391166001620005c4565b6040516001600160a01b03831681527fc6b438e6a8a59579ce6a4406cbd203b740e0d47b458aae6596339bcd40c40d15906020015b60405180910390a15050565b6000546001600160a01b03163314620006235760405162461bcd60e51b815260206004820181905260248201527f4f776e61626c653a2063616c6c6572206973206e6f7420746865206f776e6572604482015260640160405180910390fd5b6001600160a01b038216600081815260076020908152604091829020805460ff19168515159081179091558251938452908301527f92d4086705a3958aa2cd18830ddaff7bb93db05b6818910190392a55047397ee9101620005b8565b6000826200069e57634e487b7160e01b600052601260045260246000fd5b500690565b600082821015620006c457634e487b7160e01b600052601160045260246000fd5b500390565b80516001600160a01b0381168114620006e157600080fd5b919050565b600080600060608486031215620006fc57600080fd5b6200070784620006c9565b92506200071760208501620006c9565b91506200072760408501620006c9565b90509250925092565b6000602082840312156200074357600080fd5b6200074e82620006c9565b9392505050565b61398c80620007656000396000f3fe6080604052600436106103a65760003560e01c80637d1db4a5116101e7578063c49b9a801161010d578063e01af92c116100a0578063f0f165af1161006f578063f0f165af14610b50578063f2fde38b14610b70578063faef9e6714610b90578063fb81062914610bb057600080fd5b8063e01af92c14610ada578063ea2f0b3714610afa578063eedeacbe14610b1a578063efcc52de14610b3a57600080fd5b8063d12a7688116100dc578063d12a768814610a48578063d543dbeb14610a5e578063dc44b6a014610a7e578063dd62ed3e14610a9457600080fd5b8063c49b9a80146109dc578063c5d24189146109fc578063c860795214610a12578063d0e0352314610a2857600080fd5b8063996c398511610185578063a928681c11610154578063a928681c1461093c578063c069d9561461095c578063c0d786551461098c578063c14a4239146109ac57600080fd5b8063996c3985146108bc578063a0712d68146108dc578063a457c2d7146108fc578063a9059cbb1461091c57600080fd5b80638da5cb5b116101c15780638da5cb5b1461083257806395558d841461085057806395d89b4114610870578063978e1cc81461089c57600080fd5b80637d1db4a5146107cd57806388790a68146107e357806388f82020146107f957600080fd5b806339509351116102cc5780634cb80fd51161026a5780635876ccc5116102395780635876ccc5146107575780636ddd17131461077757806370a0823114610798578063715018a6146107b857600080fd5b80634cb80fd5146106be5780634fab9edf146106de57806352390c02146106fe5780635342acb41461071e57600080fd5b8063437823ec116102a6578063437823ec1461063d5780634549b0391461065d57806349bd5a5e1461067d5780634a74bb021461069d57600080fd5b806339509351146105c45780633bbac579146105e457806342966c681461061d57600080fd5b8063200a692d116103445780632d838119116103135780632d83811914610548578063313ce5671461056857806335e17cb9146105845780633685d419146105a457600080fd5b8063200a692d146104d857806323b872dd146104ee5780632410d8871461050e5780632d513f361461052e57600080fd5b806311889b761161038057806311889b761461044457806313114a9d146104645780631694505e1461048357806318160ddd146104bb57600080fd5b806306fdde03146103b25780630844af26146103f2578063095ea7b31461041457600080fd5b366103ad57005b600080fd5b3480156103be57600080fd5b50604080518082019091526005815264456e676f7360d81b60208201525b6040516103e991906134ac565b60405180910390f35b3480156103fe57600080fd5b5061041261040d366004613501565b610bd0565b005b34801561042057600080fd5b5061043461042f36600461352f565b610c71565b60405190151581526020016103e9565b34801561045057600080fd5b5061041261045f366004613501565b610c88565b34801561047057600080fd5b50600a545b6040519081526020016103e9565b34801561048f57600080fd5b506019546104a3906001600160a01b031681565b6040516001600160a01b0390911681526020016103e9565b3480156104c757600080fd5b5069d3c21bcecceda1000000610475565b3480156104e457600080fd5b5061047560105481565b3480156104fa57600080fd5b5061043461050936600461355b565b610ccb565b34801561051a57600080fd5b506104126105293660046135aa565b610d9b565b34801561053a57600080fd5b506016546104349060ff1681565b34801561055457600080fd5b50610475610563366004613501565b610e29565b34801561057457600080fd5b50604051600981526020016103e9565b34801561059057600080fd5b5061041261059f3660046135e3565b610ead565b3480156105b057600080fd5b506104126105bf366004613625565b610f9e565b3480156105d057600080fd5b506104346105df36600461352f565b611155565b3480156105f057600080fd5b506104346105ff366004613625565b6001600160a01b031660009081526017602052604090205460ff1690565b34801561062957600080fd5b50610412610638366004613501565b61118b565b34801561064957600080fd5b50610412610658366004613625565b6111bf565b34801561066957600080fd5b50610475610678366004613642565b61120d565b34801561068957600080fd5b50601a546104a3906001600160a01b031681565b3480156106a957600080fd5b50601a5461043490600160a81b900460ff1681565b3480156106ca57600080fd5b506104126106d9366004613625565b6112a4565b3480156106ea57600080fd5b506104126106f9366004613667565b611397565b34801561070a57600080fd5b50610412610719366004613625565b611402565b34801561072a57600080fd5b50610434610739366004613625565b6001600160a01b031660009081526004602052604090205460ff1690565b34801561076357600080fd5b50610412610772366004613501565b611555565b34801561078357600080fd5b50601a5461043490600160b01b900460ff1681565b3480156107a457600080fd5b506104756107b3366004613625565b611599565b3480156107c457600080fd5b506104126115f8565b3480156107d957600080fd5b50610475601b5481565b3480156107ef57600080fd5b5061047560125481565b34801561080557600080fd5b50610434610814366004613625565b6001600160a01b031660009081526005602052604090205460ff1690565b34801561083e57600080fd5b506000546001600160a01b03166104a3565b34801561085c57600080fd5b50600c546104a3906001600160a01b031681565b34801561087c57600080fd5b5060408051808201909152600381526245474f60e81b60208201526103dc565b3480156108a857600080fd5b506104126108b73660046135aa565b61162e565b3480156108c857600080fd5b506104126108d7366004613501565b611723565b3480156108e857600080fd5b506104126108f7366004613501565b611767565b34801561090857600080fd5b5061043461091736600461352f565b61179b565b34801561092857600080fd5b5061043461093736600461352f565b6117ea565b34801561094857600080fd5b50610412610957366004613501565b61185e565b34801561096857600080fd5b50610434610977366004613625565b60086020526000908152604090205460ff1681565b34801561099857600080fd5b506104126109a7366004613625565b6118a2565b3480156109b857600080fd5b506104346109c7366004613625565b60076020526000908152604090205460ff1681565b3480156109e857600080fd5b506104126109f7366004613667565b6118d5565b348015610a0857600080fd5b50610475600e5481565b348015610a1e57600080fd5b5061047560115481565b348015610a3457600080fd5b50610412610a43366004613501565b61194c565b348015610a5457600080fd5b50610475601c5481565b348015610a6a57600080fd5b50610412610a79366004613501565b61198f565b348015610a8a57600080fd5b50610475600f5481565b348015610aa057600080fd5b50610475610aaf366004613684565b6001600160a01b03918216600090815260036020908152604080832093909416825291909152205490565b348015610ae657600080fd5b50610412610af5366004613667565b6119de565b348015610b0657600080fd5b50610412610b15366004613625565b611a55565b348015610b2657600080fd5b50600b546104a3906001600160a01b031681565b348015610b4657600080fd5b50610475600d5481565b348015610b5c57600080fd5b50610412610b6b366004613501565b611aa0565b348015610b7c57600080fd5b50610412610b8b366004613625565b611b0c565b348015610b9c57600080fd5b50610412610bab3660046136b2565b611ba4565b348015610bbc57600080fd5b50610412610bcb366004613625565b611c50565b6000546001600160a01b03163314610c035760405162461bcd60e51b8152600401610bfa906136d7565b60405180910390fd5b600e819055600f54600d5460649190610c1d908490613722565b610c279190613722565b1115610c6e5760405162461bcd60e51b8152602060048201526016602482015275546f74616c206665657320657863656564203130302560501b6044820152606401610bfa565b50565b6000610c7e338484611d36565b5060015b92915050565b6000546001600160a01b03163314610cb25760405162461bcd60e51b8152600401610bfa906136d7565b600d819055600f54600e5460649190610c1d9084613722565b6001600160a01b03821660009081526017602052604081205460ff1615610d045760405162461bcd60e51b8152600401610bfa9061373a565b3260009081526017602052604090205460ff1615610d345760405162461bcd60e51b8152600401610bfa9061373a565b610d3f848484611e5b565b610d918433610d8c856040518060600160405280602881526020016138ea602891396001600160a01b038a1660009081526003602090815260408083203384529091529020549190612353565b611d36565b5060019392505050565b6000546001600160a01b03163314610dc55760405162461bcd60e51b8152600401610bfa906136d7565b6001600160a01b038216600081815260076020908152604091829020805460ff19168515159081179091558251938452908301527f92d4086705a3958aa2cd18830ddaff7bb93db05b6818910190392a55047397ee91015b60405180910390a15050565b6000600954821115610e905760405162461bcd60e51b815260206004820152602a60248201527f416d6f756e74206d757374206265206c657373207468616e20746f74616c207260448201526965666c656374696f6e7360b01b6064820152608401610bfa565b6000610e9a61237f565b9050610ea683826123a2565b9392505050565b6000546001600160a01b03163314610ed75760405162461bcd60e51b8152600401610bfa906136d7565b60405163a9059cbb60e01b81526001600160a01b0382811660048301526024820184905284919082169063a9059cbb906044016020604051808303816000875af1158015610f29573d6000803e3d6000fd5b505050506040513d601f19601f82011682018060405250810190610f4d9190613771565b50604080516001600160a01b0386811682526020820186905284168183015290517f03e22ea144aa78f0a88a3bc6036c5f6d5bc2d276affbc5f88c38a9346c5b2eee9181900360600190a150505050565b6000546001600160a01b03163314610fc85760405162461bcd60e51b8152600401610bfa906136d7565b6001600160a01b03811660009081526005602052604090205460ff166110305760405162461bcd60e51b815260206004820152601b60248201527f4163636f756e7420697320616c726561647920696e636c7564656400000000006044820152606401610bfa565b60005b60065481101561115157816001600160a01b03166006828154811061105a5761105a61378e565b6000918252602090912001546001600160a01b0316141561113f5760068054611085906001906137a4565b815481106110955761109561378e565b600091825260209091200154600680546001600160a01b0390921691839081106110c1576110c161378e565b600091825260208083209190910180546001600160a01b0319166001600160a01b039485161790559184168152600282526040808220829055600590925220805460ff191690556006805480611119576111196137bb565b600082815260209020810160001990810180546001600160a01b03191690550190555050565b80611149816137d1565b915050611033565b5050565b3360008181526003602090815260408083206001600160a01b03871684529091528120549091610c7e918590610d8c90866123ae565b6000546001600160a01b031633146111b55760405162461bcd60e51b8152600401610bfa906136d7565b610c6e33826123ba565b6000546001600160a01b031633146111e95760405162461bcd60e51b8152600401610bfa906136d7565b6001600160a01b03166000908152600460205260409020805460ff19166001179055565b600069d3c21bcecceda10000008311156112695760405162461bcd60e51b815260206004820152601f60248201527f416d6f756e74206d757374206265206c657373207468616e20737570706c79006044820152606401610bfa565b81611289576000611279846124f7565b50949650610c8295505050505050565b6000611294846124f7565b50939650610c8295505050505050565b6000546001600160a01b031633146112ce5760405162461bcd60e51b8152600401610bfa906136d7565b6001600160a01b0381166113425760405162461bcd60e51b815260206004820152603560248201527f4572726f723a204d61726b6574696e6757616c6c657420616464726573732063604482015274616e6e6f74206265207a65726f206164647265737360581b6064820152608401610bfa565b600b80546001600160a01b0319166001600160a01b0383169081179091556040519081527fc4a1411139e23115772923254c039e2ecfed9a653a3a8db99706b25b50fa3122906020015b60405180910390a150565b6000546001600160a01b031633146113c15760405162461bcd60e51b8152600401610bfa906136d7565b6016805460ff19168215159081179091556040519081527f75b4185b2596596b18e7ded7eec3b258b81f659c5b4097d5023706248fb123e69060200161138c565b6000546001600160a01b0316331461142c5760405162461bcd60e51b8152600401610bfa906136d7565b6001600160a01b03811660009081526005602052604090205460ff16156114955760405162461bcd60e51b815260206004820152601b60248201527f4163636f756e7420697320616c7265616479206578636c7564656400000000006044820152606401610bfa565b6001600160a01b038116600090815260016020526040902054156114ef576001600160a01b0381166000908152600160205260409020546114d590610e29565b6001600160a01b0382166000908152600260205260409020555b6001600160a01b03166000818152600560205260408120805460ff191660019081179091556006805491820181559091527ff652222313e28459528d920b65115c16c04f3efc82aaedc97be59f3f377c0d3f0180546001600160a01b0319169091179055565b6000546001600160a01b0316331461157f5760405162461bcd60e51b8152600401610bfa906136d7565b60128190556011546010546064918391610c1d9190613722565b6001600160a01b03811660009081526005602052604081205460ff16156115d657506001600160a01b031660009081526002602052604090205490565b6001600160a01b038216600090815260016020526040902054610c8290610e29565b6000546001600160a01b031633146116225760405162461bcd60e51b8152600401610bfa906136d7565b61162c6000612552565b565b6000546001600160a01b031633146116585760405162461bcd60e51b8152600401610bfa906136d7565b6001600160a01b0382163b6116c75760405162461bcd60e51b815260206004820152602f60248201527f4572726f723a2043616e206f6e6c792062616e206f7220756e62616e20636f6e60448201526e74726163742061646472657373657360881b6064820152608401610bfa565b6001600160a01b038216600081815260086020908152604091829020805460ff19168515159081179091558251938452908301527f80069036c5381e9b8bf3feeaddce86ce3886eaabaddb4b90926400a11ba6bd1a9101610e1d565b6000546001600160a01b0316331461174d5760405162461bcd60e51b8152600401610bfa906136d7565b600f819055600e54600d546064918391610c1d9190613722565b6000546001600160a01b031633146117915760405162461bcd60e51b8152600401610bfa906136d7565b610c6e33826125a2565b6000610c7e3384610d8c85604051806060016040528060258152602001613932602591393360009081526003602090815260408083206001600160a01b038d1684529091529020549190612353565b6001600160a01b03821660009081526017602052604081205460ff16156118235760405162461bcd60e51b8152600401610bfa9061373a565b3260009081526017602052604090205460ff16156118535760405162461bcd60e51b8152600401610bfa9061373a565b610c7e338484611e5b565b6000546001600160a01b031633146118885760405162461bcd60e51b8152600401610bfa906136d7565b601181905560125460105460649190610c1d908490613722565b6000546001600160a01b031633146118cc5760405162461bcd60e51b8152600401610bfa906136d7565b610c6e81612670565b6000546001600160a01b031633146118ff5760405162461bcd60e51b8152600401610bfa906136d7565b601a8054821515600160a81b0260ff60a81b199091161790556040517f53726dfcaf90650aa7eb35524f4d3220f07413c8d6cb404cc8c18bf5591bc1599061138c90831515815260200190565b6000546001600160a01b031633146119765760405162461bcd60e51b8152600401610bfa906136d7565b601081905560125460115460649190610c1d9084613722565b6000546001600160a01b031633146119b95760405162461bcd60e51b8152600401610bfa906136d7565b6119d860646119d269d3c21bcecceda1000000846129a7565b906123a2565b601b5550565b6000546001600160a01b03163314611a085760405162461bcd60e51b8152600401610bfa906136d7565b601a8054821515600160b01b0260ff60b01b199091161790556040517f8bcc108c7d867d0a70433f71ecba3056c4dcc48eaabe4ca987f9fb1f836091d59061138c90831515815260200190565b6000546001600160a01b03163314611a7f5760405162461bcd60e51b8152600401610bfa906136d7565b6001600160a01b03166000908152600460205260409020805460ff19169055565b6000546001600160a01b03163314611aca5760405162461bcd60e51b8152600401610bfa906136d7565b60008111611ad757600080fd5b601c8190556040518181527fab1090599596cfb0c655b6424e552fba2cedf77457ed354fbe96e9abf4aa1f139060200161138c565b6000546001600160a01b03163314611b365760405162461bcd60e51b8152600401610bfa906136d7565b6001600160a01b038116611b9b5760405162461bcd60e51b815260206004820152602660248201527f4f776e61626c653a206e6577206f776e657220697320746865207a65726f206160448201526564647265737360d01b6064820152608401610bfa565b610c6e81612552565b6000546001600160a01b03163314611bce5760405162461bcd60e51b8152600401610bfa906136d7565b81471015611bdb57600080fd5b6040516001600160a01b0382169083156108fc029084906000818181858888f19350505050158015611c11573d6000803e3d6000fd5b50604080518381526001600160a01b03831660208201527f26d71ad100dab0e70a6d987dc1c52b5adfed7fb530cf990e0ce0207438e31f259101610e1d565b6000546001600160a01b03163314611c7a5760405162461bcd60e51b8152600401610bfa906136d7565b6001600160a01b038116611ce85760405162461bcd60e51b815260206004820152602f60248201527f4572726f723a206c697157616c6c657420616464726573732063616e6e6f742060448201526e6265207a65726f206164647265737360881b6064820152608401610bfa565b600c80546001600160a01b0319166001600160a01b0383169081179091556040519081527f6e9a0b8203652d5225235c014e4f37e3858eec49cf1711b07649267d6cab26969060200161138c565b6001600160a01b038316611d985760405162461bcd60e51b8152602060048201526024808201527f45524332303a20617070726f76652066726f6d20746865207a65726f206164646044820152637265737360e01b6064820152608401610bfa565b6001600160a01b038216611df95760405162461bcd60e51b815260206004820152602260248201527f45524332303a20617070726f766520746f20746865207a65726f206164647265604482015261737360f01b6064820152608401610bfa565b6001600160a01b0383811660008181526003602090815260408083209487168084529482529182902085905590518481527f8c5be1e5ebec7d5bd14f71427d1e84f3dd0314c0f7b2291e5b200ac8c7c3b92591015b60405180910390a3505050565b6001600160a01b038316611ebf5760405162461bcd60e51b815260206004820152602560248201527f45524332303a207472616e736665722066726f6d20746865207a65726f206164604482015264647265737360d81b6064820152608401610bfa565b6001600160a01b038216611f215760405162461bcd60e51b815260206004820152602360248201527f45524332303a207472616e7366657220746f20746865207a65726f206164647260448201526265737360e81b6064820152608401610bfa565b60008111611f835760405162461bcd60e51b815260206004820152602960248201527f5472616e7366657220616d6f756e74206d7573742062652067726561746572206044820152687468616e207a65726f60b81b6064820152608401610bfa565b6000546001600160a01b03848116911614801590611faf57506000546001600160a01b03838116911614155b1561201757601b548111156120175760405162461bcd60e51b815260206004820152602860248201527f5472616e7366657220616d6f756e74206578636565647320746865206d6178546044820152673c20b6b7bab73a1760c11b6064820152608401610bfa565b601a54600160b01b900460ff1615801561206b57506001600160a01b03821660009081526007602052604090205460ff168061206b57506001600160a01b03831660009081526007602052604090205460ff165b156120b85760405162461bcd60e51b815260206004820152601e60248201527f427579696e6720616e642073656c6c696e672069732064697361626c656400006044820152606401610bfa565b6001600160a01b03831660009081526008602052604090205460ff16806120f757506001600160a01b03821660009081526008602052604090205460ff165b156121385760405162461bcd60e51b81526020600482015260116024820152701059191c995cdcc81a5cc818985b9b9959607a1b6044820152606401610bfa565b600061214330611599565b9050601b5481106121535750601b545b601c54811080159081906121715750601a54600160a01b900460ff16155b801561219557506001600160a01b03841660009081526007602052604090205460ff165b80156121aa5750601a54600160a81b900460ff165b80156121cf57506001600160a01b03851660009081526004602052604090205460ff16155b156121e257601c5491506121e2826129b3565b6001600160a01b03851660009081526007602052604090205460019060ff1615801561222757506001600160a01b03851660009081526007602052604090205460ff16155b15612230575060005b60165460ff16801561225e57506001600160a01b0386163b15158061225e57506001600160a01b0385163b15155b15612267575060015b6001600160a01b03861660009081526004602052604090205460ff16806122a657506001600160a01b03851660009081526004602052604090205460ff165b156122af575060005b6001600160a01b03861660009081526007602052604090205460ff16806122df57506001600160a01b0386163b15155b156122f757600d54601355600e54601455600f546015555b6001600160a01b03851660009081526007602052604090205460ff168061232757506001600160a01b0385163b15155b1561233f576010546013556011546014556012546015555b61234b86868684612a5a565b505050505050565b600081848411156123775760405162461bcd60e51b8152600401610bfa91906134ac565b505050900390565b600080600061238c612b7b565b909250905061239b82826123a2565b9250505090565b6000610ea682846137ec565b6000610ea68284613722565b6001600160a01b03821661241a5760405162461bcd60e51b815260206004820152602160248201527f45524332303a206275726e2066726f6d20746865207a65726f206164647265736044820152607360f81b6064820152608401610bfa565b6001600160a01b0382166000908152600160205260409020548181101561248e5760405162461bcd60e51b815260206004820152602260248201527f45524332303a206275726e20616d6f756e7420657863656564732062616c616e604482015261636560f01b6064820152608401610bfa565b61249882826137a4565b6001600160a01b038416600090815260016020526040812091909155600980548492906124c69084906137a4565b90915550506040518281526000906001600160a01b0385169060008051602061391283398151915290602001611e4e565b60008060008060008060008060008060006125118c612d20565b935093509350935060008060006125328f87878761252d61237f565b612d75565b919f509d509b509599509397509195509350505050919395979092949650565b600080546001600160a01b038381166001600160a01b0319831681178455604051919092169283917f8be0079c531659141344cd1fd0a4f28419497f9722a3daafe3b4186f6b6457e09190a35050565b6001600160a01b0382166125f85760405162461bcd60e51b815260206004820152601f60248201527f45524332303a206d696e7420746f20746865207a65726f2061646472657373006044820152606401610bfa565b806009600082825461260a9190613722565b90915550506001600160a01b03821660009081526001602052604081208054839290612637908490613722565b90915550506040518181526001600160a01b03831690600090600080516020613912833981519152906020015b60405180910390a35050565b6000819050806001600160a01b031663c45a01556040518163ffffffff1660e01b8152600401602060405180830381865afa1580156126b3573d6000803e3d6000fd5b505050506040513d601f19601f820116820180604052508101906126d7919061380e565b6001600160a01b031663e6a4390530836001600160a01b031663ad5c46486040518163ffffffff1660e01b8152600401602060405180830381865afa158015612724573d6000803e3d6000fd5b505050506040513d601f19601f82011682018060405250810190612748919061380e565b6040516001600160e01b031960e085901b1681526001600160a01b03928316600482015291166024820152604401602060405180830381865afa158015612793573d6000803e3d6000fd5b505050506040513d601f19601f820116820180604052508101906127b7919061380e565b601a80546001600160a01b0319166001600160a01b0392909216918217905561293f57806001600160a01b031663c45a01556040518163ffffffff1660e01b8152600401602060405180830381865afa158015612818573d6000803e3d6000fd5b505050506040513d601f19601f8201168201806040525081019061283c919061380e565b6001600160a01b031663c9c6539630836001600160a01b031663ad5c46486040518163ffffffff1660e01b8152600401602060405180830381865afa158015612889573d6000803e3d6000fd5b505050506040513d601f19601f820116820180604052508101906128ad919061380e565b6040516001600160e01b031960e085901b1681526001600160a01b039283166004820152911660248201526044016020604051808303816000875af11580156128fa573d6000803e3d6000fd5b505050506040513d601f19601f8201168201806040525081019061291e919061380e565b601a80546001600160a01b0319166001600160a01b03929092169190911790555b601980546001600160a01b0319166001600160a01b0383811691909117909155601a5461296e91166001610d9b565b6040516001600160a01b03831681527fc6b438e6a8a59579ce6a4406cbd203b740e0d47b458aae6596339bcd40c40d1590602001610e1d565b6000610ea6828461382b565b601a805460ff60a01b1916600160a01b17905560006129d38260026123a2565b905060006129e18383612dd7565b9050476129ed83612de3565b60006129f94783612dd7565b9050612a058382612f35565b60408051858152602081018390529081018490527f17bbfb9a6069321b6ded73bd96327c9e6b7212a5cd51ff219cd61370acafb5619060600160405180910390a15050601a805460ff60a01b19169055505050565b80612a7357612a73600060138190556014819055601555565b6001600160a01b03841660009081526005602052604090205460ff168015612ab457506001600160a01b03831660009081526005602052604090205460ff16155b15612ac957612ac4848484613014565b612b75565b6001600160a01b03841660009081526005602052604090205460ff16158015612b0a57506001600160a01b03831660009081526005602052604090205460ff165b15612b1a57612ac4848484613148565b6001600160a01b03841660009081526005602052604090205460ff168015612b5a57506001600160a01b03831660009081526005602052604090205460ff165b15612b6a57612ac4848484613207565b612b75848484613290565b50505050565b600954600090819069d3c21bcecceda1000000825b600654811015612cdc57826001600060068481548110612bb257612bb261378e565b60009182526020808320909101546001600160a01b031683528201929092526040019020541180612c1d5750816002600060068481548110612bf657612bf661378e565b60009182526020808320909101546001600160a01b03168352820192909252604001902054115b15612c3a5750506009549369d3c21bcecceda10000009350915050565b612c806001600060068481548110612c5457612c5461378e565b60009182526020808320909101546001600160a01b031683528201929092526040019020548490612dd7565b9250612cc86002600060068481548110612c9c57612c9c61378e565b60009182526020808320909101546001600160a01b031683528201929092526040019020548390612dd7565b915080612cd4816137d1565b915050612b90565b50600954612cf49069d3c21bcecceda10000006123a2565b821015612d125750506009549269d3c21bcecceda100000092509050565b90939092509050565b505050565b6000806000806000612d31866132ea565b90506000612d3e87613307565b90506000612d4b88613324565b90506000612d6582612d5f85818d89612dd7565b90612dd7565b9993985091965094509092505050565b6000808080612d8489866129a7565b90506000612d9289876129a7565b90506000612da089886129a7565b90506000612dae89896129a7565b90506000612dc282612d5f85818989612dd7565b949d949c50929a509298505050505050505050565b6000610ea682846137a4565b6040805160028082526060820183526000926020830190803683370190505090503081600081518110612e1857612e1861378e565b6001600160a01b03928316602091820292909201810191909152601954604080516315ab88c960e31b81529051919093169263ad5c46489260048083019391928290030181865afa158015612e71573d6000803e3d6000fd5b505050506040513d601f19601f82011682018060405250810190612e95919061380e565b81600181518110612ea857612ea861378e565b6001600160a01b039283166020918202929092010152601954612ece9130911684611d36565b60195460405163791ac94760e01b81526001600160a01b039091169063791ac94790612f0790859060009086903090429060040161384a565b600060405180830381600087803b158015612f2157600080fd5b505af115801561234b573d6000803e3d6000fd5b601954612f4d9030906001600160a01b031684611d36565b601954600c5460405163f305d71960e01b81523060048201526024810185905260006044820181905260648201526001600160a01b0391821660848201524260a482015291169063f305d71990839060c40160606040518083038185885af1158015612fbd573d6000803e3d6000fd5b50505050506040513d601f19601f82011682018060405250810190612fe291906138bb565b5050601a546040518481526001600160a01b039091169150309060008051602061391283398151915290602001612664565b6000806000806000806000613028886124f7565b965096509650965096509650965061306e88600260008d6001600160a01b03166001600160a01b0316815260200190815260200160002054612dd790919063ffffffff16565b6001600160a01b038b1660009081526002602090815260408083209390935560019052205461309d9088612dd7565b6001600160a01b03808c1660009081526001602052604080822093909355908b16815220546130cc90876123ae565b6001600160a01b038a166000908152600160205260409020556130ee82613341565b6130f7816133c9565b6131018584613488565b886001600160a01b03168a6001600160a01b03166000805160206139128339815191528660405161313491815260200190565b60405180910390a350505050505050505050565b600080600080600080600061315c886124f7565b96509650965096509650965096506131a287600160008d6001600160a01b03166001600160a01b0316815260200190815260200160002054612dd790919063ffffffff16565b6001600160a01b03808c16600090815260016020908152604080832094909455918c168152600290915220546131d890856123ae565b6001600160a01b038a166000908152600260209081526040808320939093556001905220546130cc90876123ae565b600080600080600080600061321b886124f7565b965096509650965096509650965061326188600260008d6001600160a01b03166001600160a01b0316815260200190815260200160002054612dd790919063ffffffff16565b6001600160a01b038b166000908152600260209081526040808320939093556001905220546131a29088612dd7565b60008060008060008060006132a4886124f7565b965096509650965096509650965061309d87600160008d6001600160a01b03166001600160a01b0316815260200190815260200160002054612dd790919063ffffffff16565b6000610c826103e86119d2601354856129a790919063ffffffff16565b6000610c826103e86119d2601554856129a790919063ffffffff16565b6000610c826103e86119d2601454856129a790919063ffffffff16565b600061334b61237f565b9050600061335983836129a7565b3060009081526001602052604090205490915061337690826123ae565b3060009081526001602090815260408083209390935560059052205460ff1615612d1b57306000908152600260205260409020546133b490846123ae565b30600090815260026020526040902055505050565b60006133d361237f565b905060006133e183836129a7565b600b546001600160a01b031660009081526001602052604090205490915061340990826123ae565b600b80546001600160a01b03908116600090815260016020908152604080832095909555925490911681526005909152205460ff1615612d1b57600b546001600160a01b031660009081526002602052604090205461346890846123ae565b600b546001600160a01b0316600090815260026020526040902055505050565b6009546134959083612dd7565b600955600a546134a590826123ae565b600a555050565b600060208083528351808285015260005b818110156134d9578581018301518582016040015282016134bd565b818111156134eb576000604083870101525b50601f01601f1916929092016040019392505050565b60006020828403121561351357600080fd5b5035919050565b6001600160a01b0381168114610c6e57600080fd5b6000806040838503121561354257600080fd5b823561354d8161351a565b946020939093013593505050565b60008060006060848603121561357057600080fd5b833561357b8161351a565b9250602084013561358b8161351a565b929592945050506040919091013590565b8015158114610c6e57600080fd5b600080604083850312156135bd57600080fd5b82356135c88161351a565b915060208301356135d88161359c565b809150509250929050565b6000806000606084860312156135f857600080fd5b83356136038161351a565b925060208401359150604084013561361a8161351a565b809150509250925092565b60006020828403121561363757600080fd5b8135610ea68161351a565b6000806040838503121561365557600080fd5b8235915060208301356135d88161359c565b60006020828403121561367957600080fd5b8135610ea68161359c565b6000806040838503121561369757600080fd5b82356136a28161351a565b915060208301356135d88161351a565b600080604083850312156136c557600080fd5b8235915060208301356135d88161351a565b6020808252818101527f4f776e61626c653a2063616c6c6572206973206e6f7420746865206f776e6572604082015260600190565b634e487b7160e01b600052601160045260246000fd5b600082198211156137355761373561370c565b500190565b60208082526017908201527f596f752068617665206e6f20706f776572206865726521000000000000000000604082015260600190565b60006020828403121561378357600080fd5b8151610ea68161359c565b634e487b7160e01b600052603260045260246000fd5b6000828210156137b6576137b661370c565b500390565b634e487b7160e01b600052603160045260246000fd5b60006000198214156137e5576137e561370c565b5060010190565b60008261380957634e487b7160e01b600052601260045260246000fd5b500490565b60006020828403121561382057600080fd5b8151610ea68161351a565b60008160001904831182151516156138455761384561370c565b500290565b600060a082018783526020878185015260a0604085015281875180845260c086019150828901935060005b8181101561389a5784516001600160a01b031683529383019391830191600101613875565b50506001600160a01b03969096166060850152505050608001529392505050565b6000806000606084860312156138d057600080fd5b835192506020840151915060408401519050925092509256fe45524332303a207472616e7366657220616d6f756e74206578636565647320616c6c6f77616e6365ddf252ad1be2c89b69c2b068fc378daa952ba7f163c4a11628f55a4df523b3ef45524332303a2064656372656173656420616c6c6f77616e63652062656c6f77207a65726fa26469706673582212206ff339b38ed32df8fd1485aaabd1cb06082a4244a68e9b5287d9327640a73e9a64736f6c634300080a0033",
			"opcodes": "PUSH1 0x80 PUSH1 0x40 MSTORE PUSH3 0x1C PUSH10 0xD3C21BCECCEDA1000000 PUSH1 0x0 NOT PUSH3 0x680 JUMP JUMPDEST PUSH3 0x2A SWAP1 PUSH1 0x0 NOT PUSH3 0x6A3 JUMP JUMPDEST PUSH1 0x9 SSTORE PUSH1 0x3 PUSH1 0xD DUP2 SWAP1 SSTORE PUSH1 0xE DUP2 SWAP1 SSTORE PUSH1 0xF DUP2 SWAP1 SSTORE PUSH1 0x10 DUP2 SWAP1 SSTORE PUSH1 0x11 DUP2 SWAP1 SSTORE PUSH1 0x12 SSTORE PUSH1 0x16 DUP1 SLOAD PUSH1 0xFF NOT AND PUSH1 0x1 OR SWAP1 SSTORE PUSH1 0x1A DUP1 SLOAD PUSH2 0x101 PUSH1 0xA8 SHL PUSH2 0xFFFF PUSH1 0xA8 SHL NOT SWAP1 SWAP2 AND OR SWAP1 SSTORE PUSH10 0xD3C21BCECCEDA1000000 PUSH1 0x1B SSTORE PUSH4 0x3B9ACA00 PUSH1 0x1C SSTORE CALLVALUE DUP1 ISZERO PUSH3 0x92 JUMPI PUSH1 0x0 DUP1 REVERT JUMPDEST POP PUSH1 0x40 MLOAD PUSH3 0x40F1 CODESIZE SUB DUP1 PUSH3 0x40F1 DUP4 CODECOPY DUP2 ADD PUSH1 0x40 DUP2 SWAP1 MSTORE PUSH3 0xB5 SWAP2 PUSH3 0x6E6 JUMP JUMPDEST PUSH3 0xC0 CALLER PUSH3 0x220 JUMP JUMPDEST PUSH1 0x9 SLOAD PUSH1 0x1 PUSH1 0x0 PUSH3 0xDA PUSH1 0x0 SLOAD PUSH1 0x1 PUSH1 0x1 PUSH1 0xA0 SHL SUB AND SWAP1 JUMP JUMPDEST PUSH1 0x1 PUSH1 0x1 PUSH1 0xA0 SHL SUB AND DUP2 MSTORE PUSH1 0x20 DUP2 ADD SWAP2 SWAP1 SWAP2 MSTORE PUSH1 0x40 ADD PUSH1 0x0 KECCAK256 SSTORE PUSH3 0xFF DUP4 PUSH3 0x270 JUMP JUMPDEST PUSH1 0xB DUP1 SLOAD PUSH1 0x1 PUSH1 0x1 PUSH1 0xA0 SHL SUB DUP1 DUP6 AND PUSH1 0x1 PUSH1 0x1 PUSH1 0xA0 SHL SUB NOT SWAP3 DUP4 AND OR SWAP1 SWAP3 SSTORE PUSH1 0xC DUP1 SLOAD SWAP3 DUP5 AND SWAP3 SWAP1 SWAP2 AND SWAP2 SWAP1 SWAP2 OR SWAP1 SSTORE PUSH1 0x1 PUSH1 0x4 PUSH1 0x0 PUSH3 0x148 PUSH1 0x0 SLOAD PUSH1 0x1 PUSH1 0x1 PUSH1 0xA0 SHL SUB AND SWAP1 JUMP JUMPDEST PUSH1 0x1 PUSH1 0x1 PUSH1 0xA0 SHL SUB SWAP1 DUP2 AND DUP3 MSTORE PUSH1 0x20 DUP1 DUP4 ADD SWAP4 SWAP1 SWAP4 MSTORE PUSH1 0x40 SWAP2 DUP3 ADD PUSH1 0x0 SWAP1 DUP2 KECCAK256 DUP1 SLOAD SWAP6 ISZERO ISZERO PUSH1 0xFF NOT SWAP7 DUP8 AND OR SWAP1 SSTORE DUP7 DUP3 AND DUP2 MSTORE PUSH1 0x4 SWAP1 SWAP4 MSTORE DUP2 DUP4 KECCAK256 DUP1 SLOAD DUP6 AND PUSH1 0x1 SWAP1 DUP2 OR SWAP1 SWAP2 SSTORE SWAP1 DUP6 AND DUP4 MSTORE DUP2 DUP4 KECCAK256 DUP1 SLOAD DUP6 AND DUP3 OR SWAP1 SSTORE ADDRESS DUP4 MSTORE SWAP2 KECCAK256 DUP1 SLOAD SWAP1 SWAP3 AND OR SWAP1 SSTORE PUSH3 0x1BF PUSH1 0x0 SLOAD PUSH1 0x1 PUSH1 0x1 PUSH1 0xA0 SHL SUB AND SWAP1 JUMP JUMPDEST PUSH1 0x1 PUSH1 0x1 PUSH1 0xA0 SHL SUB AND PUSH1 0x0 PUSH1 0x1 PUSH1 0x1 PUSH1 0xA0 SHL SUB AND PUSH32 0xDDF252AD1BE2C89B69C2B068FC378DAA952BA7F163C4A11628F55A4DF523B3EF PUSH10 0xD3C21BCECCEDA1000000 PUSH1 0x40 MLOAD PUSH3 0x20F SWAP2 DUP2 MSTORE PUSH1 0x20 ADD SWAP1 JUMP JUMPDEST PUSH1 0x40 MLOAD DUP1 SWAP2 SUB SWAP1 LOG3 POP POP POP PUSH3 0x755 JUMP JUMPDEST PUSH1 0x0 DUP1 SLOAD PUSH1 0x1 PUSH1 0x1 PUSH1 0xA0 SHL SUB DUP4 DUP2 AND PUSH1 0x1 PUSH1 0x1 PUSH1 0xA0 SHL SUB NOT DUP4 AND DUP2 OR DUP5 SSTORE PUSH1 0x40 MLOAD SWAP2 SWAP1 SWAP3 AND SWAP3 DUP4 SWAP2 PUSH32 0x8BE0079C531659141344CD1FD0A4F28419497F9722A3DAAFE3B4186F6B6457E0 SWAP2 SWAP1 LOG3 POP POP JUMP JUMPDEST PUSH1 0x0 DUP2 SWAP1 POP DUP1 PUSH1 0x1 PUSH1 0x1 PUSH1 0xA0 SHL SUB AND PUSH4 0xC45A0155 PUSH1 0x40 MLOAD DUP2 PUSH4 0xFFFFFFFF AND PUSH1 0xE0 SHL DUP2 MSTORE PUSH1 0x4 ADD PUSH1 0x20 PUSH1 0x40 MLOAD DUP1 DUP4 SUB DUP2 DUP7 GAS STATICCALL ISZERO DUP1 ISZERO PUSH3 0x2B4 JUMPI RETURNDATASIZE PUSH1 0x0 DUP1 RETURNDATACOPY RETURNDATASIZE PUSH1 0x0 REVERT JUMPDEST POP POP POP POP PUSH1 0x40 MLOAD RETURNDATASIZE PUSH1 0x1F NOT PUSH1 0x1F DUP3 ADD AND DUP3 ADD DUP1 PUSH1 0x40 MSTORE POP DUP2 ADD SWAP1 PUSH3 0x2DA SWAP2 SWAP1 PUSH3 0x730 JUMP JUMPDEST PUSH1 0x1 PUSH1 0x1 PUSH1 0xA0 SHL SUB AND PUSH4 0xE6A43905 ADDRESS DUP4 PUSH1 0x1 PUSH1 0x1 PUSH1 0xA0 SHL SUB AND PUSH4 0xAD5C4648 PUSH1 0x40 MLOAD DUP2 PUSH4 0xFFFFFFFF AND PUSH1 0xE0 SHL DUP2 MSTORE PUSH1 0x4 ADD PUSH1 0x20 PUSH1 0x40 MLOAD DUP1 DUP4 SUB DUP2 DUP7 GAS STATICCALL ISZERO DUP1 ISZERO PUSH3 0x328 JUMPI RETURNDATASIZE PUSH1 0x0 DUP1 RETURNDATACOPY RETURNDATASIZE PUSH1 0x0 REVERT JUMPDEST POP POP POP POP PUSH1 0x40 MLOAD RETURNDATASIZE PUSH1 0x1F NOT PUSH1 0x1F DUP3 ADD AND DUP3 ADD DUP1 PUSH1 0x40 MSTORE POP DUP2 ADD SWAP1 PUSH3 0x34E SWAP2 SWAP1 PUSH3 0x730 JUMP JUMPDEST PUSH1 0x40 MLOAD PUSH1 0x1 PUSH1 0x1 PUSH1 0xE0 SHL SUB NOT PUSH1 0xE0 DUP6 SWAP1 SHL AND DUP2 MSTORE PUSH1 0x1 PUSH1 0x1 PUSH1 0xA0 SHL SUB SWAP3 DUP4 AND PUSH1 0x4 DUP3 ADD MSTORE SWAP2 AND PUSH1 0x24 DUP3 ADD MSTORE PUSH1 0x44 ADD PUSH1 0x20 PUSH1 0x40 MLOAD DUP1 DUP4 SUB DUP2 DUP7 GAS STATICCALL ISZERO DUP1 ISZERO PUSH3 0x39A JUMPI RETURNDATASIZE PUSH1 0x0 DUP1 RETURNDATACOPY RETURNDATASIZE PUSH1 0x0 REVERT JUMPDEST POP POP POP POP PUSH1 0x40 MLOAD RETURNDATASIZE PUSH1 0x1F NOT PUSH1 0x1F DUP3 ADD AND DUP3 ADD DUP1 PUSH1 0x40 MSTORE POP DUP2 ADD SWAP1 PUSH3 0x3C0 SWAP2 SWAP1 PUSH3 0x730 JUMP JUMPDEST PUSH1 0x1A DUP1 SLOAD PUSH1 0x1 PUSH1 0x1 PUSH1 0xA0 SHL SUB NOT AND PUSH1 0x1 PUSH1 0x1 PUSH1 0xA0 SHL SUB SWAP3 SWAP1 SWAP3 AND SWAP2 DUP3 OR SWAP1 SSTORE PUSH3 0x552 JUMPI DUP1 PUSH1 0x1 PUSH1 0x1 PUSH1 0xA0 SHL SUB AND PUSH4 0xC45A0155 PUSH1 0x40 MLOAD DUP2 PUSH4 0xFFFFFFFF AND PUSH1 0xE0 SHL DUP2 MSTORE PUSH1 0x4 ADD PUSH1 0x20 PUSH1 0x40 MLOAD DUP1 DUP4 SUB DUP2 DUP7 GAS STATICCALL ISZERO DUP1 ISZERO PUSH3 0x423 JUMPI RETURNDATASIZE PUSH1 0x0 DUP1 RETURNDATACOPY RETURNDATASIZE PUSH1 0x0 REVERT JUMPDEST POP POP POP POP PUSH1 0x40 MLOAD RETURNDATASIZE PUSH1 0x1F NOT PUSH1 0x1F DUP3 ADD AND DUP3 ADD DUP1 PUSH1 0x40 MSTORE POP DUP2 ADD SWAP1 PUSH3 0x449 SWAP2 SWAP1 PUSH3 0x730 JUMP JUMPDEST PUSH1 0x1 PUSH1 0x1 PUSH1 0xA0 SHL SUB AND PUSH4 0xC9C65396 ADDRESS DUP4 PUSH1 0x1 PUSH1 0x1 PUSH1 0xA0 SHL SUB AND PUSH4 0xAD5C4648 PUSH1 0x40 MLOAD DUP2 PUSH4 0xFFFFFFFF AND PUSH1 0xE0 SHL DUP2 MSTORE PUSH1 0x4 ADD PUSH1 0x20 PUSH1 0x40 MLOAD DUP1 DUP4 SUB DUP2 DUP7 GAS STATICCALL ISZERO DUP1 ISZERO PUSH3 0x497 JUMPI RETURNDATASIZE PUSH1 0x0 DUP1 RETURNDATACOPY RETURNDATASIZE PUSH1 0x0 REVERT JUMPDEST POP POP POP POP PUSH1 0x40 MLOAD RETURNDATASIZE PUSH1 0x1F NOT PUSH1 0x1F DUP3 ADD AND DUP3 ADD DUP1 PUSH1 0x40 MSTORE POP DUP2 ADD SWAP1 PUSH3 0x4BD SWAP2 SWAP1 PUSH3 0x730 JUMP JUMPDEST PUSH1 0x40 MLOAD PUSH1 0x1 PUSH1 0x1 PUSH1 0xE0 SHL SUB NOT PUSH1 0xE0 DUP6 SWAP1 SHL AND DUP2 MSTORE PUSH1 0x1 PUSH1 0x1 PUSH1 0xA0 SHL SUB SWAP3 DUP4 AND PUSH1 0x4 DUP3 ADD MSTORE SWAP2 AND PUSH1 0x24 DUP3 ADD MSTORE PUSH1 0x44 ADD PUSH1 0x20 PUSH1 0x40 MLOAD DUP1 DUP4 SUB DUP2 PUSH1 0x0 DUP8 GAS CALL ISZERO DUP1 ISZERO PUSH3 0x50B JUMPI RETURNDATASIZE PUSH1 0x0 DUP1 RETURNDATACOPY RETURNDATASIZE PUSH1 0x0 REVERT JUMPDEST POP POP POP POP PUSH1 0x40 MLOAD RETURNDATASIZE PUSH1 0x1F NOT PUSH1 0x1F DUP3 ADD AND DUP3 ADD DUP1 PUSH1 0x40 MSTORE POP DUP2 ADD SWAP1 PUSH3 0x531 SWAP2 SWAP1 PUSH3 0x730 JUMP JUMPDEST PUSH1 0x1A DUP1 SLOAD PUSH1 0x1 PUSH1 0x1 PUSH1 0xA0 SHL SUB NOT AND PUSH1 0x1 PUSH1 0x1 PUSH1 0xA0 SHL SUB SWAP3 SWAP1 SWAP3 AND SWAP2 SWAP1 SWAP2 OR SWAP1 SSTORE JUMPDEST PUSH1 0x19 DUP1 SLOAD PUSH1 0x1 PUSH1 0x1 PUSH1 0xA0 SHL SUB NOT AND PUSH1 0x1 PUSH1 0x1 PUSH1 0xA0 SHL SUB DUP4 DUP2 AND SWAP2 SWAP1 SWAP2 OR SWAP1 SWAP2 SSTORE PUSH1 0x1A SLOAD PUSH3 0x583 SWAP2 AND PUSH1 0x1 PUSH3 0x5C4 JUMP JUMPDEST PUSH1 0x40 MLOAD PUSH1 0x1 PUSH1 0x1 PUSH1 0xA0 SHL SUB DUP4 AND DUP2 MSTORE PUSH32 0xC6B438E6A8A59579CE6A4406CBD203B740E0D47B458AAE6596339BCD40C40D15 SWAP1 PUSH1 0x20 ADD JUMPDEST PUSH1 0x40 MLOAD DUP1 SWAP2 SUB SWAP1 LOG1 POP POP JUMP JUMPDEST PUSH1 0x0 SLOAD PUSH1 0x1 PUSH1 0x1 PUSH1 0xA0 SHL SUB AND CALLER EQ PUSH3 0x623 JUMPI PUSH1 0x40 MLOAD PUSH3 0x461BCD PUSH1 0xE5 SHL DUP2 MSTORE PUSH1 0x20 PUSH1 0x4 DUP3 ADD DUP2 SWAP1 MSTORE PUSH1 0x24 DUP3 ADD MSTORE PUSH32 0x4F776E61626C653A2063616C6C6572206973206E6F7420746865206F776E6572 PUSH1 0x44 DUP3 ADD MSTORE PUSH1 0x64 ADD PUSH1 0x40 MLOAD DUP1 SWAP2 SUB SWAP1 REVERT JUMPDEST PUSH1 0x1 PUSH1 0x1 PUSH1 0xA0 SHL SUB DUP3 AND PUSH1 0x0 DUP2 DUP2 MSTORE PUSH1 0x7 PUSH1 0x20 SWAP1 DUP2 MSTORE PUSH1 0x40 SWAP2 DUP3 SWAP1 KECCAK256 DUP1 SLOAD PUSH1 0xFF NOT AND DUP6 ISZERO ISZERO SWAP1 DUP2 OR SWAP1 SWAP2 SSTORE DUP3 MLOAD SWAP4 DUP5 MSTORE SWAP1 DUP4 ADD MSTORE PUSH32 0x92D4086705A3958AA2CD18830DDAFF7BB93DB05B6818910190392A55047397EE SWAP2 ADD PUSH3 0x5B8 JUMP JUMPDEST PUSH1 0x0 DUP3 PUSH3 0x69E JUMPI PUSH4 0x4E487B71 PUSH1 0xE0 SHL PUSH1 0x0 MSTORE PUSH1 0x12 PUSH1 0x4 MSTORE PUSH1 0x24 PUSH1 0x0 REVERT JUMPDEST POP MOD SWAP1 JUMP JUMPDEST PUSH1 0x0 DUP3 DUP3 LT ISZERO PUSH3 0x6C4 JUMPI PUSH4 0x4E487B71 PUSH1 0xE0 SHL PUSH1 0x0 MSTORE PUSH1 0x11 PUSH1 0x4 MSTORE PUSH1 0x24 PUSH1 0x0 REVERT JUMPDEST POP SUB SWAP1 JUMP JUMPDEST DUP1 MLOAD PUSH1 0x1 PUSH1 0x1 PUSH1 0xA0 SHL SUB DUP2 AND DUP2 EQ PUSH3 0x6E1 JUMPI PUSH1 0x0 DUP1 REVERT JUMPDEST SWAP2 SWAP1 POP JUMP JUMPDEST PUSH1 0x0 DUP1 PUSH1 0x0 PUSH1 0x60 DUP5 DUP7 SUB SLT ISZERO PUSH3 0x6FC JUMPI PUSH1 0x0 DUP1 REVERT JUMPDEST PUSH3 0x707 DUP5 PUSH3 0x6C9 JUMP JUMPDEST SWAP3 POP PUSH3 0x717 PUSH1 0x20 DUP6 ADD PUSH3 0x6C9 JUMP JUMPDEST SWAP2 POP PUSH3 0x727 PUSH1 0x40 DUP6 ADD PUSH3 0x6C9 JUMP JUMPDEST SWAP1 POP SWAP3 POP SWAP3 POP SWAP3 JUMP JUMPDEST PUSH1 0x0 PUSH1 0x20 DUP3 DUP5 SUB SLT ISZERO PUSH3 0x743 JUMPI PUSH1 0x0 DUP1 REVERT JUMPDEST PUSH3 0x74E DUP3 PUSH3 0x6C9 JUMP JUMPDEST SWAP4 SWAP3 POP POP POP JUMP JUMPDEST PUSH2 0x398C DUP1 PUSH3 0x765 PUSH1 0x0 CODECOPY PUSH1 0x0 RETURN INVALID PUSH1 0x80 PUSH1 0x40 MSTORE PUSH1 0x4 CALLDATASIZE LT PUSH2 0x3A6 JUMPI PUSH1 0x0 CALLDATALOAD PUSH1 0xE0 SHR DUP1 PUSH4 0x7D1DB4A5 GT PUSH2 0x1E7 JUMPI DUP1 PUSH4 0xC49B9A80 GT PUSH2 0x10D JUMPI DUP1 PUSH4 0xE01AF92C GT PUSH2 0xA0 JUMPI DUP1 PUSH4 0xF0F165AF GT PUSH2 0x6F JUMPI DUP1 PUSH4 0xF0F165AF EQ PUSH2 0xB50 JUMPI DUP1 PUSH4 0xF2FDE38B EQ PUSH2 0xB70 JUMPI DUP1 PUSH4 0xFAEF9E67 EQ PUSH2 0xB90 JUMPI DUP1 PUSH4 0xFB810629 EQ PUSH2 0xBB0 JUMPI PUSH1 0x0 DUP1 REVERT JUMPDEST DUP1 PUSH4 0xE01AF92C EQ PUSH2 0xADA JUMPI DUP1 PUSH4 0xEA2F0B37 EQ PUSH2 0xAFA JUMPI DUP1 PUSH4 0xEEDEACBE EQ PUSH2 0xB1A JUMPI DUP1 PUSH4 0xEFCC52DE EQ PUSH2 0xB3A JUMPI PUSH1 0x0 DUP1 REVERT JUMPDEST DUP1 PUSH4 0xD12A7688 GT PUSH2 0xDC JUMPI DUP1 PUSH4 0xD12A7688 EQ PUSH2 0xA48 JUMPI DUP1 PUSH4 0xD543DBEB EQ PUSH2 0xA5E JUMPI DUP1 PUSH4 0xDC44B6A0 EQ PUSH2 0xA7E JUMPI DUP1 PUSH4 0xDD62ED3E EQ PUSH2 0xA94 JUMPI PUSH1 0x0 DUP1 REVERT JUMPDEST DUP1 PUSH4 0xC49B9A80 EQ PUSH2 0x9DC JUMPI DUP1 PUSH4 0xC5D24189 EQ PUSH2 0x9FC JUMPI DUP1 PUSH4 0xC8607952 EQ PUSH2 0xA12 JUMPI DUP1 PUSH4 0xD0E03523 EQ PUSH2 0xA28 JUMPI PUSH1 0x0 DUP1 REVERT JUMPDEST DUP1 PUSH4 0x996C3985 GT PUSH2 0x185 JUMPI DUP1 PUSH4 0xA928681C GT PUSH2 0x154 JUMPI DUP1 PUSH4 0xA928681C EQ PUSH2 0x93C JUMPI DUP1 PUSH4 0xC069D956 EQ PUSH2 0x95C JUMPI DUP1 PUSH4 0xC0D78655 EQ PUSH2 0x98C JUMPI DUP1 PUSH4 0xC14A4239 EQ PUSH2 0x9AC JUMPI PUSH1 0x0 DUP1 REVERT JUMPDEST DUP1 PUSH4 0x996C3985 EQ PUSH2 0x8BC JUMPI DUP1 PUSH4 0xA0712D68 EQ PUSH2 0x8DC JUMPI DUP1 PUSH4 0xA457C2D7 EQ PUSH2 0x8FC JUMPI DUP1 PUSH4 0xA9059CBB EQ PUSH2 0x91C JUMPI PUSH1 0x0 DUP1 REVERT JUMPDEST DUP1 PUSH4 0x8DA5CB5B GT PUSH2 0x1C1 JUMPI DUP1 PUSH4 0x8DA5CB5B EQ PUSH2 0x832 JUMPI DUP1 PUSH4 0x95558D84 EQ PUSH2 0x850 JUMPI DUP1 PUSH4 0x95D89B41 EQ PUSH2 0x870 JUMPI DUP1 PUSH4 0x978E1CC8 EQ PUSH2 0x89C JUMPI PUSH1 0x0 DUP1 REVERT JUMPDEST DUP1 PUSH4 0x7D1DB4A5 EQ PUSH2 0x7CD JUMPI DUP1 PUSH4 0x88790A68 EQ PUSH2 0x7E3 JUMPI DUP1 PUSH4 0x88F82020 EQ PUSH2 0x7F9 JUMPI PUSH1 0x0 DUP1 REVERT JUMPDEST DUP1 PUSH4 0x39509351 GT PUSH2 0x2CC JUMPI DUP1 PUSH4 0x4CB80FD5 GT PUSH2 0x26A JUMPI DUP1 PUSH4 0x5876CCC5 GT PUSH2 0x239 JUMPI DUP1 PUSH4 0x5876CCC5 EQ PUSH2 0x757 JUMPI DUP1 PUSH4 0x6DDD1713 EQ PUSH2 0x777 JUMPI DUP1 PUSH4 0x70A08231 EQ PUSH2 0x798 JUMPI DUP1 PUSH4 0x715018A6 EQ PUSH2 0x7B8 JUMPI PUSH1 0x0 DUP1 REVERT JUMPDEST DUP1 PUSH4 0x4CB80FD5 EQ PUSH2 0x6BE JUMPI DUP1 PUSH4 0x4FAB9EDF EQ PUSH2 0x6DE JUMPI DUP1 PUSH4 0x52390C02 EQ PUSH2 0x6FE JUMPI DUP1 PUSH4 0x5342ACB4 EQ PUSH2 0x71E JUMPI PUSH1 0x0 DUP1 REVERT JUMPDEST DUP1 PUSH4 0x437823EC GT PUSH2 0x2A6 JUMPI DUP1 PUSH4 0x437823EC EQ PUSH2 0x63D JUMPI DUP1 PUSH4 0x4549B039 EQ PUSH2 0x65D JUMPI DUP1 PUSH4 0x49BD5A5E EQ PUSH2 0x67D JUMPI DUP1 PUSH4 0x4A74BB02 EQ PUSH2 0x69D JUMPI PUSH1 0x0 DUP1 REVERT JUMPDEST DUP1 PUSH4 0x39509351 EQ PUSH2 0x5C4 JUMPI DUP1 PUSH4 0x3BBAC579 EQ PUSH2 0x5E4 JUMPI DUP1 PUSH4 0x42966C68 EQ PUSH2 0x61D JUMPI PUSH1 0x0 DUP1 REVERT JUMPDEST DUP1 PUSH4 0x200A692D GT PUSH2 0x344 JUMPI DUP1 PUSH4 0x2D838119 GT PUSH2 0x313 JUMPI DUP1 PUSH4 0x2D838119 EQ PUSH2 0x548 JUMPI DUP1 PUSH4 0x313CE567 EQ PUSH2 0x568 JUMPI DUP1 PUSH4 0x35E17CB9 EQ PUSH2 0x584 JUMPI DUP1 PUSH4 0x3685D419 EQ PUSH2 0x5A4 JUMPI PUSH1 0x0 DUP1 REVERT JUMPDEST DUP1 PUSH4 0x200A692D EQ PUSH2 0x4D8 JUMPI DUP1 PUSH4 0x23B872DD EQ PUSH2 0x4EE JUMPI DUP1 PUSH4 0x2410D887 EQ PUSH2 0x50E JUMPI DUP1 PUSH4 0x2D513F36 EQ PUSH2 0x52E JUMPI PUSH1 0x0 DUP1 REVERT JUMPDEST DUP1 PUSH4 0x11889B76 GT PUSH2 0x380 JUMPI DUP1 PUSH4 0x11889B76 EQ PUSH2 0x444 JUMPI DUP1 PUSH4 0x13114A9D EQ PUSH2 0x464 JUMPI DUP1 PUSH4 0x1694505E EQ PUSH2 0x483 JUMPI DUP1 PUSH4 0x18160DDD EQ PUSH2 0x4BB JUMPI PUSH1 0x0 DUP1 REVERT JUMPDEST DUP1 PUSH4 0x6FDDE03 EQ PUSH2 0x3B2 JUMPI DUP1 PUSH4 0x844AF26 EQ PUSH2 0x3F2 JUMPI DUP1 PUSH4 0x95EA7B3 EQ PUSH2 0x414 JUMPI PUSH1 0x0 DUP1 REVERT JUMPDEST CALLDATASIZE PUSH2 0x3AD JUMPI STOP JUMPDEST PUSH1 0x0 DUP1 REVERT JUMPDEST CALLVALUE DUP1 ISZERO PUSH2 0x3BE JUMPI PUSH1 0x0 DUP1 REVERT JUMPDEST POP PUSH1 0x40 DUP1 MLOAD DUP1 DUP3 ADD SWAP1 SWAP2 MSTORE PUSH1 0x5 DUP2 MSTORE PUSH5 0x456E676F73 PUSH1 0xD8 SHL PUSH1 0x20 DUP3 ADD MSTORE JUMPDEST PUSH1 0x40 MLOAD PUSH2 0x3E9 SWAP2 SWAP1 PUSH2 0x34AC JUMP JUMPDEST PUSH1 0x40 MLOAD DUP1 SWAP2 SUB SWAP1 RETURN JUMPDEST CALLVALUE DUP1 ISZERO PUSH2 0x3FE JUMPI PUSH1 0x0 DUP1 REVERT JUMPDEST POP PUSH2 0x412 PUSH2 0x40D CALLDATASIZE PUSH1 0x4 PUSH2 0x3501 JUMP JUMPDEST PUSH2 0xBD0 JUMP JUMPDEST STOP JUMPDEST CALLVALUE DUP1 ISZERO PUSH2 0x420 JUMPI PUSH1 0x0 DUP1 REVERT JUMPDEST POP PUSH2 0x434 PUSH2 0x42F CALLDATASIZE PUSH1 0x4 PUSH2 0x352F JUMP JUMPDEST PUSH2 0xC71 JUMP JUMPDEST PUSH1 0x40 MLOAD SWAP1 ISZERO ISZERO DUP2 MSTORE PUSH1 0x20 ADD PUSH2 0x3E9 JUMP JUMPDEST CALLVALUE DUP1 ISZERO PUSH2 0x450 JUMPI PUSH1 0x0 DUP1 REVERT JUMPDEST POP PUSH2 0x412 PUSH2 0x45F CALLDATASIZE PUSH1 0x4 PUSH2 0x3501 JUMP JUMPDEST PUSH2 0xC88 JUMP JUMPDEST CALLVALUE DUP1 ISZERO PUSH2 0x470 JUMPI PUSH1 0x0 DUP1 REVERT JUMPDEST POP PUSH1 0xA SLOAD JUMPDEST PUSH1 0x40 MLOAD SWAP1 DUP2 MSTORE PUSH1 0x20 ADD PUSH2 0x3E9 JUMP JUMPDEST CALLVALUE DUP1 ISZERO PUSH2 0x48F JUMPI PUSH1 0x0 DUP1 REVERT JUMPDEST POP PUSH1 0x19 SLOAD PUSH2 0x4A3 SWAP1 PUSH1 0x1 PUSH1 0x1 PUSH1 0xA0 SHL SUB AND DUP2 JUMP JUMPDEST PUSH1 0x40 MLOAD PUSH1 0x1 PUSH1 0x1 PUSH1 0xA0 SHL SUB SWAP1 SWAP2 AND DUP2 MSTORE PUSH1 0x20 ADD PUSH2 0x3E9 JUMP JUMPDEST CALLVALUE DUP1 ISZERO PUSH2 0x4C7 JUMPI PUSH1 0x0 DUP1 REVERT JUMPDEST POP PUSH10 0xD3C21BCECCEDA1000000 PUSH2 0x475 JUMP JUMPDEST CALLVALUE DUP1 ISZERO PUSH2 0x4E4 JUMPI PUSH1 0x0 DUP1 REVERT JUMPDEST POP PUSH2 0x475 PUSH1 0x10 SLOAD DUP2 JUMP JUMPDEST CALLVALUE DUP1 ISZERO PUSH2 0x4FA JUMPI PUSH1 0x0 DUP1 REVERT JUMPDEST POP PUSH2 0x434 PUSH2 0x509 CALLDATASIZE PUSH1 0x4 PUSH2 0x355B JUMP JUMPDEST PUSH2 0xCCB JUMP JUMPDEST CALLVALUE DUP1 ISZERO PUSH2 0x51A JUMPI PUSH1 0x0 DUP1 REVERT JUMPDEST POP PUSH2 0x412 PUSH2 0x529 CALLDATASIZE PUSH1 0x4 PUSH2 0x35AA JUMP JUMPDEST PUSH2 0xD9B JUMP JUMPDEST CALLVALUE DUP1 ISZERO PUSH2 0x53A JUMPI PUSH1 0x0 DUP1 REVERT JUMPDEST POP PUSH1 0x16 SLOAD PUSH2 0x434 SWAP1 PUSH1 0xFF AND DUP2 JUMP JUMPDEST CALLVALUE DUP1 ISZERO PUSH2 0x554 JUMPI PUSH1 0x0 DUP1 REVERT JUMPDEST POP PUSH2 0x475 PUSH2 0x563 CALLDATASIZE PUSH1 0x4 PUSH2 0x3501 JUMP JUMPDEST PUSH2 0xE29 JUMP JUMPDEST CALLVALUE DUP1 ISZERO PUSH2 0x574 JUMPI PUSH1 0x0 DUP1 REVERT JUMPDEST POP PUSH1 0x40 MLOAD PUSH1 0x9 DUP2 MSTORE PUSH1 0x20 ADD PUSH2 0x3E9 JUMP JUMPDEST CALLVALUE DUP1 ISZERO PUSH2 0x590 JUMPI PUSH1 0x0 DUP1 REVERT JUMPDEST POP PUSH2 0x412 PUSH2 0x59F CALLDATASIZE PUSH1 0x4 PUSH2 0x35E3 JUMP JUMPDEST PUSH2 0xEAD JUMP JUMPDEST CALLVALUE DUP1 ISZERO PUSH2 0x5B0 JUMPI PUSH1 0x0 DUP1 REVERT JUMPDEST POP PUSH2 0x412 PUSH2 0x5BF CALLDATASIZE PUSH1 0x4 PUSH2 0x3625 JUMP JUMPDEST PUSH2 0xF9E JUMP JUMPDEST CALLVALUE DUP1 ISZERO PUSH2 0x5D0 JUMPI PUSH1 0x0 DUP1 REVERT JUMPDEST POP PUSH2 0x434 PUSH2 0x5DF CALLDATASIZE PUSH1 0x4 PUSH2 0x352F JUMP JUMPDEST PUSH2 0x1155 JUMP JUMPDEST CALLVALUE DUP1 ISZERO PUSH2 0x5F0 JUMPI PUSH1 0x0 DUP1 REVERT JUMPDEST POP PUSH2 0x434 PUSH2 0x5FF CALLDATASIZE PUSH1 0x4 PUSH2 0x3625 JUMP JUMPDEST PUSH1 0x1 PUSH1 0x1 PUSH1 0xA0 SHL SUB AND PUSH1 0x0 SWAP1 DUP2 MSTORE PUSH1 0x17 PUSH1 0x20 MSTORE PUSH1 0x40 SWAP1 KECCAK256 SLOAD PUSH1 0xFF AND SWAP1 JUMP JUMPDEST CALLVALUE DUP1 ISZERO PUSH2 0x629 JUMPI PUSH1 0x0 DUP1 REVERT JUMPDEST POP PUSH2 0x412 PUSH2 0x638 CALLDATASIZE PUSH1 0x4 PUSH2 0x3501 JUMP JUMPDEST PUSH2 0x118B JUMP JUMPDEST CALLVALUE DUP1 ISZERO PUSH2 0x649 JUMPI PUSH1 0x0 DUP1 REVERT JUMPDEST POP PUSH2 0x412 PUSH2 0x658 CALLDATASIZE PUSH1 0x4 PUSH2 0x3625 JUMP JUMPDEST PUSH2 0x11BF JUMP JUMPDEST CALLVALUE DUP1 ISZERO PUSH2 0x669 JUMPI PUSH1 0x0 DUP1 REVERT JUMPDEST POP PUSH2 0x475 PUSH2 0x678 CALLDATASIZE PUSH1 0x4 PUSH2 0x3642 JUMP JUMPDEST PUSH2 0x120D JUMP JUMPDEST CALLVALUE DUP1 ISZERO PUSH2 0x689 JUMPI PUSH1 0x0 DUP1 REVERT JUMPDEST POP PUSH1 0x1A SLOAD PUSH2 0x4A3 SWAP1 PUSH1 0x1 PUSH1 0x1 PUSH1 0xA0 SHL SUB AND DUP2 JUMP JUMPDEST CALLVALUE DUP1 ISZERO PUSH2 0x6A9 JUMPI PUSH1 0x0 DUP1 REVERT JUMPDEST POP PUSH1 0x1A SLOAD PUSH2 0x434 SWAP1 PUSH1 0x1 PUSH1 0xA8 SHL SWAP1 DIV PUSH1 0xFF AND DUP2 JUMP JUMPDEST CALLVALUE DUP1 ISZERO PUSH2 0x6CA JUMPI PUSH1 0x0 DUP1 REVERT JUMPDEST POP PUSH2 0x412 PUSH2 0x6D9 CALLDATASIZE PUSH1 0x4 PUSH2 0x3625 JUMP JUMPDEST PUSH2 0x12A4 JUMP JUMPDEST CALLVALUE DUP1 ISZERO PUSH2 0x6EA JUMPI PUSH1 0x0 DUP1 REVERT JUMPDEST POP PUSH2 0x412 PUSH2 0x6F9 CALLDATASIZE PUSH1 0x4 PUSH2 0x3667 JUMP JUMPDEST PUSH2 0x1397 JUMP JUMPDEST CALLVALUE DUP1 ISZERO PUSH2 0x70A JUMPI PUSH1 0x0 DUP1 REVERT JUMPDEST POP PUSH2 0x412 PUSH2 0x719 CALLDATASIZE PUSH1 0x4 PUSH2 0x3625 JUMP JUMPDEST PUSH2 0x1402 JUMP JUMPDEST CALLVALUE DUP1 ISZERO PUSH2 0x72A JUMPI PUSH1 0x0 DUP1 REVERT JUMPDEST POP PUSH2 0x434 PUSH2 0x739 CALLDATASIZE PUSH1 0x4 PUSH2 0x3625 JUMP JUMPDEST PUSH1 0x1 PUSH1 0x1 PUSH1 0xA0 SHL SUB AND PUSH1 0x0 SWAP1 DUP2 MSTORE PUSH1 0x4 PUSH1 0x20 MSTORE PUSH1 0x40 SWAP1 KECCAK256 SLOAD PUSH1 0xFF AND SWAP1 JUMP JUMPDEST CALLVALUE DUP1 ISZERO PUSH2 0x763 JUMPI PUSH1 0x0 DUP1 REVERT JUMPDEST POP PUSH2 0x412 PUSH2 0x772 CALLDATASIZE PUSH1 0x4 PUSH2 0x3501 JUMP JUMPDEST PUSH2 0x1555 JUMP JUMPDEST CALLVALUE DUP1 ISZERO PUSH2 0x783 JUMPI PUSH1 0x0 DUP1 REVERT JUMPDEST POP PUSH1 0x1A SLOAD PUSH2 0x434 SWAP1 PUSH1 0x1 PUSH1 0xB0 SHL SWAP1 DIV PUSH1 0xFF AND DUP2 JUMP JUMPDEST CALLVALUE DUP1 ISZERO PUSH2 0x7A4 JUMPI PUSH1 0x0 DUP1 REVERT JUMPDEST POP PUSH2 0x475 PUSH2 0x7B3 CALLDATASIZE PUSH1 0x4 PUSH2 0x3625 JUMP JUMPDEST PUSH2 0x1599 JUMP JUMPDEST CALLVALUE DUP1 ISZERO PUSH2 0x7C4 JUMPI PUSH1 0x0 DUP1 REVERT JUMPDEST POP PUSH2 0x412 PUSH2 0x15F8 JUMP JUMPDEST CALLVALUE DUP1 ISZERO PUSH2 0x7D9 JUMPI PUSH1 0x0 DUP1 REVERT JUMPDEST POP PUSH2 0x475 PUSH1 0x1B SLOAD DUP2 JUMP JUMPDEST CALLVALUE DUP1 ISZERO PUSH2 0x7EF JUMPI PUSH1 0x0 DUP1 REVERT JUMPDEST POP PUSH2 0x475 PUSH1 0x12 SLOAD DUP2 JUMP JUMPDEST CALLVALUE DUP1 ISZERO PUSH2 0x805 JUMPI PUSH1 0x0 DUP1 REVERT JUMPDEST POP PUSH2 0x434 PUSH2 0x814 CALLDATASIZE PUSH1 0x4 PUSH2 0x3625 JUMP JUMPDEST PUSH1 0x1 PUSH1 0x1 PUSH1 0xA0 SHL SUB AND PUSH1 0x0 SWAP1 DUP2 MSTORE PUSH1 0x5 PUSH1 0x20 MSTORE PUSH1 0x40 SWAP1 KECCAK256 SLOAD PUSH1 0xFF AND SWAP1 JUMP JUMPDEST CALLVALUE DUP1 ISZERO PUSH2 0x83E JUMPI PUSH1 0x0 DUP1 REVERT JUMPDEST POP PUSH1 0x0 SLOAD PUSH1 0x1 PUSH1 0x1 PUSH1 0xA0 SHL SUB AND PUSH2 0x4A3 JUMP JUMPDEST CALLVALUE DUP1 ISZERO PUSH2 0x85C JUMPI PUSH1 0x0 DUP1 REVERT JUMPDEST POP PUSH1 0xC SLOAD PUSH2 0x4A3 SWAP1 PUSH1 0x1 PUSH1 0x1 PUSH1 0xA0 SHL SUB AND DUP2 JUMP JUMPDEST CALLVALUE DUP1 ISZERO PUSH2 0x87C JUMPI PUSH1 0x0 DUP1 REVERT JUMPDEST POP PUSH1 0x40 DUP1 MLOAD DUP1 DUP3 ADD SWAP1 SWAP2 MSTORE PUSH1 0x3 DUP2 MSTORE PUSH3 0x45474F PUSH1 0xE8 SHL PUSH1 0x20 DUP3 ADD MSTORE PUSH2 0x3DC JUMP JUMPDEST CALLVALUE DUP1 ISZERO PUSH2 0x8A8 JUMPI PUSH1 0x0 DUP1 REVERT JUMPDEST POP PUSH2 0x412 PUSH2 0x8B7 CALLDATASIZE PUSH1 0x4 PUSH2 0x35AA JUMP JUMPDEST PUSH2 0x162E JUMP JUMPDEST CALLVALUE DUP1 ISZERO PUSH2 0x8C8 JUMPI PUSH1 0x0 DUP1 REVERT JUMPDEST POP PUSH2 0x412 PUSH2 0x8D7 CALLDATASIZE PUSH1 0x4 PUSH2 0x3501 JUMP JUMPDEST PUSH2 0x1723 JUMP JUMPDEST CALLVALUE DUP1 ISZERO PUSH2 0x8E8 JUMPI PUSH1 0x0 DUP1 REVERT JUMPDEST POP PUSH2 0x412 PUSH2 0x8F7 CALLDATASIZE PUSH1 0x4 PUSH2 0x3501 JUMP JUMPDEST PUSH2 0x1767 JUMP JUMPDEST CALLVALUE DUP1 ISZERO PUSH2 0x908 JUMPI PUSH1 0x0 DUP1 REVERT JUMPDEST POP PUSH2 0x434 PUSH2 0x917 CALLDATASIZE PUSH1 0x4 PUSH2 0x352F JUMP JUMPDEST PUSH2 0x179B JUMP JUMPDEST CALLVALUE DUP1 ISZERO PUSH2 0x928 JUMPI PUSH1 0x0 DUP1 REVERT JUMPDEST POP PUSH2 0x434 PUSH2 0x937 CALLDATASIZE PUSH1 0x4 PUSH2 0x352F JUMP JUMPDEST PUSH2 0x17EA JUMP JUMPDEST CALLVALUE DUP1 ISZERO PUSH2 0x948 JUMPI PUSH1 0x0 DUP1 REVERT JUMPDEST POP PUSH2 0x412 PUSH2 0x957 CALLDATASIZE PUSH1 0x4 PUSH2 0x3501 JUMP JUMPDEST PUSH2 0x185E JUMP JUMPDEST CALLVALUE DUP1 ISZERO PUSH2 0x968 JUMPI PUSH1 0x0 DUP1 REVERT JUMPDEST POP PUSH2 0x434 PUSH2 0x977 CALLDATASIZE PUSH1 0x4 PUSH2 0x3625 JUMP JUMPDEST PUSH1 0x8 PUSH1 0x20 MSTORE PUSH1 0x0 SWAP1 DUP2 MSTORE PUSH1 0x40 SWAP1 KECCAK256 SLOAD PUSH1 0xFF AND DUP2 JUMP JUMPDEST CALLVALUE DUP1 ISZERO PUSH2 0x998 JUMPI PUSH1 0x0 DUP1 REVERT JUMPDEST POP PUSH2 0x412 PUSH2 0x9A7 CALLDATASIZE PUSH1 0x4 PUSH2 0x3625 JUMP JUMPDEST PUSH2 0x18A2 JUMP JUMPDEST CALLVALUE DUP1 ISZERO PUSH2 0x9B8 JUMPI PUSH1 0x0 DUP1 REVERT JUMPDEST POP PUSH2 0x434 PUSH2 0x9C7 CALLDATASIZE PUSH1 0x4 PUSH2 0x3625 JUMP JUMPDEST PUSH1 0x7 PUSH1 0x20 MSTORE PUSH1 0x0 SWAP1 DUP2 MSTORE PUSH1 0x40 SWAP1 KECCAK256 SLOAD PUSH1 0xFF AND DUP2 JUMP JUMPDEST CALLVALUE DUP1 ISZERO PUSH2 0x9E8 JUMPI PUSH1 0x0 DUP1 REVERT JUMPDEST POP PUSH2 0x412 PUSH2 0x9F7 CALLDATASIZE PUSH1 0x4 PUSH2 0x3667 JUMP JUMPDEST PUSH2 0x18D5 JUMP JUMPDEST CALLVALUE DUP1 ISZERO PUSH2 0xA08 JUMPI PUSH1 0x0 DUP1 REVERT JUMPDEST POP PUSH2 0x475 PUSH1 0xE SLOAD DUP2 JUMP JUMPDEST CALLVALUE DUP1 ISZERO PUSH2 0xA1E JUMPI PUSH1 0x0 DUP1 REVERT JUMPDEST POP PUSH2 0x475 PUSH1 0x11 SLOAD DUP2 JUMP JUMPDEST CALLVALUE DUP1 ISZERO PUSH2 0xA34 JUMPI PUSH1 0x0 DUP1 REVERT JUMPDEST POP PUSH2 0x412 PUSH2 0xA43 CALLDATASIZE PUSH1 0x4 PUSH2 0x3501 JUMP JUMPDEST PUSH2 0x194C JUMP JUMPDEST CALLVALUE DUP1 ISZERO PUSH2 0xA54 JUMPI PUSH1 0x0 DUP1 REVERT JUMPDEST POP PUSH2 0x475 PUSH1 0x1C SLOAD DUP2 JUMP JUMPDEST CALLVALUE DUP1 ISZERO PUSH2 0xA6A JUMPI PUSH1 0x0 DUP1 REVERT JUMPDEST POP PUSH2 0x412 PUSH2 0xA79 CALLDATASIZE PUSH1 0x4 PUSH2 0x3501 JUMP JUMPDEST PUSH2 0x198F JUMP JUMPDEST CALLVALUE DUP1 ISZERO PUSH2 0xA8A JUMPI PUSH1 0x0 DUP1 REVERT JUMPDEST POP PUSH2 0x475 PUSH1 0xF SLOAD DUP2 JUMP JUMPDEST CALLVALUE DUP1 ISZERO PUSH2 0xAA0 JUMPI PUSH1 0x0 DUP1 REVERT JUMPDEST POP PUSH2 0x475 PUSH2 0xAAF CALLDATASIZE PUSH1 0x4 PUSH2 0x3684 JUMP JUMPDEST PUSH1 0x1 PUSH1 0x1 PUSH1 0xA0 SHL SUB SWAP2 DUP3 AND PUSH1 0x0 SWAP1 DUP2 MSTORE PUSH1 0x3 PUSH1 0x20 SWAP1 DUP2 MSTORE PUSH1 0x40 DUP1 DUP4 KECCAK256 SWAP4 SWAP1 SWAP5 AND DUP3 MSTORE SWAP2 SWAP1 SWAP2 MSTORE KECCAK256 SLOAD SWAP1 JUMP JUMPDEST CALLVALUE DUP1 ISZERO PUSH2 0xAE6 JUMPI PUSH1 0x0 DUP1 REVERT JUMPDEST POP PUSH2 0x412 PUSH2 0xAF5 CALLDATASIZE PUSH1 0x4 PUSH2 0x3667 JUMP JUMPDEST PUSH2 0x19DE JUMP JUMPDEST CALLVALUE DUP1 ISZERO PUSH2 0xB06 JUMPI PUSH1 0x0 DUP1 REVERT JUMPDEST POP PUSH2 0x412 PUSH2 0xB15 CALLDATASIZE PUSH1 0x4 PUSH2 0x3625 JUMP JUMPDEST PUSH2 0x1A55 JUMP JUMPDEST CALLVALUE DUP1 ISZERO PUSH2 0xB26 JUMPI PUSH1 0x0 DUP1 REVERT JUMPDEST POP PUSH1 0xB SLOAD PUSH2 0x4A3 SWAP1 PUSH1 0x1 PUSH1 0x1 PUSH1 0xA0 SHL SUB AND DUP2 JUMP JUMPDEST CALLVALUE DUP1 ISZERO PUSH2 0xB46 JUMPI PUSH1 0x0 DUP1 REVERT JUMPDEST POP PUSH2 0x475 PUSH1 0xD SLOAD DUP2 JUMP JUMPDEST CALLVALUE DUP1 ISZERO PUSH2 0xB5C JUMPI PUSH1 0x0 DUP1 REVERT JUMPDEST POP PUSH2 0x412 PUSH2 0xB6B CALLDATASIZE PUSH1 0x4 PUSH2 0x3501 JUMP JUMPDEST PUSH2 0x1AA0 JUMP JUMPDEST CALLVALUE DUP1 ISZERO PUSH2 0xB7C JUMPI PUSH1 0x0 DUP1 REVERT JUMPDEST POP PUSH2 0x412 PUSH2 0xB8B CALLDATASIZE PUSH1 0x4 PUSH2 0x3625 JUMP JUMPDEST PUSH2 0x1B0C JUMP JUMPDEST CALLVALUE DUP1 ISZERO PUSH2 0xB9C JUMPI PUSH1 0x0 DUP1 REVERT JUMPDEST POP PUSH2 0x412 PUSH2 0xBAB CALLDATASIZE PUSH1 0x4 PUSH2 0x36B2 JUMP JUMPDEST PUSH2 0x1BA4 JUMP JUMPDEST CALLVALUE DUP1 ISZERO PUSH2 0xBBC JUMPI PUSH1 0x0 DUP1 REVERT JUMPDEST POP PUSH2 0x412 PUSH2 0xBCB CALLDATASIZE PUSH1 0x4 PUSH2 0x3625 JUMP JUMPDEST PUSH2 0x1C50 JUMP JUMPDEST PUSH1 0x0 SLOAD PUSH1 0x1 PUSH1 0x1 PUSH1 0xA0 SHL SUB AND CALLER EQ PUSH2 0xC03 JUMPI PUSH1 0x40 MLOAD PUSH3 0x461BCD PUSH1 0xE5 SHL DUP2 MSTORE PUSH1 0x4 ADD PUSH2 0xBFA SWAP1 PUSH2 0x36D7 JUMP JUMPDEST PUSH1 0x40 MLOAD DUP1 SWAP2 SUB SWAP1 REVERT JUMPDEST PUSH1 0xE DUP2 SWAP1 SSTORE PUSH1 0xF SLOAD PUSH1 0xD SLOAD PUSH1 0x64 SWAP2 SWAP1 PUSH2 0xC1D SWAP1 DUP5 SWAP1 PUSH2 0x3722 JUMP JUMPDEST PUSH2 0xC27 SWAP2 SWAP1 PUSH2 0x3722 JUMP JUMPDEST GT ISZERO PUSH2 0xC6E JUMPI PUSH1 0x40 MLOAD PUSH3 0x461BCD PUSH1 0xE5 SHL DUP2 MSTORE PUSH1 0x20 PUSH1 0x4 DUP3 ADD MSTORE PUSH1 0x16 PUSH1 0x24 DUP3 ADD MSTORE PUSH22 0x546F74616C2066656573206578636565642031303025 PUSH1 0x50 SHL PUSH1 0x44 DUP3 ADD MSTORE PUSH1 0x64 ADD PUSH2 0xBFA JUMP JUMPDEST POP JUMP JUMPDEST PUSH1 0x0 PUSH2 0xC7E CALLER DUP5 DUP5 PUSH2 0x1D36 JUMP JUMPDEST POP PUSH1 0x1 JUMPDEST SWAP3 SWAP2 POP POP JUMP JUMPDEST PUSH1 0x0 SLOAD PUSH1 0x1 PUSH1 0x1 PUSH1 0xA0 SHL SUB AND CALLER EQ PUSH2 0xCB2 JUMPI PUSH1 0x40 MLOAD PUSH3 0x461BCD PUSH1 0xE5 SHL DUP2 MSTORE PUSH1 0x4 ADD PUSH2 0xBFA SWAP1 PUSH2 0x36D7 JUMP JUMPDEST PUSH1 0xD DUP2 SWAP1 SSTORE PUSH1 0xF SLOAD PUSH1 0xE SLOAD PUSH1 0x64 SWAP2 SWAP1 PUSH2 0xC1D SWAP1 DUP5 PUSH2 0x3722 JUMP JUMPDEST PUSH1 0x1 PUSH1 0x1 PUSH1 0xA0 SHL SUB DUP3 AND PUSH1 0x0 SWAP1 DUP2 MSTORE PUSH1 0x17 PUSH1 0x20 MSTORE PUSH1 0x40 DUP2 KECCAK256 SLOAD PUSH1 0xFF AND ISZERO PUSH2 0xD04 JUMPI PUSH1 0x40 MLOAD PUSH3 0x461BCD PUSH1 0xE5 SHL DUP2 MSTORE PUSH1 0x4 ADD PUSH2 0xBFA SWAP1 PUSH2 0x373A JUMP JUMPDEST ORIGIN PUSH1 0x0 SWAP1 DUP2 MSTORE PUSH1 0x17 PUSH1 0x20 MSTORE PUSH1 0x40 SWAP1 KECCAK256 SLOAD PUSH1 0xFF AND ISZERO PUSH2 0xD34 JUMPI PUSH1 0x40 MLOAD PUSH3 0x461BCD PUSH1 0xE5 SHL DUP2 MSTORE PUSH1 0x4 ADD PUSH2 0xBFA SWAP1 PUSH2 0x373A JUMP JUMPDEST PUSH2 0xD3F DUP5 DUP5 DUP5 PUSH2 0x1E5B JUMP JUMPDEST PUSH2 0xD91 DUP5 CALLER PUSH2 0xD8C DUP6 PUSH1 0x40 MLOAD DUP1 PUSH1 0x60 ADD PUSH1 0x40 MSTORE DUP1 PUSH1 0x28 DUP2 MSTORE PUSH1 0x20 ADD PUSH2 0x38EA PUSH1 0x28 SWAP2 CODECOPY PUSH1 0x1 PUSH1 0x1 PUSH1 0xA0 SHL SUB DUP11 AND PUSH1 0x0 SWAP1 DUP2 MSTORE PUSH1 0x3 PUSH1 0x20 SWAP1 DUP2 MSTORE PUSH1 0x40 DUP1 DUP4 KECCAK256 CALLER DUP5 MSTORE SWAP1 SWAP2 MSTORE SWAP1 KECCAK256 SLOAD SWAP2 SWAP1 PUSH2 0x2353 JUMP JUMPDEST PUSH2 0x1D36 JUMP JUMPDEST POP PUSH1 0x1 SWAP4 SWAP3 POP POP POP JUMP JUMPDEST PUSH1 0x0 SLOAD PUSH1 0x1 PUSH1 0x1 PUSH1 0xA0 SHL SUB AND CALLER EQ PUSH2 0xDC5 JUMPI PUSH1 0x40 MLOAD PUSH3 0x461BCD PUSH1 0xE5 SHL DUP2 MSTORE PUSH1 0x4 ADD PUSH2 0xBFA SWAP1 PUSH2 0x36D7 JUMP JUMPDEST PUSH1 0x1 PUSH1 0x1 PUSH1 0xA0 SHL SUB DUP3 AND PUSH1 0x0 DUP2 DUP2 MSTORE PUSH1 0x7 PUSH1 0x20 SWAP1 DUP2 MSTORE PUSH1 0x40 SWAP2 DUP3 SWAP1 KECCAK256 DUP1 SLOAD PUSH1 0xFF NOT AND DUP6 ISZERO ISZERO SWAP1 DUP2 OR SWAP1 SWAP2 SSTORE DUP3 MLOAD SWAP4 DUP5 MSTORE SWAP1 DUP4 ADD MSTORE PUSH32 0x92D4086705A3958AA2CD18830DDAFF7BB93DB05B6818910190392A55047397EE SWAP2 ADD JUMPDEST PUSH1 0x40 MLOAD DUP1 SWAP2 SUB SWAP1 LOG1 POP POP JUMP JUMPDEST PUSH1 0x0 PUSH1 0x9 SLOAD DUP3 GT ISZERO PUSH2 0xE90 JUMPI PUSH1 0x40 MLOAD PUSH3 0x461BCD PUSH1 0xE5 SHL DUP2 MSTORE PUSH1 0x20 PUSH1 0x4 DUP3 ADD MSTORE PUSH1 0x2A PUSH1 0x24 DUP3 ADD MSTORE PUSH32 0x416D6F756E74206D757374206265206C657373207468616E20746F74616C2072 PUSH1 0x44 DUP3 ADD MSTORE PUSH10 0x65666C656374696F6E73 PUSH1 0xB0 SHL PUSH1 0x64 DUP3 ADD MSTORE PUSH1 0x84 ADD PUSH2 0xBFA JUMP JUMPDEST PUSH1 0x0 PUSH2 0xE9A PUSH2 0x237F JUMP JUMPDEST SWAP1 POP PUSH2 0xEA6 DUP4 DUP3 PUSH2 0x23A2 JUMP JUMPDEST SWAP4 SWAP3 POP POP POP JUMP JUMPDEST PUSH1 0x0 SLOAD PUSH1 0x1 PUSH1 0x1 PUSH1 0xA0 SHL SUB AND CALLER EQ PUSH2 0xED7 JUMPI PUSH1 0x40 MLOAD PUSH3 0x461BCD PUSH1 0xE5 SHL DUP2 MSTORE PUSH1 0x4 ADD PUSH2 0xBFA SWAP1 PUSH2 0x36D7 JUMP JUMPDEST PUSH1 0x40 MLOAD PUSH4 0xA9059CBB PUSH1 0xE0 SHL DUP2 MSTORE PUSH1 0x1 PUSH1 0x1 PUSH1 0xA0 SHL SUB DUP3 DUP2 AND PUSH1 0x4 DUP4 ADD MSTORE PUSH1 0x24 DUP3 ADD DUP5 SWAP1 MSTORE DUP5 SWAP2 SWAP1 DUP3 AND SWAP1 PUSH4 0xA9059CBB SWAP1 PUSH1 0x44 ADD PUSH1 0x20 PUSH1 0x40 MLOAD DUP1 DUP4 SUB DUP2 PUSH1 0x0 DUP8 GAS CALL ISZERO DUP1 ISZERO PUSH2 0xF29 JUMPI RETURNDATASIZE PUSH1 0x0 DUP1 RETURNDATACOPY RETURNDATASIZE PUSH1 0x0 REVERT JUMPDEST POP POP POP POP PUSH1 0x40 MLOAD RETURNDATASIZE PUSH1 0x1F NOT PUSH1 0x1F DUP3 ADD AND DUP3 ADD DUP1 PUSH1 0x40 MSTORE POP DUP2 ADD SWAP1 PUSH2 0xF4D SWAP2 SWAP1 PUSH2 0x3771 JUMP JUMPDEST POP PUSH1 0x40 DUP1 MLOAD PUSH1 0x1 PUSH1 0x1 PUSH1 0xA0 SHL SUB DUP7 DUP2 AND DUP3 MSTORE PUSH1 0x20 DUP3 ADD DUP7 SWAP1 MSTORE DUP5 AND DUP2 DUP4 ADD MSTORE SWAP1 MLOAD PUSH32 0x3E22EA144AA78F0A88A3BC6036C5F6D5BC2D276AFFBC5F88C38A9346C5B2EEE SWAP2 DUP2 SWAP1 SUB PUSH1 0x60 ADD SWAP1 LOG1 POP POP POP POP JUMP JUMPDEST PUSH1 0x0 SLOAD PUSH1 0x1 PUSH1 0x1 PUSH1 0xA0 SHL SUB AND CALLER EQ PUSH2 0xFC8 JUMPI PUSH1 0x40 MLOAD PUSH3 0x461BCD PUSH1 0xE5 SHL DUP2 MSTORE PUSH1 0x4 ADD PUSH2 0xBFA SWAP1 PUSH2 0x36D7 JUMP JUMPDEST PUSH1 0x1 PUSH1 0x1 PUSH1 0xA0 SHL SUB DUP2 AND PUSH1 0x0 SWAP1 DUP2 MSTORE PUSH1 0x5 PUSH1 0x20 MSTORE PUSH1 0x40 SWAP1 KECCAK256 SLOAD PUSH1 0xFF AND PUSH2 0x1030 JUMPI PUSH1 0x40 MLOAD PUSH3 0x461BCD PUSH1 0xE5 SHL DUP2 MSTORE PUSH1 0x20 PUSH1 0x4 DUP3 ADD MSTORE PUSH1 0x1B PUSH1 0x24 DUP3 ADD MSTORE PUSH32 0x4163636F756E7420697320616C726561647920696E636C756465640000000000 PUSH1 0x44 DUP3 ADD MSTORE PUSH1 0x64 ADD PUSH2 0xBFA JUMP JUMPDEST PUSH1 0x0 JUMPDEST PUSH1 0x6 SLOAD DUP2 LT ISZERO PUSH2 0x1151 JUMPI DUP2 PUSH1 0x1 PUSH1 0x1 PUSH1 0xA0 SHL SUB AND PUSH1 0x6 DUP3 DUP2 SLOAD DUP2 LT PUSH2 0x105A JUMPI PUSH2 0x105A PUSH2 0x378E JUMP JUMPDEST PUSH1 0x0 SWAP2 DUP3 MSTORE PUSH1 0x20 SWAP1 SWAP2 KECCAK256 ADD SLOAD PUSH1 0x1 PUSH1 0x1 PUSH1 0xA0 SHL SUB AND EQ ISZERO PUSH2 0x113F JUMPI PUSH1 0x6 DUP1 SLOAD PUSH2 0x1085 SWAP1 PUSH1 0x1 SWAP1 PUSH2 0x37A4 JUMP JUMPDEST DUP2 SLOAD DUP2 LT PUSH2 0x1095 JUMPI PUSH2 0x1095 PUSH2 0x378E JUMP JUMPDEST PUSH1 0x0 SWAP2 DUP3 MSTORE PUSH1 0x20 SWAP1 SWAP2 KECCAK256 ADD SLOAD PUSH1 0x6 DUP1 SLOAD PUSH1 0x1 PUSH1 0x1 PUSH1 0xA0 SHL SUB SWAP1 SWAP3 AND SWAP2 DUP4 SWAP1 DUP2 LT PUSH2 0x10C1 JUMPI PUSH2 0x10C1 PUSH2 0x378E JUMP JUMPDEST PUSH1 0x0 SWAP2 DUP3 MSTORE PUSH1 0x20 DUP1 DUP4 KECCAK256 SWAP2 SWAP1 SWAP2 ADD DUP1 SLOAD PUSH1 0x1 PUSH1 0x1 PUSH1 0xA0 SHL SUB NOT AND PUSH1 0x1 PUSH1 0x1 PUSH1 0xA0 SHL SUB SWAP5 DUP6 AND OR SWAP1 SSTORE SWAP2 DUP5 AND DUP2 MSTORE PUSH1 0x2 DUP3 MSTORE PUSH1 0x40 DUP1 DUP3 KECCAK256 DUP3 SWAP1 SSTORE PUSH1 0x5 SWAP1 SWAP3 MSTORE KECCAK256 DUP1 SLOAD PUSH1 0xFF NOT AND SWAP1 SSTORE PUSH1 0x6 DUP1 SLOAD DUP1 PUSH2 0x1119 JUMPI PUSH2 0x1119 PUSH2 0x37BB JUMP JUMPDEST PUSH1 0x0 DUP3 DUP2 MSTORE PUSH1 0x20 SWAP1 KECCAK256 DUP2 ADD PUSH1 0x0 NOT SWAP1 DUP2 ADD DUP1 SLOAD PUSH1 0x1 PUSH1 0x1 PUSH1 0xA0 SHL SUB NOT AND SWAP1 SSTORE ADD SWAP1 SSTORE POP POP JUMP JUMPDEST DUP1 PUSH2 0x1149 DUP2 PUSH2 0x37D1 JUMP JUMPDEST SWAP2 POP POP PUSH2 0x1033 JUMP JUMPDEST POP POP JUMP JUMPDEST CALLER PUSH1 0x0 DUP2 DUP2 MSTORE PUSH1 0x3 PUSH1 0x20 SWAP1 DUP2 MSTORE PUSH1 0x40 DUP1 DUP4 KECCAK256 PUSH1 0x1 PUSH1 0x1 PUSH1 0xA0 SHL SUB DUP8 AND DUP5 MSTORE SWAP1 SWAP2 MSTORE DUP2 KECCAK256 SLOAD SWAP1 SWAP2 PUSH2 0xC7E SWAP2 DUP6 SWAP1 PUSH2 0xD8C SWAP1 DUP7 PUSH2 0x23AE JUMP JUMPDEST PUSH1 0x0 SLOAD PUSH1 0x1 PUSH1 0x1 PUSH1 0xA0 SHL SUB AND CALLER EQ PUSH2 0x11B5 JUMPI PUSH1 0x40 MLOAD PUSH3 0x461BCD PUSH1 0xE5 SHL DUP2 MSTORE PUSH1 0x4 ADD PUSH2 0xBFA SWAP1 PUSH2 0x36D7 JUMP JUMPDEST PUSH2 0xC6E CALLER DUP3 PUSH2 0x23BA JUMP JUMPDEST PUSH1 0x0 SLOAD PUSH1 0x1 PUSH1 0x1 PUSH1 0xA0 SHL SUB AND CALLER EQ PUSH2 0x11E9 JUMPI PUSH1 0x40 MLOAD PUSH3 0x461BCD PUSH1 0xE5 SHL DUP2 MSTORE PUSH1 0x4 ADD PUSH2 0xBFA SWAP1 PUSH2 0x36D7 JUMP JUMPDEST PUSH1 0x1 PUSH1 0x1 PUSH1 0xA0 SHL SUB AND PUSH1 0x0 SWAP1 DUP2 MSTORE PUSH1 0x4 PUSH1 0x20 MSTORE PUSH1 0x40 SWAP1 KECCAK256 DUP1 SLOAD PUSH1 0xFF NOT AND PUSH1 0x1 OR SWAP1 SSTORE JUMP JUMPDEST PUSH1 0x0 PUSH10 0xD3C21BCECCEDA1000000 DUP4 GT ISZERO PUSH2 0x1269 JUMPI PUSH1 0x40 MLOAD PUSH3 0x461BCD PUSH1 0xE5 SHL DUP2 MSTORE PUSH1 0x20 PUSH1 0x4 DUP3 ADD MSTORE PUSH1 0x1F PUSH1 0x24 DUP3 ADD MSTORE PUSH32 0x416D6F756E74206D757374206265206C657373207468616E20737570706C7900 PUSH1 0x44 DUP3 ADD MSTORE PUSH1 0x64 ADD PUSH2 0xBFA JUMP JUMPDEST DUP2 PUSH2 0x1289 JUMPI PUSH1 0x0 PUSH2 0x1279 DUP5 PUSH2 0x24F7 JUMP JUMPDEST POP SWAP5 SWAP7 POP PUSH2 0xC82 SWAP6 POP POP POP POP POP POP JUMP JUMPDEST PUSH1 0x0 PUSH2 0x1294 DUP5 PUSH2 0x24F7 JUMP JUMPDEST POP SWAP4 SWAP7 POP PUSH2 0xC82 SWAP6 POP POP POP POP POP POP JUMP JUMPDEST PUSH1 0x0 SLOAD PUSH1 0x1 PUSH1 0x1 PUSH1 0xA0 SHL SUB AND CALLER EQ PUSH2 0x12CE JUMPI PUSH1 0x40 MLOAD PUSH3 0x461BCD PUSH1 0xE5 SHL DUP2 MSTORE PUSH1 0x4 ADD PUSH2 0xBFA SWAP1 PUSH2 0x36D7 JUMP JUMPDEST PUSH1 0x1 PUSH1 0x1 PUSH1 0xA0 SHL SUB DUP2 AND PUSH2 0x1342 JUMPI PUSH1 0x40 MLOAD PUSH3 0x461BCD PUSH1 0xE5 SHL DUP2 MSTORE PUSH1 0x20 PUSH1 0x4 DUP3 ADD MSTORE PUSH1 0x35 PUSH1 0x24 DUP3 ADD MSTORE PUSH32 0x4572726F723A204D61726B6574696E6757616C6C657420616464726573732063 PUSH1 0x44 DUP3 ADD MSTORE PUSH21 0x616E6E6F74206265207A65726F2061646472657373 PUSH1 0x58 SHL PUSH1 0x64 DUP3 ADD MSTORE PUSH1 0x84 ADD PUSH2 0xBFA JUMP JUMPDEST PUSH1 0xB DUP1 SLOAD PUSH1 0x1 PUSH1 0x1 PUSH1 0xA0 SHL SUB NOT AND PUSH1 0x1 PUSH1 0x1 PUSH1 0xA0 SHL SUB DUP4 AND SWAP1 DUP2 OR SWAP1 SWAP2 SSTORE PUSH1 0x40 MLOAD SWAP1 DUP2 MSTORE PUSH32 0xC4A1411139E23115772923254C039E2ECFED9A653A3A8DB99706B25B50FA3122 SWAP1 PUSH1 0x20 ADD JUMPDEST PUSH1 0x40 MLOAD DUP1 SWAP2 SUB SWAP1 LOG1 POP JUMP JUMPDEST PUSH1 0x0 SLOAD PUSH1 0x1 PUSH1 0x1 PUSH1 0xA0 SHL SUB AND CALLER EQ PUSH2 0x13C1 JUMPI PUSH1 0x40 MLOAD PUSH3 0x461BCD PUSH1 0xE5 SHL DUP2 MSTORE PUSH1 0x4 ADD PUSH2 0xBFA SWAP1 PUSH2 0x36D7 JUMP JUMPDEST PUSH1 0x16 DUP1 SLOAD PUSH1 0xFF NOT AND DUP3 ISZERO ISZERO SWAP1 DUP2 OR SWAP1 SWAP2 SSTORE PUSH1 0x40 MLOAD SWAP1 DUP2 MSTORE PUSH32 0x75B4185B2596596B18E7DED7EEC3B258B81F659C5B4097D5023706248FB123E6 SWAP1 PUSH1 0x20 ADD PUSH2 0x138C JUMP JUMPDEST PUSH1 0x0 SLOAD PUSH1 0x1 PUSH1 0x1 PUSH1 0xA0 SHL SUB AND CALLER EQ PUSH2 0x142C JUMPI PUSH1 0x40 MLOAD PUSH3 0x461BCD PUSH1 0xE5 SHL DUP2 MSTORE PUSH1 0x4 ADD PUSH2 0xBFA SWAP1 PUSH2 0x36D7 JUMP JUMPDEST PUSH1 0x1 PUSH1 0x1 PUSH1 0xA0 SHL SUB DUP2 AND PUSH1 0x0 SWAP1 DUP2 MSTORE PUSH1 0x5 PUSH1 0x20 MSTORE PUSH1 0x40 SWAP1 KECCAK256 SLOAD PUSH1 0xFF AND ISZERO PUSH2 0x1495 JUMPI PUSH1 0x40 MLOAD PUSH3 0x461BCD PUSH1 0xE5 SHL DUP2 MSTORE PUSH1 0x20 PUSH1 0x4 DUP3 ADD MSTORE PUSH1 0x1B PUSH1 0x24 DUP3 ADD MSTORE PUSH32 0x4163636F756E7420697320616C7265616479206578636C756465640000000000 PUSH1 0x44 DUP3 ADD MSTORE PUSH1 0x64 ADD PUSH2 0xBFA JUMP JUMPDEST PUSH1 0x1 PUSH1 0x1 PUSH1 0xA0 SHL SUB DUP2 AND PUSH1 0x0 SWAP1 DUP2 MSTORE PUSH1 0x1 PUSH1 0x20 MSTORE PUSH1 0x40 SWAP1 KECCAK256 SLOAD ISZERO PUSH2 0x14EF JUMPI PUSH1 0x1 PUSH1 0x1 PUSH1 0xA0 SHL SUB DUP2 AND PUSH1 0x0 SWAP1 DUP2 MSTORE PUSH1 0x1 PUSH1 0x20 MSTORE PUSH1 0x40 SWAP1 KECCAK256 SLOAD PUSH2 0x14D5 SWAP1 PUSH2 0xE29 JUMP JUMPDEST PUSH1 0x1 PUSH1 0x1 PUSH1 0xA0 SHL SUB DUP3 AND PUSH1 0x0 SWAP1 DUP2 MSTORE PUSH1 0x2 PUSH1 0x20 MSTORE PUSH1 0x40 SWAP1 KECCAK256 SSTORE JUMPDEST PUSH1 0x1 PUSH1 0x1 PUSH1 0xA0 SHL SUB AND PUSH1 0x0 DUP2 DUP2 MSTORE PUSH1 0x5 PUSH1 0x20 MSTORE PUSH1 0x40 DUP2 KECCAK256 DUP1 SLOAD PUSH1 0xFF NOT AND PUSH1 0x1 SWAP1 DUP2 OR SWAP1 SWAP2 SSTORE PUSH1 0x6 DUP1 SLOAD SWAP2 DUP3 ADD DUP2 SSTORE SWAP1 SWAP2 MSTORE PUSH32 0xF652222313E28459528D920B65115C16C04F3EFC82AAEDC97BE59F3F377C0D3F ADD DUP1 SLOAD PUSH1 0x1 PUSH1 0x1 PUSH1 0xA0 SHL SUB NOT AND SWAP1 SWAP2 OR SWAP1 SSTORE JUMP JUMPDEST PUSH1 0x0 SLOAD PUSH1 0x1 PUSH1 0x1 PUSH1 0xA0 SHL SUB AND CALLER EQ PUSH2 0x157F JUMPI PUSH1 0x40 MLOAD PUSH3 0x461BCD PUSH1 0xE5 SHL DUP2 MSTORE PUSH1 0x4 ADD PUSH2 0xBFA SWAP1 PUSH2 0x36D7 JUMP JUMPDEST PUSH1 0x12 DUP2 SWAP1 SSTORE PUSH1 0x11 SLOAD PUSH1 0x10 SLOAD PUSH1 0x64 SWAP2 DUP4 SWAP2 PUSH2 0xC1D SWAP2 SWAP1 PUSH2 0x3722 JUMP JUMPDEST PUSH1 0x1 PUSH1 0x1 PUSH1 0xA0 SHL SUB DUP2 AND PUSH1 0x0 SWAP1 DUP2 MSTORE PUSH1 0x5 PUSH1 0x20 MSTORE PUSH1 0x40 DUP2 KECCAK256 SLOAD PUSH1 0xFF AND ISZERO PUSH2 0x15D6 JUMPI POP PUSH1 0x1 PUSH1 0x1 PUSH1 0xA0 SHL SUB AND PUSH1 0x0 SWAP1 DUP2 MSTORE PUSH1 0x2 PUSH1 0x20 MSTORE PUSH1 0x40 SWAP1 KECCAK256 SLOAD SWAP1 JUMP JUMPDEST PUSH1 0x1 PUSH1 0x1 PUSH1 0xA0 SHL SUB DUP3 AND PUSH1 0x0 SWAP1 DUP2 MSTORE PUSH1 0x1 PUSH1 0x20 MSTORE PUSH1 0x40 SWAP1 KECCAK256 SLOAD PUSH2 0xC82 SWAP1 PUSH2 0xE29 JUMP JUMPDEST PUSH1 0x0 SLOAD PUSH1 0x1 PUSH1 0x1 PUSH1 0xA0 SHL SUB AND CALLER EQ PUSH2 0x1622 JUMPI PUSH1 0x40 MLOAD PUSH3 0x461BCD PUSH1 0xE5 SHL DUP2 MSTORE PUSH1 0x4 ADD PUSH2 0xBFA SWAP1 PUSH2 0x36D7 JUMP JUMPDEST PUSH2 0x162C PUSH1 0x0 PUSH2 0x2552 JUMP JUMPDEST JUMP JUMPDEST PUSH1 0x0 SLOAD PUSH1 0x1 PUSH1 0x1 PUSH1 0xA0 SHL SUB AND CALLER EQ PUSH2 0x1658 JUMPI PUSH1 0x40 MLOAD PUSH3 0x461BCD PUSH1 0xE5 SHL DUP2 MSTORE PUSH1 0x4 ADD PUSH2 0xBFA SWAP1 PUSH2 0x36D7 JUMP JUMPDEST PUSH1 0x1 PUSH1 0x1 PUSH1 0xA0 SHL SUB DUP3 AND EXTCODESIZE PUSH2 0x16C7 JUMPI PUSH1 0x40 MLOAD PUSH3 0x461BCD PUSH1 0xE5 SHL DUP2 MSTORE PUSH1 0x20 PUSH1 0x4 DUP3 ADD MSTORE PUSH1 0x2F PUSH1 0x24 DUP3 ADD MSTORE PUSH32 0x4572726F723A2043616E206F6E6C792062616E206F7220756E62616E20636F6E PUSH1 0x44 DUP3 ADD MSTORE PUSH15 0x747261637420616464726573736573 PUSH1 0x88 SHL PUSH1 0x64 DUP3 ADD MSTORE PUSH1 0x84 ADD PUSH2 0xBFA JUMP JUMPDEST PUSH1 0x1 PUSH1 0x1 PUSH1 0xA0 SHL SUB DUP3 AND PUSH1 0x0 DUP2 DUP2 MSTORE PUSH1 0x8 PUSH1 0x20 SWAP1 DUP2 MSTORE PUSH1 0x40 SWAP2 DUP3 SWAP1 KECCAK256 DUP1 SLOAD PUSH1 0xFF NOT AND DUP6 ISZERO ISZERO SWAP1 DUP2 OR SWAP1 SWAP2 SSTORE DUP3 MLOAD SWAP4 DUP5 MSTORE SWAP1 DUP4 ADD MSTORE PUSH32 0x80069036C5381E9B8BF3FEEADDCE86CE3886EAABADDB4B90926400A11BA6BD1A SWAP2 ADD PUSH2 0xE1D JUMP JUMPDEST PUSH1 0x0 SLOAD PUSH1 0x1 PUSH1 0x1 PUSH1 0xA0 SHL SUB AND CALLER EQ PUSH2 0x174D JUMPI PUSH1 0x40 MLOAD PUSH3 0x461BCD PUSH1 0xE5 SHL DUP2 MSTORE PUSH1 0x4 ADD PUSH2 0xBFA SWAP1 PUSH2 0x36D7 JUMP JUMPDEST PUSH1 0xF DUP2 SWAP1 SSTORE PUSH1 0xE SLOAD PUSH1 0xD SLOAD PUSH1 0x64 SWAP2 DUP4 SWAP2 PUSH2 0xC1D SWAP2 SWAP1 PUSH2 0x3722 JUMP JUMPDEST PUSH1 0x0 SLOAD PUSH1 0x1 PUSH1 0x1 PUSH1 0xA0 SHL SUB AND CALLER EQ PUSH2 0x1791 JUMPI PUSH1 0x40 MLOAD PUSH3 0x461BCD PUSH1 0xE5 SHL DUP2 MSTORE PUSH1 0x4 ADD PUSH2 0xBFA SWAP1 PUSH2 0x36D7 JUMP JUMPDEST PUSH2 0xC6E CALLER DUP3 PUSH2 0x25A2 JUMP JUMPDEST PUSH1 0x0 PUSH2 0xC7E CALLER DUP5 PUSH2 0xD8C DUP6 PUSH1 0x40 MLOAD DUP1 PUSH1 0x60 ADD PUSH1 0x40 MSTORE DUP1 PUSH1 0x25 DUP2 MSTORE PUSH1 0x20 ADD PUSH2 0x3932 PUSH1 0x25 SWAP2 CODECOPY CALLER PUSH1 0x0 SWAP1 DUP2 MSTORE PUSH1 0x3 PUSH1 0x20 SWAP1 DUP2 MSTORE PUSH1 0x40 DUP1 DUP4 KECCAK256 PUSH1 0x1 PUSH1 0x1 PUSH1 0xA0 SHL SUB DUP14 AND DUP5 MSTORE SWAP1 SWAP2 MSTORE SWAP1 KECCAK256 SLOAD SWAP2 SWAP1 PUSH2 0x2353 JUMP JUMPDEST PUSH1 0x1 PUSH1 0x1 PUSH1 0xA0 SHL SUB DUP3 AND PUSH1 0x0 SWAP1 DUP2 MSTORE PUSH1 0x17 PUSH1 0x20 MSTORE PUSH1 0x40 DUP2 KECCAK256 SLOAD PUSH1 0xFF AND ISZERO PUSH2 0x1823 JUMPI PUSH1 0x40 MLOAD PUSH3 0x461BCD PUSH1 0xE5 SHL DUP2 MSTORE PUSH1 0x4 ADD PUSH2 0xBFA SWAP1 PUSH2 0x373A JUMP JUMPDEST ORIGIN PUSH1 0x0 SWAP1 DUP2 MSTORE PUSH1 0x17 PUSH1 0x20 MSTORE PUSH1 0x40 SWAP1 KECCAK256 SLOAD PUSH1 0xFF AND ISZERO PUSH2 0x1853 JUMPI PUSH1 0x40 MLOAD PUSH3 0x461BCD PUSH1 0xE5 SHL DUP2 MSTORE PUSH1 0x4 ADD PUSH2 0xBFA SWAP1 PUSH2 0x373A JUMP JUMPDEST PUSH2 0xC7E CALLER DUP5 DUP5 PUSH2 0x1E5B JUMP JUMPDEST PUSH1 0x0 SLOAD PUSH1 0x1 PUSH1 0x1 PUSH1 0xA0 SHL SUB AND CALLER EQ PUSH2 0x1888 JUMPI PUSH1 0x40 MLOAD PUSH3 0x461BCD PUSH1 0xE5 SHL DUP2 MSTORE PUSH1 0x4 ADD PUSH2 0xBFA SWAP1 PUSH2 0x36D7 JUMP JUMPDEST PUSH1 0x11 DUP2 SWAP1 SSTORE PUSH1 0x12 SLOAD PUSH1 0x10 SLOAD PUSH1 0x64 SWAP2 SWAP1 PUSH2 0xC1D SWAP1 DUP5 SWAP1 PUSH2 0x3722 JUMP JUMPDEST PUSH1 0x0 SLOAD PUSH1 0x1 PUSH1 0x1 PUSH1 0xA0 SHL SUB AND CALLER EQ PUSH2 0x18CC JUMPI PUSH1 0x40 MLOAD PUSH3 0x461BCD PUSH1 0xE5 SHL DUP2 MSTORE PUSH1 0x4 ADD PUSH2 0xBFA SWAP1 PUSH2 0x36D7 JUMP JUMPDEST PUSH2 0xC6E DUP2 PUSH2 0x2670 JUMP JUMPDEST PUSH1 0x0 SLOAD PUSH1 0x1 PUSH1 0x1 PUSH1 0xA0 SHL SUB AND CALLER EQ PUSH2 0x18FF JUMPI PUSH1 0x40 MLOAD PUSH3 0x461BCD PUSH1 0xE5 SHL DUP2 MSTORE PUSH1 0x4 ADD PUSH2 0xBFA SWAP1 PUSH2 0x36D7 JUMP JUMPDEST PUSH1 0x1A DUP1 SLOAD DUP3 ISZERO ISZERO PUSH1 0x1 PUSH1 0xA8 SHL MUL PUSH1 0xFF PUSH1 0xA8 SHL NOT SWAP1 SWAP2 AND OR SWAP1 SSTORE PUSH1 0x40 MLOAD PUSH32 0x53726DFCAF90650AA7EB35524F4D3220F07413C8D6CB404CC8C18BF5591BC159 SWAP1 PUSH2 0x138C SWAP1 DUP4 ISZERO ISZERO DUP2 MSTORE PUSH1 0x20 ADD SWAP1 JUMP JUMPDEST PUSH1 0x0 SLOAD PUSH1 0x1 PUSH1 0x1 PUSH1 0xA0 SHL SUB AND CALLER EQ PUSH2 0x1976 JUMPI PUSH1 0x40 MLOAD PUSH3 0x461BCD PUSH1 0xE5 SHL DUP2 MSTORE PUSH1 0x4 ADD PUSH2 0xBFA SWAP1 PUSH2 0x36D7 JUMP JUMPDEST PUSH1 0x10 DUP2 SWAP1 SSTORE PUSH1 0x12 SLOAD PUSH1 0x11 SLOAD PUSH1 0x64 SWAP2 SWAP1 PUSH2 0xC1D SWAP1 DUP5 PUSH2 0x3722 JUMP JUMPDEST PUSH1 0x0 SLOAD PUSH1 0x1 PUSH1 0x1 PUSH1 0xA0 SHL SUB AND CALLER EQ PUSH2 0x19B9 JUMPI PUSH1 0x40 MLOAD PUSH3 0x461BCD PUSH1 0xE5 SHL DUP2 MSTORE PUSH1 0x4 ADD PUSH2 0xBFA SWAP1 PUSH2 0x36D7 JUMP JUMPDEST PUSH2 0x19D8 PUSH1 0x64 PUSH2 0x19D2 PUSH10 0xD3C21BCECCEDA1000000 DUP5 PUSH2 0x29A7 JUMP JUMPDEST SWAP1 PUSH2 0x23A2 JUMP JUMPDEST PUSH1 0x1B SSTORE POP JUMP JUMPDEST PUSH1 0x0 SLOAD PUSH1 0x1 PUSH1 0x1 PUSH1 0xA0 SHL SUB AND CALLER EQ PUSH2 0x1A08 JUMPI PUSH1 0x40 MLOAD PUSH3 0x461BCD PUSH1 0xE5 SHL DUP2 MSTORE PUSH1 0x4 ADD PUSH2 0xBFA SWAP1 PUSH2 0x36D7 JUMP JUMPDEST PUSH1 0x1A DUP1 SLOAD DUP3 ISZERO ISZERO PUSH1 0x1 PUSH1 0xB0 SHL MUL PUSH1 0xFF PUSH1 0xB0 SHL NOT SWAP1 SWAP2 AND OR SWAP1 SSTORE PUSH1 0x40 MLOAD PUSH32 0x8BCC108C7D867D0A70433F71ECBA3056C4DCC48EAABE4CA987F9FB1F836091D5 SWAP1 PUSH2 0x138C SWAP1 DUP4 ISZERO ISZERO DUP2 MSTORE PUSH1 0x20 ADD SWAP1 JUMP JUMPDEST PUSH1 0x0 SLOAD PUSH1 0x1 PUSH1 0x1 PUSH1 0xA0 SHL SUB AND CALLER EQ PUSH2 0x1A7F JUMPI PUSH1 0x40 MLOAD PUSH3 0x461BCD PUSH1 0xE5 SHL DUP2 MSTORE PUSH1 0x4 ADD PUSH2 0xBFA SWAP1 PUSH2 0x36D7 JUMP JUMPDEST PUSH1 0x1 PUSH1 0x1 PUSH1 0xA0 SHL SUB AND PUSH1 0x0 SWAP1 DUP2 MSTORE PUSH1 0x4 PUSH1 0x20 MSTORE PUSH1 0x40 SWAP1 KECCAK256 DUP1 SLOAD PUSH1 0xFF NOT AND SWAP1 SSTORE JUMP JUMPDEST PUSH1 0x0 SLOAD PUSH1 0x1 PUSH1 0x1 PUSH1 0xA0 SHL SUB AND CALLER EQ PUSH2 0x1ACA JUMPI PUSH1 0x40 MLOAD PUSH3 0x461BCD PUSH1 0xE5 SHL DUP2 MSTORE PUSH1 0x4 ADD PUSH2 0xBFA SWAP1 PUSH2 0x36D7 JUMP JUMPDEST PUSH1 0x0 DUP2 GT PUSH2 0x1AD7 JUMPI PUSH1 0x0 DUP1 REVERT JUMPDEST PUSH1 0x1C DUP2 SWAP1 SSTORE PUSH1 0x40 MLOAD DUP2 DUP2 MSTORE PUSH32 0xAB1090599596CFB0C655B6424E552FBA2CEDF77457ED354FBE96E9ABF4AA1F13 SWAP1 PUSH1 0x20 ADD PUSH2 0x138C JUMP JUMPDEST PUSH1 0x0 SLOAD PUSH1 0x1 PUSH1 0x1 PUSH1 0xA0 SHL SUB AND CALLER EQ PUSH2 0x1B36 JUMPI PUSH1 0x40 MLOAD PUSH3 0x461BCD PUSH1 0xE5 SHL DUP2 MSTORE PUSH1 0x4 ADD PUSH2 0xBFA SWAP1 PUSH2 0x36D7 JUMP JUMPDEST PUSH1 0x1 PUSH1 0x1 PUSH1 0xA0 SHL SUB DUP2 AND PUSH2 0x1B9B JUMPI PUSH1 0x40 MLOAD PUSH3 0x461BCD PUSH1 0xE5 SHL DUP2 MSTORE PUSH1 0x20 PUSH1 0x4 DUP3 ADD MSTORE PUSH1 0x26 PUSH1 0x24 DUP3 ADD MSTORE PUSH32 0x4F776E61626C653A206E6577206F776E657220697320746865207A65726F2061 PUSH1 0x44 DUP3 ADD MSTORE PUSH6 0x646472657373 PUSH1 0xD0 SHL PUSH1 0x64 DUP3 ADD MSTORE PUSH1 0x84 ADD PUSH2 0xBFA JUMP JUMPDEST PUSH2 0xC6E DUP2 PUSH2 0x2552 JUMP JUMPDEST PUSH1 0x0 SLOAD PUSH1 0x1 PUSH1 0x1 PUSH1 0xA0 SHL SUB AND CALLER EQ PUSH2 0x1BCE JUMPI PUSH1 0x40 MLOAD PUSH3 0x461BCD PUSH1 0xE5 SHL DUP2 MSTORE PUSH1 0x4 ADD PUSH2 0xBFA SWAP1 PUSH2 0x36D7 JUMP JUMPDEST DUP2 SELFBALANCE LT ISZERO PUSH2 0x1BDB JUMPI PUSH1 0x0 DUP1 REVERT JUMPDEST PUSH1 0x40 MLOAD PUSH1 0x1 PUSH1 0x1 PUSH1 0xA0 SHL SUB DUP3 AND SWAP1 DUP4 ISZERO PUSH2 0x8FC MUL SWAP1 DUP5 SWAP1 PUSH1 0x0 DUP2 DUP2 DUP2 DUP6 DUP9 DUP9 CALL SWAP4 POP POP POP POP ISZERO DUP1 ISZERO PUSH2 0x1C11 JUMPI RETURNDATASIZE PUSH1 0x0 DUP1 RETURNDATACOPY RETURNDATASIZE PUSH1 0x0 REVERT JUMPDEST POP PUSH1 0x40 DUP1 MLOAD DUP4 DUP2 MSTORE PUSH1 0x1 PUSH1 0x1 PUSH1 0xA0 SHL SUB DUP4 AND PUSH1 0x20 DUP3 ADD MSTORE PUSH32 0x26D71AD100DAB0E70A6D987DC1C52B5ADFED7FB530CF990E0CE0207438E31F25 SWAP2 ADD PUSH2 0xE1D JUMP JUMPDEST PUSH1 0x0 SLOAD PUSH1 0x1 PUSH1 0x1 PUSH1 0xA0 SHL SUB AND CALLER EQ PUSH2 0x1C7A JUMPI PUSH1 0x40 MLOAD PUSH3 0x461BCD PUSH1 0xE5 SHL DUP2 MSTORE PUSH1 0x4 ADD PUSH2 0xBFA SWAP1 PUSH2 0x36D7 JUMP JUMPDEST PUSH1 0x1 PUSH1 0x1 PUSH1 0xA0 SHL SUB DUP2 AND PUSH2 0x1CE8 JUMPI PUSH1 0x40 MLOAD PUSH3 0x461BCD PUSH1 0xE5 SHL DUP2 MSTORE PUSH1 0x20 PUSH1 0x4 DUP3 ADD MSTORE PUSH1 0x2F PUSH1 0x24 DUP3 ADD MSTORE PUSH32 0x4572726F723A206C697157616C6C657420616464726573732063616E6E6F7420 PUSH1 0x44 DUP3 ADD MSTORE PUSH15 0x6265207A65726F2061646472657373 PUSH1 0x88 SHL PUSH1 0x64 DUP3 ADD MSTORE PUSH1 0x84 ADD PUSH2 0xBFA JUMP JUMPDEST PUSH1 0xC DUP1 SLOAD PUSH1 0x1 PUSH1 0x1 PUSH1 0xA0 SHL SUB NOT AND PUSH1 0x1 PUSH1 0x1 PUSH1 0xA0 SHL SUB DUP4 AND SWAP1 DUP2 OR SWAP1 SWAP2 SSTORE PUSH1 0x40 MLOAD SWAP1 DUP2 MSTORE PUSH32 0x6E9A0B8203652D5225235C014E4F37E3858EEC49CF1711B07649267D6CAB2696 SWAP1 PUSH1 0x20 ADD PUSH2 0x138C JUMP JUMPDEST PUSH1 0x1 PUSH1 0x1 PUSH1 0xA0 SHL SUB DUP4 AND PUSH2 0x1D98 JUMPI PUSH1 0x40 MLOAD PUSH3 0x461BCD PUSH1 0xE5 SHL DUP2 MSTORE PUSH1 0x20 PUSH1 0x4 DUP3 ADD MSTORE PUSH1 0x24 DUP1 DUP3 ADD MSTORE PUSH32 0x45524332303A20617070726F76652066726F6D20746865207A65726F20616464 PUSH1 0x44 DUP3 ADD MSTORE PUSH4 0x72657373 PUSH1 0xE0 SHL PUSH1 0x64 DUP3 ADD MSTORE PUSH1 0x84 ADD PUSH2 0xBFA JUMP JUMPDEST PUSH1 0x1 PUSH1 0x1 PUSH1 0xA0 SHL SUB DUP3 AND PUSH2 0x1DF9 JUMPI PUSH1 0x40 MLOAD PUSH3 0x461BCD PUSH1 0xE5 SHL DUP2 MSTORE PUSH1 0x20 PUSH1 0x4 DUP3 ADD MSTORE PUSH1 0x22 PUSH1 0x24 DUP3 ADD MSTORE PUSH32 0x45524332303A20617070726F766520746F20746865207A65726F206164647265 PUSH1 0x44 DUP3 ADD MSTORE PUSH2 0x7373 PUSH1 0xF0 SHL PUSH1 0x64 DUP3 ADD MSTORE PUSH1 0x84 ADD PUSH2 0xBFA JUMP JUMPDEST PUSH1 0x1 PUSH1 0x1 PUSH1 0xA0 SHL SUB DUP4 DUP2 AND PUSH1 0x0 DUP2 DUP2 MSTORE PUSH1 0x3 PUSH1 0x20 SWAP1 DUP2 MSTORE PUSH1 0x40 DUP1 DUP4 KECCAK256 SWAP5 DUP8 AND DUP1 DUP5 MSTORE SWAP5 DUP3 MSTORE SWAP2 DUP3 SWAP1 KECCAK256 DUP6 SWAP1 SSTORE SWAP1 MLOAD DUP5 DUP2 MSTORE PUSH32 0x8C5BE1E5EBEC7D5BD14F71427D1E84F3DD0314C0F7B2291E5B200AC8C7C3B925 SWAP2 ADD JUMPDEST PUSH1 0x40 MLOAD DUP1 SWAP2 SUB SWAP1 LOG3 POP POP POP JUMP JUMPDEST PUSH1 0x1 PUSH1 0x1 PUSH1 0xA0 SHL SUB DUP4 AND PUSH2 0x1EBF JUMPI PUSH1 0x40 MLOAD PUSH3 0x461BCD PUSH1 0xE5 SHL DUP2 MSTORE PUSH1 0x20 PUSH1 0x4 DUP3 ADD MSTORE PUSH1 0x25 PUSH1 0x24 DUP3 ADD MSTORE PUSH32 0x45524332303A207472616E736665722066726F6D20746865207A65726F206164 PUSH1 0x44 DUP3 ADD MSTORE PUSH5 0x6472657373 PUSH1 0xD8 SHL PUSH1 0x64 DUP3 ADD MSTORE PUSH1 0x84 ADD PUSH2 0xBFA JUMP JUMPDEST PUSH1 0x1 PUSH1 0x1 PUSH1 0xA0 SHL SUB DUP3 AND PUSH2 0x1F21 JUMPI PUSH1 0x40 MLOAD PUSH3 0x461BCD PUSH1 0xE5 SHL DUP2 MSTORE PUSH1 0x20 PUSH1 0x4 DUP3 ADD MSTORE PUSH1 0x23 PUSH1 0x24 DUP3 ADD MSTORE PUSH32 0x45524332303A207472616E7366657220746F20746865207A65726F2061646472 PUSH1 0x44 DUP3 ADD MSTORE PUSH3 0x657373 PUSH1 0xE8 SHL PUSH1 0x64 DUP3 ADD MSTORE PUSH1 0x84 ADD PUSH2 0xBFA JUMP JUMPDEST PUSH1 0x0 DUP2 GT PUSH2 0x1F83 JUMPI PUSH1 0x40 MLOAD PUSH3 0x461BCD PUSH1 0xE5 SHL DUP2 MSTORE PUSH1 0x20 PUSH1 0x4 DUP3 ADD MSTORE PUSH1 0x29 PUSH1 0x24 DUP3 ADD MSTORE PUSH32 0x5472616E7366657220616D6F756E74206D757374206265206772656174657220 PUSH1 0x44 DUP3 ADD MSTORE PUSH9 0x7468616E207A65726F PUSH1 0xB8 SHL PUSH1 0x64 DUP3 ADD MSTORE PUSH1 0x84 ADD PUSH2 0xBFA JUMP JUMPDEST PUSH1 0x0 SLOAD PUSH1 0x1 PUSH1 0x1 PUSH1 0xA0 SHL SUB DUP5 DUP2 AND SWAP2 AND EQ DUP1 ISZERO SWAP1 PUSH2 0x1FAF JUMPI POP PUSH1 0x0 SLOAD PUSH1 0x1 PUSH1 0x1 PUSH1 0xA0 SHL SUB DUP4 DUP2 AND SWAP2 AND EQ ISZERO JUMPDEST ISZERO PUSH2 0x2017 JUMPI PUSH1 0x1B SLOAD DUP2 GT ISZERO PUSH2 0x2017 JUMPI PUSH1 0x40 MLOAD PUSH3 0x461BCD PUSH1 0xE5 SHL DUP2 MSTORE PUSH1 0x20 PUSH1 0x4 DUP3 ADD MSTORE PUSH1 0x28 PUSH1 0x24 DUP3 ADD MSTORE PUSH32 0x5472616E7366657220616D6F756E74206578636565647320746865206D617854 PUSH1 0x44 DUP3 ADD MSTORE PUSH8 0x3C20B6B7BAB73A17 PUSH1 0xC1 SHL PUSH1 0x64 DUP3 ADD MSTORE PUSH1 0x84 ADD PUSH2 0xBFA JUMP JUMPDEST PUSH1 0x1A SLOAD PUSH1 0x1 PUSH1 0xB0 SHL SWAP1 DIV PUSH1 0xFF AND ISZERO DUP1 ISZERO PUSH2 0x206B JUMPI POP PUSH1 0x1 PUSH1 0x1 PUSH1 0xA0 SHL SUB DUP3 AND PUSH1 0x0 SWAP1 DUP2 MSTORE PUSH1 0x7 PUSH1 0x20 MSTORE PUSH1 0x40 SWAP1 KECCAK256 SLOAD PUSH1 0xFF AND DUP1 PUSH2 0x206B JUMPI POP PUSH1 0x1 PUSH1 0x1 PUSH1 0xA0 SHL SUB DUP4 AND PUSH1 0x0 SWAP1 DUP2 MSTORE PUSH1 0x7 PUSH1 0x20 MSTORE PUSH1 0x40 SWAP1 KECCAK256 SLOAD PUSH1 0xFF AND JUMPDEST ISZERO PUSH2 0x20B8 JUMPI PUSH1 0x40 MLOAD PUSH3 0x461BCD PUSH1 0xE5 SHL DUP2 MSTORE PUSH1 0x20 PUSH1 0x4 DUP3 ADD MSTORE PUSH1 0x1E PUSH1 0x24 DUP3 ADD MSTORE PUSH32 0x427579696E6720616E642073656C6C696E672069732064697361626C65640000 PUSH1 0x44 DUP3 ADD MSTORE PUSH1 0x64 ADD PUSH2 0xBFA JUMP JUMPDEST PUSH1 0x1 PUSH1 0x1 PUSH1 0xA0 SHL SUB DUP4 AND PUSH1 0x0 SWAP1 DUP2 MSTORE PUSH1 0x8 PUSH1 0x20 MSTORE PUSH1 0x40 SWAP1 KECCAK256 SLOAD PUSH1 0xFF AND DUP1 PUSH2 0x20F7 JUMPI POP PUSH1 0x1 PUSH1 0x1 PUSH1 0xA0 SHL SUB DUP3 AND PUSH1 0x0 SWAP1 DUP2 MSTORE PUSH1 0x8 PUSH1 0x20 MSTORE PUSH1 0x40 SWAP1 KECCAK256 SLOAD PUSH1 0xFF AND JUMPDEST ISZERO PUSH2 0x2138 JUMPI PUSH1 0x40 MLOAD PUSH3 0x461BCD PUSH1 0xE5 SHL DUP2 MSTORE PUSH1 0x20 PUSH1 0x4 DUP3 ADD MSTORE PUSH1 0x11 PUSH1 0x24 DUP3 ADD MSTORE PUSH17 0x1059191C995CDCC81A5CC818985B9B9959 PUSH1 0x7A SHL PUSH1 0x44 DUP3 ADD MSTORE PUSH1 0x64 ADD PUSH2 0xBFA JUMP JUMPDEST PUSH1 0x0 PUSH2 0x2143 ADDRESS PUSH2 0x1599 JUMP JUMPDEST SWAP1 POP PUSH1 0x1B SLOAD DUP2 LT PUSH2 0x2153 JUMPI POP PUSH1 0x1B SLOAD JUMPDEST PUSH1 0x1C SLOAD DUP2 LT DUP1 ISZERO SWAP1 DUP2 SWAP1 PUSH2 0x2171 JUMPI POP PUSH1 0x1A SLOAD PUSH1 0x1 PUSH1 0xA0 SHL SWAP1 DIV PUSH1 0xFF AND ISZERO JUMPDEST DUP1 ISZERO PUSH2 0x2195 JUMPI POP PUSH1 0x1 PUSH1 0x1 PUSH1 0xA0 SHL SUB DUP5 AND PUSH1 0x0 SWAP1 DUP2 MSTORE PUSH1 0x7 PUSH1 0x20 MSTORE PUSH1 0x40 SWAP1 KECCAK256 SLOAD PUSH1 0xFF AND JUMPDEST DUP1 ISZERO PUSH2 0x21AA JUMPI POP PUSH1 0x1A SLOAD PUSH1 0x1 PUSH1 0xA8 SHL SWAP1 DIV PUSH1 0xFF AND JUMPDEST DUP1 ISZERO PUSH2 0x21CF JUMPI POP PUSH1 0x1 PUSH1 0x1 PUSH1 0xA0 SHL SUB DUP6 AND PUSH1 0x0 SWAP1 DUP2 MSTORE PUSH1 0x4 PUSH1 0x20 MSTORE PUSH1 0x40 SWAP1 KECCAK256 SLOAD PUSH1 0xFF AND ISZERO JUMPDEST ISZERO PUSH2 0x21E2 JUMPI PUSH1 0x1C SLOAD SWAP2 POP PUSH2 0x21E2 DUP3 PUSH2 0x29B3 JUMP JUMPDEST PUSH1 0x1 PUSH1 0x1 PUSH1 0xA0 SHL SUB DUP6 AND PUSH1 0x0 SWAP1 DUP2 MSTORE PUSH1 0x7 PUSH1 0x20 MSTORE PUSH1 0x40 SWAP1 KECCAK256 SLOAD PUSH1 0x1 SWAP1 PUSH1 0xFF AND ISZERO DUP1 ISZERO PUSH2 0x2227 JUMPI POP PUSH1 0x1 PUSH1 0x1 PUSH1 0xA0 SHL SUB DUP6 AND PUSH1 0x0 SWAP1 DUP2 MSTORE PUSH1 0x7 PUSH1 0x20 MSTORE PUSH1 0x40 SWAP1 KECCAK256 SLOAD PUSH1 0xFF AND ISZERO JUMPDEST ISZERO PUSH2 0x2230 JUMPI POP PUSH1 0x0 JUMPDEST PUSH1 0x16 SLOAD PUSH1 0xFF AND DUP1 ISZERO PUSH2 0x225E JUMPI POP PUSH1 0x1 PUSH1 0x1 PUSH1 0xA0 SHL SUB DUP7 AND EXTCODESIZE ISZERO ISZERO DUP1 PUSH2 0x225E JUMPI POP PUSH1 0x1 PUSH1 0x1 PUSH1 0xA0 SHL SUB DUP6 AND EXTCODESIZE ISZERO ISZERO JUMPDEST ISZERO PUSH2 0x2267 JUMPI POP PUSH1 0x1 JUMPDEST PUSH1 0x1 PUSH1 0x1 PUSH1 0xA0 SHL SUB DUP7 AND PUSH1 0x0 SWAP1 DUP2 MSTORE PUSH1 0x4 PUSH1 0x20 MSTORE PUSH1 0x40 SWAP1 KECCAK256 SLOAD PUSH1 0xFF AND DUP1 PUSH2 0x22A6 JUMPI POP PUSH1 0x1 PUSH1 0x1 PUSH1 0xA0 SHL SUB DUP6 AND PUSH1 0x0 SWAP1 DUP2 MSTORE PUSH1 0x4 PUSH1 0x20 MSTORE PUSH1 0x40 SWAP1 KECCAK256 SLOAD PUSH1 0xFF AND JUMPDEST ISZERO PUSH2 0x22AF JUMPI POP PUSH1 0x0 JUMPDEST PUSH1 0x1 PUSH1 0x1 PUSH1 0xA0 SHL SUB DUP7 AND PUSH1 0x0 SWAP1 DUP2 MSTORE PUSH1 0x7 PUSH1 0x20 MSTORE PUSH1 0x40 SWAP1 KECCAK256 SLOAD PUSH1 0xFF AND DUP1 PUSH2 0x22DF JUMPI POP PUSH1 0x1 PUSH1 0x1 PUSH1 0xA0 SHL SUB DUP7 AND EXTCODESIZE ISZERO ISZERO JUMPDEST ISZERO PUSH2 0x22F7 JUMPI PUSH1 0xD SLOAD PUSH1 0x13 SSTORE PUSH1 0xE SLOAD PUSH1 0x14 SSTORE PUSH1 0xF SLOAD PUSH1 0x15 SSTORE JUMPDEST PUSH1 0x1 PUSH1 0x1 PUSH1 0xA0 SHL SUB DUP6 AND PUSH1 0x0 SWAP1 DUP2 MSTORE PUSH1 0x7 PUSH1 0x20 MSTORE PUSH1 0x40 SWAP1 KECCAK256 SLOAD PUSH1 0xFF AND DUP1 PUSH2 0x2327 JUMPI POP PUSH1 0x1 PUSH1 0x1 PUSH1 0xA0 SHL SUB DUP6 AND EXTCODESIZE ISZERO ISZERO JUMPDEST ISZERO PUSH2 0x233F JUMPI PUSH1 0x10 SLOAD PUSH1 0x13 SSTORE PUSH1 0x11 SLOAD PUSH1 0x14 SSTORE PUSH1 0x12 SLOAD PUSH1 0x15 SSTORE JUMPDEST PUSH2 0x234B DUP7 DUP7 DUP7 DUP5 PUSH2 0x2A5A JUMP JUMPDEST POP POP POP POP POP POP JUMP JUMPDEST PUSH1 0x0 DUP2 DUP5 DUP5 GT ISZERO PUSH2 0x2377 JUMPI PUSH1 0x40 MLOAD PUSH3 0x461BCD PUSH1 0xE5 SHL DUP2 MSTORE PUSH1 0x4 ADD PUSH2 0xBFA SWAP2 SWAP1 PUSH2 0x34AC JUMP JUMPDEST POP POP POP SWAP1 SUB SWAP1 JUMP JUMPDEST PUSH1 0x0 DUP1 PUSH1 0x0 PUSH2 0x238C PUSH2 0x2B7B JUMP JUMPDEST SWAP1 SWAP3 POP SWAP1 POP PUSH2 0x239B DUP3 DUP3 PUSH2 0x23A2 JUMP JUMPDEST SWAP3 POP POP POP SWAP1 JUMP JUMPDEST PUSH1 0x0 PUSH2 0xEA6 DUP3 DUP5 PUSH2 0x37EC JUMP JUMPDEST PUSH1 0x0 PUSH2 0xEA6 DUP3 DUP5 PUSH2 0x3722 JUMP JUMPDEST PUSH1 0x1 PUSH1 0x1 PUSH1 0xA0 SHL SUB DUP3 AND PUSH2 0x241A JUMPI PUSH1 0x40 MLOAD PUSH3 0x461BCD PUSH1 0xE5 SHL DUP2 MSTORE PUSH1 0x20 PUSH1 0x4 DUP3 ADD MSTORE PUSH1 0x21 PUSH1 0x24 DUP3 ADD MSTORE PUSH32 0x45524332303A206275726E2066726F6D20746865207A65726F20616464726573 PUSH1 0x44 DUP3 ADD MSTORE PUSH1 0x73 PUSH1 0xF8 SHL PUSH1 0x64 DUP3 ADD MSTORE PUSH1 0x84 ADD PUSH2 0xBFA JUMP JUMPDEST PUSH1 0x1 PUSH1 0x1 PUSH1 0xA0 SHL SUB DUP3 AND PUSH1 0x0 SWAP1 DUP2 MSTORE PUSH1 0x1 PUSH1 0x20 MSTORE PUSH1 0x40 SWAP1 KECCAK256 SLOAD DUP2 DUP2 LT ISZERO PUSH2 0x248E JUMPI PUSH1 0x40 MLOAD PUSH3 0x461BCD PUSH1 0xE5 SHL DUP2 MSTORE PUSH1 0x20 PUSH1 0x4 DUP3 ADD MSTORE PUSH1 0x22 PUSH1 0x24 DUP3 ADD MSTORE PUSH32 0x45524332303A206275726E20616D6F756E7420657863656564732062616C616E PUSH1 0x44 DUP3 ADD MSTORE PUSH2 0x6365 PUSH1 0xF0 SHL PUSH1 0x64 DUP3 ADD MSTORE PUSH1 0x84 ADD PUSH2 0xBFA JUMP JUMPDEST PUSH2 0x2498 DUP3 DUP3 PUSH2 0x37A4 JUMP JUMPDEST PUSH1 0x1 PUSH1 0x1 PUSH1 0xA0 SHL SUB DUP5 AND PUSH1 0x0 SWAP1 DUP2 MSTORE PUSH1 0x1 PUSH1 0x20 MSTORE PUSH1 0x40 DUP2 KECCAK256 SWAP2 SWAP1 SWAP2 SSTORE PUSH1 0x9 DUP1 SLOAD DUP5 SWAP3 SWAP1 PUSH2 0x24C6 SWAP1 DUP5 SWAP1 PUSH2 0x37A4 JUMP JUMPDEST SWAP1 SWAP2 SSTORE POP POP PUSH1 0x40 MLOAD DUP3 DUP2 MSTORE PUSH1 0x0 SWAP1 PUSH1 0x1 PUSH1 0x1 PUSH1 0xA0 SHL SUB DUP6 AND SWAP1 PUSH1 0x0 DUP1 MLOAD PUSH1 0x20 PUSH2 0x3912 DUP4 CODECOPY DUP2 MLOAD SWAP2 MSTORE SWAP1 PUSH1 0x20 ADD PUSH2 0x1E4E JUMP JUMPDEST PUSH1 0x0 DUP1 PUSH1 0x0 DUP1 PUSH1 0x0 DUP1 PUSH1 0x0 DUP1 PUSH1 0x0 DUP1 PUSH1 0x0 PUSH2 0x2511 DUP13 PUSH2 0x2D20 JUMP JUMPDEST SWAP4 POP SWAP4 POP SWAP4 POP SWAP4 POP PUSH1 0x0 DUP1 PUSH1 0x0 PUSH2 0x2532 DUP16 DUP8 DUP8 DUP8 PUSH2 0x252D PUSH2 0x237F JUMP JUMPDEST PUSH2 0x2D75 JUMP JUMPDEST SWAP2 SWAP16 POP SWAP14 POP SWAP12 POP SWAP6 SWAP10 POP SWAP4 SWAP8 POP SWAP2 SWAP6 POP SWAP4 POP POP POP POP SWAP2 SWAP4 SWAP6 SWAP8 SWAP1 SWAP3 SWAP5 SWAP7 POP JUMP JUMPDEST PUSH1 0x0 DUP1 SLOAD PUSH1 0x1 PUSH1 0x1 PUSH1 0xA0 SHL SUB DUP4 DUP2 AND PUSH1 0x1 PUSH1 0x1 PUSH1 0xA0 SHL SUB NOT DUP4 AND DUP2 OR DUP5 SSTORE PUSH1 0x40 MLOAD SWAP2 SWAP1 SWAP3 AND SWAP3 DUP4 SWAP2 PUSH32 0x8BE0079C531659141344CD1FD0A4F28419497F9722A3DAAFE3B4186F6B6457E0 SWAP2 SWAP1 LOG3 POP POP JUMP JUMPDEST PUSH1 0x1 PUSH1 0x1 PUSH1 0xA0 SHL SUB DUP3 AND PUSH2 0x25F8 JUMPI PUSH1 0x40 MLOAD PUSH3 0x461BCD PUSH1 0xE5 SHL DUP2 MSTORE PUSH1 0x20 PUSH1 0x4 DUP3 ADD MSTORE PUSH1 0x1F PUSH1 0x24 DUP3 ADD MSTORE PUSH32 0x45524332303A206D696E7420746F20746865207A65726F206164647265737300 PUSH1 0x44 DUP3 ADD MSTORE PUSH1 0x64 ADD PUSH2 0xBFA JUMP JUMPDEST DUP1 PUSH1 0x9 PUSH1 0x0 DUP3 DUP3 SLOAD PUSH2 0x260A SWAP2 SWAP1 PUSH2 0x3722 JUMP JUMPDEST SWAP1 SWAP2 SSTORE POP POP PUSH1 0x1 PUSH1 0x1 PUSH1 0xA0 SHL SUB DUP3 AND PUSH1 0x0 SWAP1 DUP2 MSTORE PUSH1 0x1 PUSH1 0x20 MSTORE PUSH1 0x40 DUP2 KECCAK256 DUP1 SLOAD DUP4 SWAP3 SWAP1 PUSH2 0x2637 SWAP1 DUP5 SWAP1 PUSH2 0x3722 JUMP JUMPDEST SWAP1 SWAP2 SSTORE POP POP PUSH1 0x40 MLOAD DUP2 DUP2 MSTORE PUSH1 0x1 PUSH1 0x1 PUSH1 0xA0 SHL SUB DUP4 AND SWAP1 PUSH1 0x0 SWAP1 PUSH1 0x0 DUP1 MLOAD PUSH1 0x20 PUSH2 0x3912 DUP4 CODECOPY DUP2 MLOAD SWAP2 MSTORE SWAP1 PUSH1 0x20 ADD JUMPDEST PUSH1 0x40 MLOAD DUP1 SWAP2 SUB SWAP1 LOG3 POP POP JUMP JUMPDEST PUSH1 0x0 DUP2 SWAP1 POP DUP1 PUSH1 0x1 PUSH1 0x1 PUSH1 0xA0 SHL SUB AND PUSH4 0xC45A0155 PUSH1 0x40 MLOAD DUP2 PUSH4 0xFFFFFFFF AND PUSH1 0xE0 SHL DUP2 MSTORE PUSH1 0x4 ADD PUSH1 0x20 PUSH1 0x40 MLOAD DUP1 DUP4 SUB DUP2 DUP7 GAS STATICCALL ISZERO DUP1 ISZERO PUSH2 0x26B3 JUMPI RETURNDATASIZE PUSH1 0x0 DUP1 RETURNDATACOPY RETURNDATASIZE PUSH1 0x0 REVERT JUMPDEST POP POP POP POP PUSH1 0x40 MLOAD RETURNDATASIZE PUSH1 0x1F NOT PUSH1 0x1F DUP3 ADD AND DUP3 ADD DUP1 PUSH1 0x40 MSTORE POP DUP2 ADD SWAP1 PUSH2 0x26D7 SWAP2 SWAP1 PUSH2 0x380E JUMP JUMPDEST PUSH1 0x1 PUSH1 0x1 PUSH1 0xA0 SHL SUB AND PUSH4 0xE6A43905 ADDRESS DUP4 PUSH1 0x1 PUSH1 0x1 PUSH1 0xA0 SHL SUB AND PUSH4 0xAD5C4648 PUSH1 0x40 MLOAD DUP2 PUSH4 0xFFFFFFFF AND PUSH1 0xE0 SHL DUP2 MSTORE PUSH1 0x4 ADD PUSH1 0x20 PUSH1 0x40 MLOAD DUP1 DUP4 SUB DUP2 DUP7 GAS STATICCALL ISZERO DUP1 ISZERO PUSH2 0x2724 JUMPI RETURNDATASIZE PUSH1 0x0 DUP1 RETURNDATACOPY RETURNDATASIZE PUSH1 0x0 REVERT JUMPDEST POP POP POP POP PUSH1 0x40 MLOAD RETURNDATASIZE PUSH1 0x1F NOT PUSH1 0x1F DUP3 ADD AND DUP3 ADD DUP1 PUSH1 0x40 MSTORE POP DUP2 ADD SWAP1 PUSH2 0x2748 SWAP2 SWAP1 PUSH2 0x380E JUMP JUMPDEST PUSH1 0x40 MLOAD PUSH1 0x1 PUSH1 0x1 PUSH1 0xE0 SHL SUB NOT PUSH1 0xE0 DUP6 SWAP1 SHL AND DUP2 MSTORE PUSH1 0x1 PUSH1 0x1 PUSH1 0xA0 SHL SUB SWAP3 DUP4 AND PUSH1 0x4 DUP3 ADD MSTORE SWAP2 AND PUSH1 0x24 DUP3 ADD MSTORE PUSH1 0x44 ADD PUSH1 0x20 PUSH1 0x40 MLOAD DUP1 DUP4 SUB DUP2 DUP7 GAS STATICCALL ISZERO DUP1 ISZERO PUSH2 0x2793 JUMPI RETURNDATASIZE PUSH1 0x0 DUP1 RETURNDATACOPY RETURNDATASIZE PUSH1 0x0 REVERT JUMPDEST POP POP POP POP PUSH1 0x40 MLOAD RETURNDATASIZE PUSH1 0x1F NOT PUSH1 0x1F DUP3 ADD AND DUP3 ADD DUP1 PUSH1 0x40 MSTORE POP DUP2 ADD SWAP1 PUSH2 0x27B7 SWAP2 SWAP1 PUSH2 0x380E JUMP JUMPDEST PUSH1 0x1A DUP1 SLOAD PUSH1 0x1 PUSH1 0x1 PUSH1 0xA0 SHL SUB NOT AND PUSH1 0x1 PUSH1 0x1 PUSH1 0xA0 SHL SUB SWAP3 SWAP1 SWAP3 AND SWAP2 DUP3 OR SWAP1 SSTORE PUSH2 0x293F JUMPI DUP1 PUSH1 0x1 PUSH1 0x1 PUSH1 0xA0 SHL SUB AND PUSH4 0xC45A0155 PUSH1 0x40 MLOAD DUP2 PUSH4 0xFFFFFFFF AND PUSH1 0xE0 SHL DUP2 MSTORE PUSH1 0x4 ADD PUSH1 0x20 PUSH1 0x40 MLOAD DUP1 DUP4 SUB DUP2 DUP7 GAS STATICCALL ISZERO DUP1 ISZERO PUSH2 0x2818 JUMPI RETURNDATASIZE PUSH1 0x0 DUP1 RETURNDATACOPY RETURNDATASIZE PUSH1 0x0 REVERT JUMPDEST POP POP POP POP PUSH1 0x40 MLOAD RETURNDATASIZE PUSH1 0x1F NOT PUSH1 0x1F DUP3 ADD AND DUP3 ADD DUP1 PUSH1 0x40 MSTORE POP DUP2 ADD SWAP1 PUSH2 0x283C SWAP2 SWAP1 PUSH2 0x380E JUMP JUMPDEST PUSH1 0x1 PUSH1 0x1 PUSH1 0xA0 SHL SUB AND PUSH4 0xC9C65396 ADDRESS DUP4 PUSH1 0x1 PUSH1 0x1 PUSH1 0xA0 SHL SUB AND PUSH4 0xAD5C4648 PUSH1 0x40 MLOAD DUP2 PUSH4 0xFFFFFFFF AND PUSH1 0xE0 SHL DUP2 MSTORE PUSH1 0x4 ADD PUSH1 0x20 PUSH1 0x40 MLOAD DUP1 DUP4 SUB DUP2 DUP7 GAS STATICCALL ISZERO DUP1 ISZERO PUSH2 0x2889 JUMPI RETURNDATASIZE PUSH1 0x0 DUP1 RETURNDATACOPY RETURNDATASIZE PUSH1 0x0 REVERT JUMPDEST POP POP POP POP PUSH1 0x40 MLOAD RETURNDATASIZE PUSH1 0x1F NOT PUSH1 0x1F DUP3 ADD AND DUP3 ADD DUP1 PUSH1 0x40 MSTORE POP DUP2 ADD SWAP1 PUSH2 0x28AD SWAP2 SWAP1 PUSH2 0x380E JUMP JUMPDEST PUSH1 0x40 MLOAD PUSH1 0x1 PUSH1 0x1 PUSH1 0xE0 SHL SUB NOT PUSH1 0xE0 DUP6 SWAP1 SHL AND DUP2 MSTORE PUSH1 0x1 PUSH1 0x1 PUSH1 0xA0 SHL SUB SWAP3 DUP4 AND PUSH1 0x4 DUP3 ADD MSTORE SWAP2 AND PUSH1 0x24 DUP3 ADD MSTORE PUSH1 0x44 ADD PUSH1 0x20 PUSH1 0x40 MLOAD DUP1 DUP4 SUB DUP2 PUSH1 0x0 DUP8 GAS CALL ISZERO DUP1 ISZERO PUSH2 0x28FA JUMPI RETURNDATASIZE PUSH1 0x0 DUP1 RETURNDATACOPY RETURNDATASIZE PUSH1 0x0 REVERT JUMPDEST POP POP POP POP PUSH1 0x40 MLOAD RETURNDATASIZE PUSH1 0x1F NOT PUSH1 0x1F DUP3 ADD AND DUP3 ADD DUP1 PUSH1 0x40 MSTORE POP DUP2 ADD SWAP1 PUSH2 0x291E SWAP2 SWAP1 PUSH2 0x380E JUMP JUMPDEST PUSH1 0x1A DUP1 SLOAD PUSH1 0x1 PUSH1 0x1 PUSH1 0xA0 SHL SUB NOT AND PUSH1 0x1 PUSH1 0x1 PUSH1 0xA0 SHL SUB SWAP3 SWAP1 SWAP3 AND SWAP2 SWAP1 SWAP2 OR SWAP1 SSTORE JUMPDEST PUSH1 0x19 DUP1 SLOAD PUSH1 0x1 PUSH1 0x1 PUSH1 0xA0 SHL SUB NOT AND PUSH1 0x1 PUSH1 0x1 PUSH1 0xA0 SHL SUB DUP4 DUP2 AND SWAP2 SWAP1 SWAP2 OR SWAP1 SWAP2 SSTORE PUSH1 0x1A SLOAD PUSH2 0x296E SWAP2 AND PUSH1 0x1 PUSH2 0xD9B JUMP JUMPDEST PUSH1 0x40 MLOAD PUSH1 0x1 PUSH1 0x1 PUSH1 0xA0 SHL SUB DUP4 AND DUP2 MSTORE PUSH32 0xC6B438E6A8A59579CE6A4406CBD203B740E0D47B458AAE6596339BCD40C40D15 SWAP1 PUSH1 0x20 ADD PUSH2 0xE1D JUMP JUMPDEST PUSH1 0x0 PUSH2 0xEA6 DUP3 DUP5 PUSH2 0x382B JUMP JUMPDEST PUSH1 0x1A DUP1 SLOAD PUSH1 0xFF PUSH1 0xA0 SHL NOT AND PUSH1 0x1 PUSH1 0xA0 SHL OR SWAP1 SSTORE PUSH1 0x0 PUSH2 0x29D3 DUP3 PUSH1 0x2 PUSH2 0x23A2 JUMP JUMPDEST SWAP1 POP PUSH1 0x0 PUSH2 0x29E1 DUP4 DUP4 PUSH2 0x2DD7 JUMP JUMPDEST SWAP1 POP SELFBALANCE PUSH2 0x29ED DUP4 PUSH2 0x2DE3 JUMP JUMPDEST PUSH1 0x0 PUSH2 0x29F9 SELFBALANCE DUP4 PUSH2 0x2DD7 JUMP JUMPDEST SWAP1 POP PUSH2 0x2A05 DUP4 DUP3 PUSH2 0x2F35 JUMP JUMPDEST PUSH1 0x40 DUP1 MLOAD DUP6 DUP2 MSTORE PUSH1 0x20 DUP2 ADD DUP4 SWAP1 MSTORE SWAP1 DUP2 ADD DUP5 SWAP1 MSTORE PUSH32 0x17BBFB9A6069321B6DED73BD96327C9E6B7212A5CD51FF219CD61370ACAFB561 SWAP1 PUSH1 0x60 ADD PUSH1 0x40 MLOAD DUP1 SWAP2 SUB SWAP1 LOG1 POP POP PUSH1 0x1A DUP1 SLOAD PUSH1 0xFF PUSH1 0xA0 SHL NOT AND SWAP1 SSTORE POP POP POP JUMP JUMPDEST DUP1 PUSH2 0x2A73 JUMPI PUSH2 0x2A73 PUSH1 0x0 PUSH1 0x13 DUP2 SWAP1 SSTORE PUSH1 0x14 DUP2 SWAP1 SSTORE PUSH1 0x15 SSTORE JUMP JUMPDEST PUSH1 0x1 PUSH1 0x1 PUSH1 0xA0 SHL SUB DUP5 AND PUSH1 0x0 SWAP1 DUP2 MSTORE PUSH1 0x5 PUSH1 0x20 MSTORE PUSH1 0x40 SWAP1 KECCAK256 SLOAD PUSH1 0xFF AND DUP1 ISZERO PUSH2 0x2AB4 JUMPI POP PUSH1 0x1 PUSH1 0x1 PUSH1 0xA0 SHL SUB DUP4 AND PUSH1 0x0 SWAP1 DUP2 MSTORE PUSH1 0x5 PUSH1 0x20 MSTORE PUSH1 0x40 SWAP1 KECCAK256 SLOAD PUSH1 0xFF AND ISZERO JUMPDEST ISZERO PUSH2 0x2AC9 JUMPI PUSH2 0x2AC4 DUP5 DUP5 DUP5 PUSH2 0x3014 JUMP JUMPDEST PUSH2 0x2B75 JUMP JUMPDEST PUSH1 0x1 PUSH1 0x1 PUSH1 0xA0 SHL SUB DUP5 AND PUSH1 0x0 SWAP1 DUP2 MSTORE PUSH1 0x5 PUSH1 0x20 MSTORE PUSH1 0x40 SWAP1 KECCAK256 SLOAD PUSH1 0xFF AND ISZERO DUP1 ISZERO PUSH2 0x2B0A JUMPI POP PUSH1 0x1 PUSH1 0x1 PUSH1 0xA0 SHL SUB DUP4 AND PUSH1 0x0 SWAP1 DUP2 MSTORE PUSH1 0x5 PUSH1 0x20 MSTORE PUSH1 0x40 SWAP1 KECCAK256 SLOAD PUSH1 0xFF AND JUMPDEST ISZERO PUSH2 0x2B1A JUMPI PUSH2 0x2AC4 DUP5 DUP5 DUP5 PUSH2 0x3148 JUMP JUMPDEST PUSH1 0x1 PUSH1 0x1 PUSH1 0xA0 SHL SUB DUP5 AND PUSH1 0x0 SWAP1 DUP2 MSTORE PUSH1 0x5 PUSH1 0x20 MSTORE PUSH1 0x40 SWAP1 KECCAK256 SLOAD PUSH1 0xFF AND DUP1 ISZERO PUSH2 0x2B5A JUMPI POP PUSH1 0x1 PUSH1 0x1 PUSH1 0xA0 SHL SUB DUP4 AND PUSH1 0x0 SWAP1 DUP2 MSTORE PUSH1 0x5 PUSH1 0x20 MSTORE PUSH1 0x40 SWAP1 KECCAK256 SLOAD PUSH1 0xFF AND JUMPDEST ISZERO PUSH2 0x2B6A JUMPI PUSH2 0x2AC4 DUP5 DUP5 DUP5 PUSH2 0x3207 JUMP JUMPDEST PUSH2 0x2B75 DUP5 DUP5 DUP5 PUSH2 0x3290 JUMP JUMPDEST POP POP POP POP JUMP JUMPDEST PUSH1 0x9 SLOAD PUSH1 0x0 SWAP1 DUP2 SWAP1 PUSH10 0xD3C21BCECCEDA1000000 DUP3 JUMPDEST PUSH1 0x6 SLOAD DUP2 LT ISZERO PUSH2 0x2CDC JUMPI DUP3 PUSH1 0x1 PUSH1 0x0 PUSH1 0x6 DUP5 DUP2 SLOAD DUP2 LT PUSH2 0x2BB2 JUMPI PUSH2 0x2BB2 PUSH2 0x378E JUMP JUMPDEST PUSH1 0x0 SWAP2 DUP3 MSTORE PUSH1 0x20 DUP1 DUP4 KECCAK256 SWAP1 SWAP2 ADD SLOAD PUSH1 0x1 PUSH1 0x1 PUSH1 0xA0 SHL SUB AND DUP4 MSTORE DUP3 ADD SWAP3 SWAP1 SWAP3 MSTORE PUSH1 0x40 ADD SWAP1 KECCAK256 SLOAD GT DUP1 PUSH2 0x2C1D JUMPI POP DUP2 PUSH1 0x2 PUSH1 0x0 PUSH1 0x6 DUP5 DUP2 SLOAD DUP2 LT PUSH2 0x2BF6 JUMPI PUSH2 0x2BF6 PUSH2 0x378E JUMP JUMPDEST PUSH1 0x0 SWAP2 DUP3 MSTORE PUSH1 0x20 DUP1 DUP4 KECCAK256 SWAP1 SWAP2 ADD SLOAD PUSH1 0x1 PUSH1 0x1 PUSH1 0xA0 SHL SUB AND DUP4 MSTORE DUP3 ADD SWAP3 SWAP1 SWAP3 MSTORE PUSH1 0x40 ADD SWAP1 KECCAK256 SLOAD GT JUMPDEST ISZERO PUSH2 0x2C3A JUMPI POP POP PUSH1 0x9 SLOAD SWAP4 PUSH10 0xD3C21BCECCEDA1000000 SWAP4 POP SWAP2 POP POP JUMP JUMPDEST PUSH2 0x2C80 PUSH1 0x1 PUSH1 0x0 PUSH1 0x6 DUP5 DUP2 SLOAD DUP2 LT PUSH2 0x2C54 JUMPI PUSH2 0x2C54 PUSH2 0x378E JUMP JUMPDEST PUSH1 0x0 SWAP2 DUP3 MSTORE PUSH1 0x20 DUP1 DUP4 KECCAK256 SWAP1 SWAP2 ADD SLOAD PUSH1 0x1 PUSH1 0x1 PUSH1 0xA0 SHL SUB AND DUP4 MSTORE DUP3 ADD SWAP3 SWAP1 SWAP3 MSTORE PUSH1 0x40 ADD SWAP1 KECCAK256 SLOAD DUP5 SWAP1 PUSH2 0x2DD7 JUMP JUMPDEST SWAP3 POP PUSH2 0x2CC8 PUSH1 0x2 PUSH1 0x0 PUSH1 0x6 DUP5 DUP2 SLOAD DUP2 LT PUSH2 0x2C9C JUMPI PUSH2 0x2C9C PUSH2 0x378E JUMP JUMPDEST PUSH1 0x0 SWAP2 DUP3 MSTORE PUSH1 0x20 DUP1 DUP4 KECCAK256 SWAP1 SWAP2 ADD SLOAD PUSH1 0x1 PUSH1 0x1 PUSH1 0xA0 SHL SUB AND DUP4 MSTORE DUP3 ADD SWAP3 SWAP1 SWAP3 MSTORE PUSH1 0x40 ADD SWAP1 KECCAK256 SLOAD DUP4 SWAP1 PUSH2 0x2DD7 JUMP JUMPDEST SWAP2 POP DUP1 PUSH2 0x2CD4 DUP2 PUSH2 0x37D1 JUMP JUMPDEST SWAP2 POP POP PUSH2 0x2B90 JUMP JUMPDEST POP PUSH1 0x9 SLOAD PUSH2 0x2CF4 SWAP1 PUSH10 0xD3C21BCECCEDA1000000 PUSH2 0x23A2 JUMP JUMPDEST DUP3 LT ISZERO PUSH2 0x2D12 JUMPI POP POP PUSH1 0x9 SLOAD SWAP3 PUSH10 0xD3C21BCECCEDA1000000 SWAP3 POP SWAP1 POP JUMP JUMPDEST SWAP1 SWAP4 SWAP1 SWAP3 POP SWAP1 POP JUMP JUMPDEST POP POP POP JUMP JUMPDEST PUSH1 0x0 DUP1 PUSH1 0x0 DUP1 PUSH1 0x0 PUSH2 0x2D31 DUP7 PUSH2 0x32EA JUMP JUMPDEST SWAP1 POP PUSH1 0x0 PUSH2 0x2D3E DUP8 PUSH2 0x3307 JUMP JUMPDEST SWAP1 POP PUSH1 0x0 PUSH2 0x2D4B DUP9 PUSH2 0x3324 JUMP JUMPDEST SWAP1 POP PUSH1 0x0 PUSH2 0x2D65 DUP3 PUSH2 0x2D5F DUP6 DUP2 DUP14 DUP10 PUSH2 0x2DD7 JUMP JUMPDEST SWAP1 PUSH2 0x2DD7 JUMP JUMPDEST SWAP10 SWAP4 SWAP9 POP SWAP2 SWAP7 POP SWAP5 POP SWAP1 SWAP3 POP POP POP JUMP JUMPDEST PUSH1 0x0 DUP1 DUP1 DUP1 PUSH2 0x2D84 DUP10 DUP7 PUSH2 0x29A7 JUMP JUMPDEST SWAP1 POP PUSH1 0x0 PUSH2 0x2D92 DUP10 DUP8 PUSH2 0x29A7 JUMP JUMPDEST SWAP1 POP PUSH1 0x0 PUSH2 0x2DA0 DUP10 DUP9 PUSH2 0x29A7 JUMP JUMPDEST SWAP1 POP PUSH1 0x0 PUSH2 0x2DAE DUP10 DUP10 PUSH2 0x29A7 JUMP JUMPDEST SWAP1 POP PUSH1 0x0 PUSH2 0x2DC2 DUP3 PUSH2 0x2D5F DUP6 DUP2 DUP10 DUP10 PUSH2 0x2DD7 JUMP JUMPDEST SWAP5 SWAP14 SWAP5 SWAP13 POP SWAP3 SWAP11 POP SWAP3 SWAP9 POP POP POP POP POP POP POP POP POP JUMP JUMPDEST PUSH1 0x0 PUSH2 0xEA6 DUP3 DUP5 PUSH2 0x37A4 JUMP JUMPDEST PUSH1 0x40 DUP1 MLOAD PUSH1 0x2 DUP1 DUP3 MSTORE PUSH1 0x60 DUP3 ADD DUP4 MSTORE PUSH1 0x0 SWAP3 PUSH1 0x20 DUP4 ADD SWAP1 DUP1 CALLDATASIZE DUP4 CALLDATACOPY ADD SWAP1 POP POP SWAP1 POP ADDRESS DUP2 PUSH1 0x0 DUP2 MLOAD DUP2 LT PUSH2 0x2E18 JUMPI PUSH2 0x2E18 PUSH2 0x378E JUMP JUMPDEST PUSH1 0x1 PUSH1 0x1 PUSH1 0xA0 SHL SUB SWAP3 DUP4 AND PUSH1 0x20 SWAP2 DUP3 MUL SWAP3 SWAP1 SWAP3 ADD DUP2 ADD SWAP2 SWAP1 SWAP2 MSTORE PUSH1 0x19 SLOAD PUSH1 0x40 DUP1 MLOAD PUSH4 0x15AB88C9 PUSH1 0xE3 SHL DUP2 MSTORE SWAP1 MLOAD SWAP2 SWAP1 SWAP4 AND SWAP3 PUSH4 0xAD5C4648 SWAP3 PUSH1 0x4 DUP1 DUP4 ADD SWAP4 SWAP2 SWAP3 DUP3 SWAP1 SUB ADD DUP2 DUP7 GAS STATICCALL ISZERO DUP1 ISZERO PUSH2 0x2E71 JUMPI RETURNDATASIZE PUSH1 0x0 DUP1 RETURNDATACOPY RETURNDATASIZE PUSH1 0x0 REVERT JUMPDEST POP POP POP POP PUSH1 0x40 MLOAD RETURNDATASIZE PUSH1 0x1F NOT PUSH1 0x1F DUP3 ADD AND DUP3 ADD DUP1 PUSH1 0x40 MSTORE POP DUP2 ADD SWAP1 PUSH2 0x2E95 SWAP2 SWAP1 PUSH2 0x380E JUMP JUMPDEST DUP2 PUSH1 0x1 DUP2 MLOAD DUP2 LT PUSH2 0x2EA8 JUMPI PUSH2 0x2EA8 PUSH2 0x378E JUMP JUMPDEST PUSH1 0x1 PUSH1 0x1 PUSH1 0xA0 SHL SUB SWAP3 DUP4 AND PUSH1 0x20 SWAP2 DUP3 MUL SWAP3 SWAP1 SWAP3 ADD ADD MSTORE PUSH1 0x19 SLOAD PUSH2 0x2ECE SWAP2 ADDRESS SWAP2 AND DUP5 PUSH2 0x1D36 JUMP JUMPDEST PUSH1 0x19 SLOAD PUSH1 0x40 MLOAD PUSH4 0x791AC947 PUSH1 0xE0 SHL DUP2 MSTORE PUSH1 0x1 PUSH1 0x1 PUSH1 0xA0 SHL SUB SWAP1 SWAP2 AND SWAP1 PUSH4 0x791AC947 SWAP1 PUSH2 0x2F07 SWAP1 DUP6 SWAP1 PUSH1 0x0 SWAP1 DUP7 SWAP1 ADDRESS SWAP1 TIMESTAMP SWAP1 PUSH1 0x4 ADD PUSH2 0x384A JUMP JUMPDEST PUSH1 0x0 PUSH1 0x40 MLOAD DUP1 DUP4 SUB DUP2 PUSH1 0x0 DUP8 DUP1 EXTCODESIZE ISZERO DUP1 ISZERO PUSH2 0x2F21 JUMPI PUSH1 0x0 DUP1 REVERT JUMPDEST POP GAS CALL ISZERO DUP1 ISZERO PUSH2 0x234B JUMPI RETURNDATASIZE PUSH1 0x0 DUP1 RETURNDATACOPY RETURNDATASIZE PUSH1 0x0 REVERT JUMPDEST PUSH1 0x19 SLOAD PUSH2 0x2F4D SWAP1 ADDRESS SWAP1 PUSH1 0x1 PUSH1 0x1 PUSH1 0xA0 SHL SUB AND DUP5 PUSH2 0x1D36 JUMP JUMPDEST PUSH1 0x19 SLOAD PUSH1 0xC SLOAD PUSH1 0x40 MLOAD PUSH4 0xF305D719 PUSH1 0xE0 SHL DUP2 MSTORE ADDRESS PUSH1 0x4 DUP3 ADD MSTORE PUSH1 0x24 DUP2 ADD DUP6 SWAP1 MSTORE PUSH1 0x0 PUSH1 0x44 DUP3 ADD DUP2 SWAP1 MSTORE PUSH1 0x64 DUP3 ADD MSTORE PUSH1 0x1 PUSH1 0x1 PUSH1 0xA0 SHL SUB SWAP2 DUP3 AND PUSH1 0x84 DUP3 ADD MSTORE TIMESTAMP PUSH1 0xA4 DUP3 ADD MSTORE SWAP2 AND SWAP1 PUSH4 0xF305D719 SWAP1 DUP4 SWAP1 PUSH1 0xC4 ADD PUSH1 0x60 PUSH1 0x40 MLOAD DUP1 DUP4 SUB DUP2 DUP6 DUP9 GAS CALL ISZERO DUP1 ISZERO PUSH2 0x2FBD JUMPI RETURNDATASIZE PUSH1 0x0 DUP1 RETURNDATACOPY RETURNDATASIZE PUSH1 0x0 REVERT JUMPDEST POP POP POP POP POP PUSH1 0x40 MLOAD RETURNDATASIZE PUSH1 0x1F NOT PUSH1 0x1F DUP3 ADD AND DUP3 ADD DUP1 PUSH1 0x40 MSTORE POP DUP2 ADD SWAP1 PUSH2 0x2FE2 SWAP2 SWAP1 PUSH2 0x38BB JUMP JUMPDEST POP POP PUSH1 0x1A SLOAD PUSH1 0x40 MLOAD DUP5 DUP2 MSTORE PUSH1 0x1 PUSH1 0x1 PUSH1 0xA0 SHL SUB SWAP1 SWAP2 AND SWAP2 POP ADDRESS SWAP1 PUSH1 0x0 DUP1 MLOAD PUSH1 0x20 PUSH2 0x3912 DUP4 CODECOPY DUP2 MLOAD SWAP2 MSTORE SWAP1 PUSH1 0x20 ADD PUSH2 0x2664 JUMP JUMPDEST PUSH1 0x0 DUP1 PUSH1 0x0 DUP1 PUSH1 0x0 DUP1 PUSH1 0x0 PUSH2 0x3028 DUP9 PUSH2 0x24F7 JUMP JUMPDEST SWAP7 POP SWAP7 POP SWAP7 POP SWAP7 POP SWAP7 POP SWAP7 POP SWAP7 POP PUSH2 0x306E DUP9 PUSH1 0x2 PUSH1 0x0 DUP14 PUSH1 0x1 PUSH1 0x1 PUSH1 0xA0 SHL SUB AND PUSH1 0x1 PUSH1 0x1 PUSH1 0xA0 SHL SUB AND DUP2 MSTORE PUSH1 0x20 ADD SWAP1 DUP2 MSTORE PUSH1 0x20 ADD PUSH1 0x0 KECCAK256 SLOAD PUSH2 0x2DD7 SWAP1 SWAP2 SWAP1 PUSH4 0xFFFFFFFF AND JUMP JUMPDEST PUSH1 0x1 PUSH1 0x1 PUSH1 0xA0 SHL SUB DUP12 AND PUSH1 0x0 SWAP1 DUP2 MSTORE PUSH1 0x2 PUSH1 0x20 SWAP1 DUP2 MSTORE PUSH1 0x40 DUP1 DUP4 KECCAK256 SWAP4 SWAP1 SWAP4 SSTORE PUSH1 0x1 SWAP1 MSTORE KECCAK256 SLOAD PUSH2 0x309D SWAP1 DUP9 PUSH2 0x2DD7 JUMP JUMPDEST PUSH1 0x1 PUSH1 0x1 PUSH1 0xA0 SHL SUB DUP1 DUP13 AND PUSH1 0x0 SWAP1 DUP2 MSTORE PUSH1 0x1 PUSH1 0x20 MSTORE PUSH1 0x40 DUP1 DUP3 KECCAK256 SWAP4 SWAP1 SWAP4 SSTORE SWAP1 DUP12 AND DUP2 MSTORE KECCAK256 SLOAD PUSH2 0x30CC SWAP1 DUP8 PUSH2 0x23AE JUMP JUMPDEST PUSH1 0x1 PUSH1 0x1 PUSH1 0xA0 SHL SUB DUP11 AND PUSH1 0x0 SWAP1 DUP2 MSTORE PUSH1 0x1 PUSH1 0x20 MSTORE PUSH1 0x40 SWAP1 KECCAK256 SSTORE PUSH2 0x30EE DUP3 PUSH2 0x3341 JUMP JUMPDEST PUSH2 0x30F7 DUP2 PUSH2 0x33C9 JUMP JUMPDEST PUSH2 0x3101 DUP6 DUP5 PUSH2 0x3488 JUMP JUMPDEST DUP9 PUSH1 0x1 PUSH1 0x1 PUSH1 0xA0 SHL SUB AND DUP11 PUSH1 0x1 PUSH1 0x1 PUSH1 0xA0 SHL SUB AND PUSH1 0x0 DUP1 MLOAD PUSH1 0x20 PUSH2 0x3912 DUP4 CODECOPY DUP2 MLOAD SWAP2 MSTORE DUP7 PUSH1 0x40 MLOAD PUSH2 0x3134 SWAP2 DUP2 MSTORE PUSH1 0x20 ADD SWAP1 JUMP JUMPDEST PUSH1 0x40 MLOAD DUP1 SWAP2 SUB SWAP1 LOG3 POP POP POP POP POP POP POP POP POP POP JUMP JUMPDEST PUSH1 0x0 DUP1 PUSH1 0x0 DUP1 PUSH1 0x0 DUP1 PUSH1 0x0 PUSH2 0x315C DUP9 PUSH2 0x24F7 JUMP JUMPDEST SWAP7 POP SWAP7 POP SWAP7 POP SWAP7 POP SWAP7 POP SWAP7 POP SWAP7 POP PUSH2 0x31A2 DUP8 PUSH1 0x1 PUSH1 0x0 DUP14 PUSH1 0x1 PUSH1 0x1 PUSH1 0xA0 SHL SUB AND PUSH1 0x1 PUSH1 0x1 PUSH1 0xA0 SHL SUB AND DUP2 MSTORE PUSH1 0x20 ADD SWAP1 DUP2 MSTORE PUSH1 0x20 ADD PUSH1 0x0 KECCAK256 SLOAD PUSH2 0x2DD7 SWAP1 SWAP2 SWAP1 PUSH4 0xFFFFFFFF AND JUMP JUMPDEST PUSH1 0x1 PUSH1 0x1 PUSH1 0xA0 SHL SUB DUP1 DUP13 AND PUSH1 0x0 SWAP1 DUP2 MSTORE PUSH1 0x1 PUSH1 0x20 SWAP1 DUP2 MSTORE PUSH1 0x40 DUP1 DUP4 KECCAK256 SWAP5 SWAP1 SWAP5 SSTORE SWAP2 DUP13 AND DUP2 MSTORE PUSH1 0x2 SWAP1 SWAP2 MSTORE KECCAK256 SLOAD PUSH2 0x31D8 SWAP1 DUP6 PUSH2 0x23AE JUMP JUMPDEST PUSH1 0x1 PUSH1 0x1 PUSH1 0xA0 SHL SUB DUP11 AND PUSH1 0x0 SWAP1 DUP2 MSTORE PUSH1 0x2 PUSH1 0x20 SWAP1 DUP2 MSTORE PUSH1 0x40 DUP1 DUP4 KECCAK256 SWAP4 SWAP1 SWAP4 SSTORE PUSH1 0x1 SWAP1 MSTORE KECCAK256 SLOAD PUSH2 0x30CC SWAP1 DUP8 PUSH2 0x23AE JUMP JUMPDEST PUSH1 0x0 DUP1 PUSH1 0x0 DUP1 PUSH1 0x0 DUP1 PUSH1 0x0 PUSH2 0x321B DUP9 PUSH2 0x24F7 JUMP JUMPDEST SWAP7 POP SWAP7 POP SWAP7 POP SWAP7 POP SWAP7 POP SWAP7 POP SWAP7 POP PUSH2 0x3261 DUP9 PUSH1 0x2 PUSH1 0x0 DUP14 PUSH1 0x1 PUSH1 0x1 PUSH1 0xA0 SHL SUB AND PUSH1 0x1 PUSH1 0x1 PUSH1 0xA0 SHL SUB AND DUP2 MSTORE PUSH1 0x20 ADD SWAP1 DUP2 MSTORE PUSH1 0x20 ADD PUSH1 0x0 KECCAK256 SLOAD PUSH2 0x2DD7 SWAP1 SWAP2 SWAP1 PUSH4 0xFFFFFFFF AND JUMP JUMPDEST PUSH1 0x1 PUSH1 0x1 PUSH1 0xA0 SHL SUB DUP12 AND PUSH1 0x0 SWAP1 DUP2 MSTORE PUSH1 0x2 PUSH1 0x20 SWAP1 DUP2 MSTORE PUSH1 0x40 DUP1 DUP4 KECCAK256 SWAP4 SWAP1 SWAP4 SSTORE PUSH1 0x1 SWAP1 MSTORE KECCAK256 SLOAD PUSH2 0x31A2 SWAP1 DUP9 PUSH2 0x2DD7 JUMP JUMPDEST PUSH1 0x0 DUP1 PUSH1 0x0 DUP1 PUSH1 0x0 DUP1 PUSH1 0x0 PUSH2 0x32A4 DUP9 PUSH2 0x24F7 JUMP JUMPDEST SWAP7 POP SWAP7 POP SWAP7 POP SWAP7 POP SWAP7 POP SWAP7 POP SWAP7 POP PUSH2 0x309D DUP8 PUSH1 0x1 PUSH1 0x0 DUP14 PUSH1 0x1 PUSH1 0x1 PUSH1 0xA0 SHL SUB AND PUSH1 0x1 PUSH1 0x1 PUSH1 0xA0 SHL SUB AND DUP2 MSTORE PUSH1 0x20 ADD SWAP1 DUP2 MSTORE PUSH1 0x20 ADD PUSH1 0x0 KECCAK256 SLOAD PUSH2 0x2DD7 SWAP1 SWAP2 SWAP1 PUSH4 0xFFFFFFFF AND JUMP JUMPDEST PUSH1 0x0 PUSH2 0xC82 PUSH2 0x3E8 PUSH2 0x19D2 PUSH1 0x13 SLOAD DUP6 PUSH2 0x29A7 SWAP1 SWAP2 SWAP1 PUSH4 0xFFFFFFFF AND JUMP JUMPDEST PUSH1 0x0 PUSH2 0xC82 PUSH2 0x3E8 PUSH2 0x19D2 PUSH1 0x15 SLOAD DUP6 PUSH2 0x29A7 SWAP1 SWAP2 SWAP1 PUSH4 0xFFFFFFFF AND JUMP JUMPDEST PUSH1 0x0 PUSH2 0xC82 PUSH2 0x3E8 PUSH2 0x19D2 PUSH1 0x14 SLOAD DUP6 PUSH2 0x29A7 SWAP1 SWAP2 SWAP1 PUSH4 0xFFFFFFFF AND JUMP JUMPDEST PUSH1 0x0 PUSH2 0x334B PUSH2 0x237F JUMP JUMPDEST SWAP1 POP PUSH1 0x0 PUSH2 0x3359 DUP4 DUP4 PUSH2 0x29A7 JUMP JUMPDEST ADDRESS PUSH1 0x0 SWAP1 DUP2 MSTORE PUSH1 0x1 PUSH1 0x20 MSTORE PUSH1 0x40 SWAP1 KECCAK256 SLOAD SWAP1 SWAP2 POP PUSH2 0x3376 SWAP1 DUP3 PUSH2 0x23AE JUMP JUMPDEST ADDRESS PUSH1 0x0 SWAP1 DUP2 MSTORE PUSH1 0x1 PUSH1 0x20 SWAP1 DUP2 MSTORE PUSH1 0x40 DUP1 DUP4 KECCAK256 SWAP4 SWAP1 SWAP4 SSTORE PUSH1 0x5 SWAP1 MSTORE KECCAK256 SLOAD PUSH1 0xFF AND ISZERO PUSH2 0x2D1B JUMPI ADDRESS PUSH1 0x0 SWAP1 DUP2 MSTORE PUSH1 0x2 PUSH1 0x20 MSTORE PUSH1 0x40 SWAP1 KECCAK256 SLOAD PUSH2 0x33B4 SWAP1 DUP5 PUSH2 0x23AE JUMP JUMPDEST ADDRESS PUSH1 0x0 SWAP1 DUP2 MSTORE PUSH1 0x2 PUSH1 0x20 MSTORE PUSH1 0x40 SWAP1 KECCAK256 SSTORE POP POP POP JUMP JUMPDEST PUSH1 0x0 PUSH2 0x33D3 PUSH2 0x237F JUMP JUMPDEST SWAP1 POP PUSH1 0x0 PUSH2 0x33E1 DUP4 DUP4 PUSH2 0x29A7 JUMP JUMPDEST PUSH1 0xB SLOAD PUSH1 0x1 PUSH1 0x1 PUSH1 0xA0 SHL SUB AND PUSH1 0x0 SWAP1 DUP2 MSTORE PUSH1 0x1 PUSH1 0x20 MSTORE PUSH1 0x40 SWAP1 KECCAK256 SLOAD SWAP1 SWAP2 POP PUSH2 0x3409 SWAP1 DUP3 PUSH2 0x23AE JUMP JUMPDEST PUSH1 0xB DUP1 SLOAD PUSH1 0x1 PUSH1 0x1 PUSH1 0xA0 SHL SUB SWAP1 DUP2 AND PUSH1 0x0 SWAP1 DUP2 MSTORE PUSH1 0x1 PUSH1 0x20 SWAP1 DUP2 MSTORE PUSH1 0x40 DUP1 DUP4 KECCAK256 SWAP6 SWAP1 SWAP6 SSTORE SWAP3 SLOAD SWAP1 SWAP2 AND DUP2 MSTORE PUSH1 0x5 SWAP1 SWAP2 MSTORE KECCAK256 SLOAD PUSH1 0xFF AND ISZERO PUSH2 0x2D1B JUMPI PUSH1 0xB SLOAD PUSH1 0x1 PUSH1 0x1 PUSH1 0xA0 SHL SUB AND PUSH1 0x0 SWAP1 DUP2 MSTORE PUSH1 0x2 PUSH1 0x20 MSTORE PUSH1 0x40 SWAP1 KECCAK256 SLOAD PUSH2 0x3468 SWAP1 DUP5 PUSH2 0x23AE JUMP JUMPDEST PUSH1 0xB SLOAD PUSH1 0x1 PUSH1 0x1 PUSH1 0xA0 SHL SUB AND PUSH1 0x0 SWAP1 DUP2 MSTORE PUSH1 0x2 PUSH1 0x20 MSTORE PUSH1 0x40 SWAP1 KECCAK256 SSTORE POP POP POP JUMP JUMPDEST PUSH1 0x9 SLOAD PUSH2 0x3495 SWAP1 DUP4 PUSH2 0x2DD7 JUMP JUMPDEST PUSH1 0x9 SSTORE PUSH1 0xA SLOAD PUSH2 0x34A5 SWAP1 DUP3 PUSH2 0x23AE JUMP JUMPDEST PUSH1 0xA SSTORE POP POP JUMP JUMPDEST PUSH1 0x0 PUSH1 0x20 DUP1 DUP4 MSTORE DUP4 MLOAD DUP1 DUP3 DUP6 ADD MSTORE PUSH1 0x0 JUMPDEST DUP2 DUP2 LT ISZERO PUSH2 0x34D9 JUMPI DUP6 DUP2 ADD DUP4 ADD MLOAD DUP6 DUP3 ADD PUSH1 0x40 ADD MSTORE DUP3 ADD PUSH2 0x34BD JUMP JUMPDEST DUP2 DUP2 GT ISZERO PUSH2 0x34EB JUMPI PUSH1 0x0 PUSH1 0x40 DUP4 DUP8 ADD ADD MSTORE JUMPDEST POP PUSH1 0x1F ADD PUSH1 0x1F NOT AND SWAP3 SWAP1 SWAP3 ADD PUSH1 0x40 ADD SWAP4 SWAP3 POP POP POP JUMP JUMPDEST PUSH1 0x0 PUSH1 0x20 DUP3 DUP5 SUB SLT ISZERO PUSH2 0x3513 JUMPI PUSH1 0x0 DUP1 REVERT JUMPDEST POP CALLDATALOAD SWAP2 SWAP1 POP JUMP JUMPDEST PUSH1 0x1 PUSH1 0x1 PUSH1 0xA0 SHL SUB DUP2 AND DUP2 EQ PUSH2 0xC6E JUMPI PUSH1 0x0 DUP1 REVERT JUMPDEST PUSH1 0x0 DUP1 PUSH1 0x40 DUP4 DUP6 SUB SLT ISZERO PUSH2 0x3542 JUMPI PUSH1 0x0 DUP1 REVERT JUMPDEST DUP3 CALLDATALOAD PUSH2 0x354D DUP2 PUSH2 0x351A JUMP JUMPDEST SWAP5 PUSH1 0x20 SWAP4 SWAP1 SWAP4 ADD CALLDATALOAD SWAP4 POP POP POP JUMP JUMPDEST PUSH1 0x0 DUP1 PUSH1 0x0 PUSH1 0x60 DUP5 DUP7 SUB SLT ISZERO PUSH2 0x3570 JUMPI PUSH1 0x0 DUP1 REVERT JUMPDEST DUP4 CALLDATALOAD PUSH2 0x357B DUP2 PUSH2 0x351A JUMP JUMPDEST SWAP3 POP PUSH1 0x20 DUP5 ADD CALLDATALOAD PUSH2 0x358B DUP2 PUSH2 0x351A JUMP JUMPDEST SWAP3 SWAP6 SWAP3 SWAP5 POP POP POP PUSH1 0x40 SWAP2 SWAP1 SWAP2 ADD CALLDATALOAD SWAP1 JUMP JUMPDEST DUP1 ISZERO ISZERO DUP2 EQ PUSH2 0xC6E JUMPI PUSH1 0x0 DUP1 REVERT JUMPDEST PUSH1 0x0 DUP1 PUSH1 0x40 DUP4 DUP6 SUB SLT ISZERO PUSH2 0x35BD JUMPI PUSH1 0x0 DUP1 REVERT JUMPDEST DUP3 CALLDATALOAD PUSH2 0x35C8 DUP2 PUSH2 0x351A JUMP JUMPDEST SWAP2 POP PUSH1 0x20 DUP4 ADD CALLDATALOAD PUSH2 0x35D8 DUP2 PUSH2 0x359C JUMP JUMPDEST DUP1 SWAP2 POP POP SWAP3 POP SWAP3 SWAP1 POP JUMP JUMPDEST PUSH1 0x0 DUP1 PUSH1 0x0 PUSH1 0x60 DUP5 DUP7 SUB SLT ISZERO PUSH2 0x35F8 JUMPI PUSH1 0x0 DUP1 REVERT JUMPDEST DUP4 CALLDATALOAD PUSH2 0x3603 DUP2 PUSH2 0x351A JUMP JUMPDEST SWAP3 POP PUSH1 0x20 DUP5 ADD CALLDATALOAD SWAP2 POP PUSH1 0x40 DUP5 ADD CALLDATALOAD PUSH2 0x361A DUP2 PUSH2 0x351A JUMP JUMPDEST DUP1 SWAP2 POP POP SWAP3 POP SWAP3 POP SWAP3 JUMP JUMPDEST PUSH1 0x0 PUSH1 0x20 DUP3 DUP5 SUB SLT ISZERO PUSH2 0x3637 JUMPI PUSH1 0x0 DUP1 REVERT JUMPDEST DUP2 CALLDATALOAD PUSH2 0xEA6 DUP2 PUSH2 0x351A JUMP JUMPDEST PUSH1 0x0 DUP1 PUSH1 0x40 DUP4 DUP6 SUB SLT ISZERO PUSH2 0x3655 JUMPI PUSH1 0x0 DUP1 REVERT JUMPDEST DUP3 CALLDATALOAD SWAP2 POP PUSH1 0x20 DUP4 ADD CALLDATALOAD PUSH2 0x35D8 DUP2 PUSH2 0x359C JUMP JUMPDEST PUSH1 0x0 PUSH1 0x20 DUP3 DUP5 SUB SLT ISZERO PUSH2 0x3679 JUMPI PUSH1 0x0 DUP1 REVERT JUMPDEST DUP2 CALLDATALOAD PUSH2 0xEA6 DUP2 PUSH2 0x359C JUMP JUMPDEST PUSH1 0x0 DUP1 PUSH1 0x40 DUP4 DUP6 SUB SLT ISZERO PUSH2 0x3697 JUMPI PUSH1 0x0 DUP1 REVERT JUMPDEST DUP3 CALLDATALOAD PUSH2 0x36A2 DUP2 PUSH2 0x351A JUMP JUMPDEST SWAP2 POP PUSH1 0x20 DUP4 ADD CALLDATALOAD PUSH2 0x35D8 DUP2 PUSH2 0x351A JUMP JUMPDEST PUSH1 0x0 DUP1 PUSH1 0x40 DUP4 DUP6 SUB SLT ISZERO PUSH2 0x36C5 JUMPI PUSH1 0x0 DUP1 REVERT JUMPDEST DUP3 CALLDATALOAD SWAP2 POP PUSH1 0x20 DUP4 ADD CALLDATALOAD PUSH2 0x35D8 DUP2 PUSH2 0x351A JUMP JUMPDEST PUSH1 0x20 DUP1 DUP3 MSTORE DUP2 DUP2 ADD MSTORE PUSH32 0x4F776E61626C653A2063616C6C6572206973206E6F7420746865206F776E6572 PUSH1 0x40 DUP3 ADD MSTORE PUSH1 0x60 ADD SWAP1 JUMP JUMPDEST PUSH4 0x4E487B71 PUSH1 0xE0 SHL PUSH1 0x0 MSTORE PUSH1 0x11 PUSH1 0x4 MSTORE PUSH1 0x24 PUSH1 0x0 REVERT JUMPDEST PUSH1 0x0 DUP3 NOT DUP3 GT ISZERO PUSH2 0x3735 JUMPI PUSH2 0x3735 PUSH2 0x370C JUMP JUMPDEST POP ADD SWAP1 JUMP JUMPDEST PUSH1 0x20 DUP1 DUP3 MSTORE PUSH1 0x17 SWAP1 DUP3 ADD MSTORE PUSH32 0x596F752068617665206E6F20706F776572206865726521000000000000000000 PUSH1 0x40 DUP3 ADD MSTORE PUSH1 0x60 ADD SWAP1 JUMP JUMPDEST PUSH1 0x0 PUSH1 0x20 DUP3 DUP5 SUB SLT ISZERO PUSH2 0x3783 JUMPI PUSH1 0x0 DUP1 REVERT JUMPDEST DUP2 MLOAD PUSH2 0xEA6 DUP2 PUSH2 0x359C JUMP JUMPDEST PUSH4 0x4E487B71 PUSH1 0xE0 SHL PUSH1 0x0 MSTORE PUSH1 0x32 PUSH1 0x4 MSTORE PUSH1 0x24 PUSH1 0x0 REVERT JUMPDEST PUSH1 0x0 DUP3 DUP3 LT ISZERO PUSH2 0x37B6 JUMPI PUSH2 0x37B6 PUSH2 0x370C JUMP JUMPDEST POP SUB SWAP1 JUMP JUMPDEST PUSH4 0x4E487B71 PUSH1 0xE0 SHL PUSH1 0x0 MSTORE PUSH1 0x31 PUSH1 0x4 MSTORE PUSH1 0x24 PUSH1 0x0 REVERT JUMPDEST PUSH1 0x0 PUSH1 0x0 NOT DUP3 EQ ISZERO PUSH2 0x37E5 JUMPI PUSH2 0x37E5 PUSH2 0x370C JUMP JUMPDEST POP PUSH1 0x1 ADD SWAP1 JUMP JUMPDEST PUSH1 0x0 DUP3 PUSH2 0x3809 JUMPI PUSH4 0x4E487B71 PUSH1 0xE0 SHL PUSH1 0x0 MSTORE PUSH1 0x12 PUSH1 0x4 MSTORE PUSH1 0x24 PUSH1 0x0 REVERT JUMPDEST POP DIV SWAP1 JUMP JUMPDEST PUSH1 0x0 PUSH1 0x20 DUP3 DUP5 SUB SLT ISZERO PUSH2 0x3820 JUMPI PUSH1 0x0 DUP1 REVERT JUMPDEST DUP2 MLOAD PUSH2 0xEA6 DUP2 PUSH2 0x351A JUMP JUMPDEST PUSH1 0x0 DUP2 PUSH1 0x0 NOT DIV DUP4 GT DUP3 ISZERO ISZERO AND ISZERO PUSH2 0x3845 JUMPI PUSH2 0x3845 PUSH2 0x370C JUMP JUMPDEST POP MUL SWAP1 JUMP JUMPDEST PUSH1 0x0 PUSH1 0xA0 DUP3 ADD DUP8 DUP4 MSTORE PUSH1 0x20 DUP8 DUP2 DUP6 ADD MSTORE PUSH1 0xA0 PUSH1 0x40 DUP6 ADD MSTORE DUP2 DUP8 MLOAD DUP1 DUP5 MSTORE PUSH1 0xC0 DUP7 ADD SWAP2 POP DUP3 DUP10 ADD SWAP4 POP PUSH1 0x0 JUMPDEST DUP2 DUP2 LT ISZERO PUSH2 0x389A JUMPI DUP5 MLOAD PUSH1 0x1 PUSH1 0x1 PUSH1 0xA0 SHL SUB AND DUP4 MSTORE SWAP4 DUP4 ADD SWAP4 SWAP2 DUP4 ADD SWAP2 PUSH1 0x1 ADD PUSH2 0x3875 JUMP JUMPDEST POP POP PUSH1 0x1 PUSH1 0x1 PUSH1 0xA0 SHL SUB SWAP7 SWAP1 SWAP7 AND PUSH1 0x60 DUP6 ADD MSTORE POP POP POP PUSH1 0x80 ADD MSTORE SWAP4 SWAP3 POP POP POP JUMP JUMPDEST PUSH1 0x0 DUP1 PUSH1 0x0 PUSH1 0x60 DUP5 DUP7 SUB SLT ISZERO PUSH2 0x38D0 JUMPI PUSH1 0x0 DUP1 REVERT JUMPDEST DUP4 MLOAD SWAP3 POP PUSH1 0x20 DUP5 ADD MLOAD SWAP2 POP PUSH1 0x40 DUP5 ADD MLOAD SWAP1 POP SWAP3 POP SWAP3 POP SWAP3 JUMP INVALID GASLIMIT MSTORE NUMBER ORIGIN ADDRESS GASPRICE KECCAK256 PUSH21 0x72616E7366657220616D6F756E7420657863656564 PUSH20 0x20616C6C6F77616E6365DDF252AD1BE2C89B69C2 0xB0 PUSH9 0xFC378DAA952BA7F163 0xC4 LOG1 AND 0x28 CREATE2 GAS 0x4D CREATE2 0x23 0xB3 0xEF GASLIMIT MSTORE NUMBER ORIGIN ADDRESS GASPRICE KECCAK256 PUSH5 0x6563726561 PUSH20 0x656420616C6C6F77616E63652062656C6F77207A PUSH6 0x726FA2646970 PUSH7 0x73582212206FF3 CODECOPY 0xB3 DUP15 0xD3 0x2D 0xF8 REVERT EQ DUP6 0xAA 0xAB 0xD1 0xCB MOD ADDMOD 0x2A TIMESTAMP DIFFICULTY 0xA6 DUP15 SWAP12 MSTORE DUP8 0xD9 ORIGIN PUSH23 0x40A73E9A64736F6C634300080A00330000000000000000 "
		},
		"gasEstimates": {
			"creation": {
				"codeDepositCost": "2946400",
				"executionCost": "infinite",
				"totalCost": "infinite"
			},
			"external": {
				"_MarketingWalletAddress()": "2448",
				"_buyLiquidityFee()": "2406",
				"_buyMarketingFee()": "2385",
				"_buyTaxFee()": "2428",
				"_contractFeesEnabled()": "2445",
				"_isBanned(address)": "2614",
				"_isPair(address)": "2658",
				"_liqWalletAddress()": "2427",
				"_maxTxAmount()": "2364",
				"_sellLiquidityFee()": "2386",
				"_sellMarketingFee()": "2407",
				"_sellTaxFee()": "2364",
				"allowance(address,address)": "infinite",
				"approve(address,uint256)": "24706",
				"balanceOf(address)": "infinite",
				"burn(uint256)": "infinite",
				"decimals()": "267",
				"decreaseAllowance(address,uint256)": "infinite",
				"excludeFromFee(address)": "26812",
				"excludeFromReward(address)": "infinite",
				"includeInFee(address)": "26827",
				"includeInReward(address)": "infinite",
				"increaseAllowance(address,uint256)": "27041",
				"isBot(address)": "2634",
				"isExcludedFromFee(address)": "2677",
				"isExcludedFromReward(address)": "2656",
				"mint(uint256)": "infinite",
				"name()": "infinite",
				"numTokensSellToAddToLiquidity()": "2362",
				"owner()": "2399",
				"reflectionFromToken(uint256,bool)": "infinite",
				"renounceOwnership()": "28247",
				"setBuyLiquidityFeePercent(uint256)": "infinite",
				"setBuyMarketingFeePercent(uint256)": "infinite",
				"setBuyTaxFeePercent(uint256)": "infinite",
				"setContractFeesEnabled(bool)": "27824",
				"setIsBanned(address,bool)": "infinite",
				"setIsPair(address,bool)": "infinite",
				"setLiqWalletAddress(address)": "27937",
				"setMarketingWalletAddress(address)": "27862",
				"setMaxTxPercent(uint256)": "infinite",
				"setNumTokensSellToAddToLiquidity(uint256)": "25630",
				"setRouter(address)": "infinite",
				"setSellLiquidityFeePercent(uint256)": "infinite",
				"setSellMarketingFeePercent(uint256)": "infinite",
				"setSellTaxFeePercent(uint256)": "infinite",
				"setSwapAndLiquifyEnabled(bool)": "27831",
				"setSwapEnabled(bool)": "27830",
				"swapAndLiquifyEnabled()": "2461",
				"swapEnabled()": "2416",
				"symbol()": "infinite",
				"tokenFromReflection(uint256)": "infinite",
				"totalFees()": "2372",
				"totalSupply()": "327",
				"transfer(address,uint256)": "infinite",
				"transferFrom(address,address,uint256)": "infinite",
				"transferOwnership(address)": "infinite",
				"uniswapV2Pair()": "2449",
				"uniswapV2Router()": "2450",
				"withdrawalBNB(uint256,address)": "infinite",
				"withdrawalToken(address,uint256,address)": "infinite"
			},
			"internal": {
				"_approve(address,address,uint256)": "infinite",
				"_beforeTokenTransfer(address,address,uint256)": "15",
				"_burn(address,uint256)": "infinite",
				"_getCurrentSupply()": "infinite",
				"_getRValues(uint256,uint256,uint256,uint256,uint256)": "infinite",
				"_getRate()": "infinite",
				"_getTValues(uint256)": "infinite",
				"_getValues(uint256)": "infinite",
				"_mint(address,uint256)": "infinite",
				"_reflectFee(uint256,uint256)": "infinite",
				"_setRouter(address)": "infinite",
				"_takeLiquidity(uint256)": "infinite",
				"_takedev(uint256)": "infinite",
				"_tokenTransfer(address,address,uint256,bool)": "infinite",
				"_transfer(address,address,uint256)": "infinite",
				"_transferBothExcluded(address,address,uint256)": "infinite",
				"_transferFromExcluded(address,address,uint256)": "infinite",
				"_transferStandard(address,address,uint256)": "infinite",
				"_transferToExcluded(address,address,uint256)": "infinite",
				"addLiquidity(uint256,uint256)": "infinite",
				"calculateLiquidityFee(uint256)": "infinite",
				"calculateMarketingFee(uint256)": "infinite",
				"calculateTaxFee(uint256)": "infinite",
				"removeAllFee()": "infinite",
				"swapAndLiquify(uint256)": "infinite",
				"swapTokensForEth(uint256)": "infinite"
			}
		},
		"methodIdentifiers": {
			"_MarketingWalletAddress()": "eedeacbe",
			"_buyLiquidityFee()": "dc44b6a0",
			"_buyMarketingFee()": "c5d24189",
			"_buyTaxFee()": "efcc52de",
			"_contractFeesEnabled()": "2d513f36",
			"_isBanned(address)": "c069d956",
			"_isPair(address)": "c14a4239",
			"_liqWalletAddress()": "95558d84",
			"_maxTxAmount()": "7d1db4a5",
			"_sellLiquidityFee()": "88790a68",
			"_sellMarketingFee()": "c8607952",
			"_sellTaxFee()": "200a692d",
			"allowance(address,address)": "dd62ed3e",
			"approve(address,uint256)": "095ea7b3",
			"balanceOf(address)": "70a08231",
			"burn(uint256)": "42966c68",
			"decimals()": "313ce567",
			"decreaseAllowance(address,uint256)": "a457c2d7",
			"excludeFromFee(address)": "437823ec",
			"excludeFromReward(address)": "52390c02",
			"includeInFee(address)": "ea2f0b37",
			"includeInReward(address)": "3685d419",
			"increaseAllowance(address,uint256)": "39509351",
			"isBot(address)": "3bbac579",
			"isExcludedFromFee(address)": "5342acb4",
			"isExcludedFromReward(address)": "88f82020",
			"mint(uint256)": "a0712d68",
			"name()": "06fdde03",
			"numTokensSellToAddToLiquidity()": "d12a7688",
			"owner()": "8da5cb5b",
			"reflectionFromToken(uint256,bool)": "4549b039",
			"renounceOwnership()": "715018a6",
			"setBuyLiquidityFeePercent(uint256)": "996c3985",
			"setBuyMarketingFeePercent(uint256)": "0844af26",
			"setBuyTaxFeePercent(uint256)": "11889b76",
			"setContractFeesEnabled(bool)": "4fab9edf",
			"setIsBanned(address,bool)": "978e1cc8",
			"setIsPair(address,bool)": "2410d887",
			"setLiqWalletAddress(address)": "fb810629",
			"setMarketingWalletAddress(address)": "4cb80fd5",
			"setMaxTxPercent(uint256)": "d543dbeb",
			"setNumTokensSellToAddToLiquidity(uint256)": "f0f165af",
			"setRouter(address)": "c0d78655",
			"setSellLiquidityFeePercent(uint256)": "5876ccc5",
			"setSellMarketingFeePercent(uint256)": "a928681c",
			"setSellTaxFeePercent(uint256)": "d0e03523",
			"setSwapAndLiquifyEnabled(bool)": "c49b9a80",
			"setSwapEnabled(bool)": "e01af92c",
			"swapAndLiquifyEnabled()": "4a74bb02",
			"swapEnabled()": "6ddd1713",
			"symbol()": "95d89b41",
			"tokenFromReflection(uint256)": "2d838119",
			"totalFees()": "13114a9d",
			"totalSupply()": "18160ddd",
			"transfer(address,uint256)": "a9059cbb",
			"transferFrom(address,address,uint256)": "23b872dd",
			"transferOwnership(address)": "f2fde38b",
			"uniswapV2Pair()": "49bd5a5e",
			"uniswapV2Router()": "1694505e",
			"withdrawalBNB(uint256,address)": "faef9e67",
			"withdrawalToken(address,uint256,address)": "35e17cb9"
		}
	},
	"abi": [
		{
			"inputs": [
				{
					"internalType": "address",
					"name": "router",
					"type": "address"
				},
				{
					"internalType": "address",
					"name": "MarketingWallet",
					"type": "address"
				},
				{
					"internalType": "address",
					"name": "liqWallet",
					"type": "address"
				}
			],
			"stateMutability": "nonpayable",
			"type": "constructor"
		},
		{
			"anonymous": false,
			"inputs": [
				{
					"indexed": true,
					"internalType": "address",
					"name": "owner",
					"type": "address"
				},
				{
					"indexed": true,
					"internalType": "address",
					"name": "spender",
					"type": "address"
				},
				{
					"indexed": false,
					"internalType": "uint256",
					"name": "value",
					"type": "uint256"
				}
			],
			"name": "Approval",
			"type": "event"
		},
		{
			"anonymous": false,
			"inputs": [
				{
					"indexed": false,
					"internalType": "uint256",
					"name": "numTokensSellToAddToLiquidity",
					"type": "uint256"
				}
			],
			"name": "NumTokensSellToAddToLiquidityUpdated",
			"type": "event"
		},
		{
			"anonymous": false,
			"inputs": [
				{
					"indexed": true,
					"internalType": "address",
					"name": "previousOwner",
					"type": "address"
				},
				{
					"indexed": true,
					"internalType": "address",
					"name": "newOwner",
					"type": "address"
				}
			],
			"name": "OwnershipTransferred",
			"type": "event"
		},
		{
			"anonymous": false,
			"inputs": [
				{
					"indexed": false,
					"internalType": "address",
					"name": "_router",
					"type": "address"
				}
			],
			"name": "RouterSet",
			"type": "event"
		},
		{
			"anonymous": false,
			"inputs": [
				{
					"indexed": false,
					"internalType": "bool",
					"name": "_bool",
					"type": "bool"
				}
			],
			"name": "SetContractFeesEnabled",
			"type": "event"
		},
		{
			"anonymous": false,
			"inputs": [
				{
					"indexed": false,
					"internalType": "address",
					"name": "_address",
					"type": "address"
				},
				{
					"indexed": false,
					"internalType": "bool",
					"name": "_bool",
					"type": "bool"
				}
			],
			"name": "SetIsBanned",
			"type": "event"
		},
		{
			"anonymous": false,
			"inputs": [
				{
					"indexed": false,
					"internalType": "address",
					"name": "_address",
					"type": "address"
				},
				{
					"indexed": false,
					"internalType": "bool",
					"name": "_bool",
					"type": "bool"
				}
			],
			"name": "SetIsPair",
			"type": "event"
		},
		{
			"anonymous": false,
			"inputs": [
				{
					"indexed": false,
					"internalType": "address",
					"name": "_address",
					"type": "address"
				}
			],
			"name": "SetLiqWalletAddress",
			"type": "event"
		},
		{
			"anonymous": false,
			"inputs": [
				{
					"indexed": false,
					"internalType": "address",
					"name": "_address",
					"type": "address"
				}
			],
			"name": "SetMarketingWalletAddress",
			"type": "event"
		},
		{
			"anonymous": false,
			"inputs": [
				{
					"indexed": false,
					"internalType": "bool",
					"name": "enabled",
					"type": "bool"
				}
			],
			"name": "SetSwapEnabled",
			"type": "event"
		},
		{
			"anonymous": false,
			"inputs": [
				{
					"indexed": false,
					"internalType": "uint256",
					"name": "tokensSwapped",
					"type": "uint256"
				},
				{
					"indexed": false,
					"internalType": "uint256",
					"name": "ethReceived",
					"type": "uint256"
				},
				{
					"indexed": false,
					"internalType": "uint256",
					"name": "tokensIntoLiquidity",
					"type": "uint256"
				}
			],
			"name": "SwapAndLiquify",
			"type": "event"
		},
		{
			"anonymous": false,
			"inputs": [
				{
					"indexed": false,
					"internalType": "bool",
					"name": "enabled",
					"type": "bool"
				}
			],
			"name": "SwapAndLiquifyEnabledUpdated",
			"type": "event"
		},
		{
			"anonymous": false,
			"inputs": [
				{
					"indexed": true,
					"internalType": "address",
					"name": "from",
					"type": "address"
				},
				{
					"indexed": true,
					"internalType": "address",
					"name": "to",
					"type": "address"
				},
				{
					"indexed": false,
					"internalType": "uint256",
					"name": "value",
					"type": "uint256"
				}
			],
			"name": "Transfer",
			"type": "event"
		},
		{
			"anonymous": false,
			"inputs": [
				{
					"indexed": false,
					"internalType": "uint256",
					"name": "_amount",
					"type": "uint256"
				},
				{
					"indexed": false,
					"internalType": "address",
					"name": "to",
					"type": "address"
				}
			],
			"name": "WithdrawalBNB",
			"type": "event"
		},
		{
			"anonymous": false,
			"inputs": [
				{
					"indexed": false,
					"internalType": "address",
					"name": "_tokenAddr",
					"type": "address"
				},
				{
					"indexed": false,
					"internalType": "uint256",
					"name": "_amount",
					"type": "uint256"
				},
				{
					"indexed": false,
					"internalType": "address",
					"name": "to",
					"type": "address"
				}
			],
			"name": "WithdrawalToken",
			"type": "event"
		},
		{
			"inputs": [],
			"name": "_MarketingWalletAddress",
			"outputs": [
				{
					"internalType": "address",
					"name": "",
					"type": "address"
				}
			],
			"stateMutability": "view",
			"type": "function"
		},
		{
			"inputs": [],
			"name": "_buyLiquidityFee",
			"outputs": [
				{
					"internalType": "uint256",
					"name": "",
					"type": "uint256"
				}
			],
			"stateMutability": "view",
			"type": "function"
		},
		{
			"inputs": [],
			"name": "_buyMarketingFee",
			"outputs": [
				{
					"internalType": "uint256",
					"name": "",
					"type": "uint256"
				}
			],
			"stateMutability": "view",
			"type": "function"
		},
		{
			"inputs": [],
			"name": "_buyTaxFee",
			"outputs": [
				{
					"internalType": "uint256",
					"name": "",
					"type": "uint256"
				}
			],
			"stateMutability": "view",
			"type": "function"
		},
		{
			"inputs": [],
			"name": "_contractFeesEnabled",
			"outputs": [
				{
					"internalType": "bool",
					"name": "",
					"type": "bool"
				}
			],
			"stateMutability": "view",
			"type": "function"
		},
		{
			"inputs": [
				{
					"internalType": "address",
					"name": "",
					"type": "address"
				}
			],
			"name": "_isBanned",
			"outputs": [
				{
					"internalType": "bool",
					"name": "",
					"type": "bool"
				}
			],
			"stateMutability": "view",
			"type": "function"
		},
		{
			"inputs": [
				{
					"internalType": "address",
					"name": "",
					"type": "address"
				}
			],
			"name": "_isPair",
			"outputs": [
				{
					"internalType": "bool",
					"name": "",
					"type": "bool"
				}
			],
			"stateMutability": "view",
			"type": "function"
		},
		{
			"inputs": [],
			"name": "_liqWalletAddress",
			"outputs": [
				{
					"internalType": "address",
					"name": "",
					"type": "address"
				}
			],
			"stateMutability": "view",
			"type": "function"
		},
		{
			"inputs": [],
			"name": "_maxTxAmount",
			"outputs": [
				{
					"internalType": "uint256",
					"name": "",
					"type": "uint256"
				}
			],
			"stateMutability": "view",
			"type": "function"
		},
		{
			"inputs": [],
			"name": "_sellLiquidityFee",
			"outputs": [
				{
					"internalType": "uint256",
					"name": "",
					"type": "uint256"
				}
			],
			"stateMutability": "view",
			"type": "function"
		},
		{
			"inputs": [],
			"name": "_sellMarketingFee",
			"outputs": [
				{
					"internalType": "uint256",
					"name": "",
					"type": "uint256"
				}
			],
			"stateMutability": "view",
			"type": "function"
		},
		{
			"inputs": [],
			"name": "_sellTaxFee",
			"outputs": [
				{
					"internalType": "uint256",
					"name": "",
					"type": "uint256"
				}
			],
			"stateMutability": "view",
			"type": "function"
		},
		{
			"inputs": [
				{
					"internalType": "address",
					"name": "owner",
					"type": "address"
				},
				{
					"internalType": "address",
					"name": "spender",
					"type": "address"
				}
			],
			"name": "allowance",
			"outputs": [
				{
					"internalType": "uint256",
					"name": "",
					"type": "uint256"
				}
			],
			"stateMutability": "view",
			"type": "function"
		},
		{
			"inputs": [
				{
					"internalType": "address",
					"name": "spender",
					"type": "address"
				},
				{
					"internalType": "uint256",
					"name": "amount",
					"type": "uint256"
				}
			],
			"name": "approve",
			"outputs": [
				{
					"internalType": "bool",
					"name": "",
					"type": "bool"
				}
			],
			"stateMutability": "nonpayable",
			"type": "function"
		},
		{
			"inputs": [
				{
					"internalType": "address",
					"name": "account",
					"type": "address"
				}
			],
			"name": "balanceOf",
			"outputs": [
				{
					"internalType": "uint256",
					"name": "",
					"type": "uint256"
				}
			],
			"stateMutability": "view",
			"type": "function"
		},
		{
			"inputs": [
				{
					"internalType": "uint256",
					"name": "amount",
					"type": "uint256"
				}
			],
			"name": "burn",
			"outputs": [],
			"stateMutability": "nonpayable",
			"type": "function"
		},
		{
			"inputs": [],
			"name": "decimals",
			"outputs": [
				{
					"internalType": "uint8",
					"name": "",
					"type": "uint8"
				}
			],
			"stateMutability": "pure",
			"type": "function"
		},
		{
			"inputs": [
				{
					"internalType": "address",
					"name": "spender",
					"type": "address"
				},
				{
					"internalType": "uint256",
					"name": "subtractedValue",
					"type": "uint256"
				}
			],
			"name": "decreaseAllowance",
			"outputs": [
				{
					"internalType": "bool",
					"name": "",
					"type": "bool"
				}
			],
			"stateMutability": "nonpayable",
			"type": "function"
		},
		{
			"inputs": [
				{
					"internalType": "address",
					"name": "account",
					"type": "address"
				}
			],
			"name": "excludeFromFee",
			"outputs": [],
			"stateMutability": "nonpayable",
			"type": "function"
		},
		{
			"inputs": [
				{
					"internalType": "address",
					"name": "account",
					"type": "address"
				}
			],
			"name": "excludeFromReward",
			"outputs": [],
			"stateMutability": "nonpayable",
			"type": "function"
		},
		{
			"inputs": [
				{
					"internalType": "address",
					"name": "account",
					"type": "address"
				}
			],
			"name": "includeInFee",
			"outputs": [],
			"stateMutability": "nonpayable",
			"type": "function"
		},
		{
			"inputs": [
				{
					"internalType": "address",
					"name": "account",
					"type": "address"
				}
			],
			"name": "includeInReward",
			"outputs": [],
			"stateMutability": "nonpayable",
			"type": "function"
		},
		{
			"inputs": [
				{
					"internalType": "address",
					"name": "spender",
					"type": "address"
				},
				{
					"internalType": "uint256",
					"name": "addedValue",
					"type": "uint256"
				}
			],
			"name": "increaseAllowance",
			"outputs": [
				{
					"internalType": "bool",
					"name": "",
					"type": "bool"
				}
			],
			"stateMutability": "nonpayable",
			"type": "function"
		},
		{
			"inputs": [
				{
					"internalType": "address",
					"name": "account",
					"type": "address"
				}
			],
			"name": "isBot",
			"outputs": [
				{
					"internalType": "bool",
					"name": "",
					"type": "bool"
				}
			],
			"stateMutability": "view",
			"type": "function"
		},
		{
			"inputs": [
				{
					"internalType": "address",
					"name": "account",
					"type": "address"
				}
			],
			"name": "isExcludedFromFee",
			"outputs": [
				{
					"internalType": "bool",
					"name": "",
					"type": "bool"
				}
			],
			"stateMutability": "view",
			"type": "function"
		},
		{
			"inputs": [
				{
					"internalType": "address",
					"name": "account",
					"type": "address"
				}
			],
			"name": "isExcludedFromReward",
			"outputs": [
				{
					"internalType": "bool",
					"name": "",
					"type": "bool"
				}
			],
			"stateMutability": "view",
			"type": "function"
		},
		{
			"inputs": [
				{
					"internalType": "uint256",
					"name": "amount",
					"type": "uint256"
				}
			],
			"name": "mint",
			"outputs": [],
			"stateMutability": "nonpayable",
			"type": "function"
		},
		{
			"inputs": [],
			"name": "name",
			"outputs": [
				{
					"internalType": "string",
					"name": "",
					"type": "string"
				}
			],
			"stateMutability": "pure",
			"type": "function"
		},
		{
			"inputs": [],
			"name": "numTokensSellToAddToLiquidity",
			"outputs": [
				{
					"internalType": "uint256",
					"name": "",
					"type": "uint256"
				}
			],
			"stateMutability": "view",
			"type": "function"
		},
		{
			"inputs": [],
			"name": "owner",
			"outputs": [
				{
					"internalType": "address",
					"name": "",
					"type": "address"
				}
			],
			"stateMutability": "view",
			"type": "function"
		},
		{
			"inputs": [
				{
					"internalType": "uint256",
					"name": "tAmount",
					"type": "uint256"
				},
				{
					"internalType": "bool",
					"name": "deductTransferFee",
					"type": "bool"
				}
			],
			"name": "reflectionFromToken",
			"outputs": [
				{
					"internalType": "uint256",
					"name": "",
					"type": "uint256"
				}
			],
			"stateMutability": "view",
			"type": "function"
		},
		{
			"inputs": [],
			"name": "renounceOwnership",
			"outputs": [],
			"stateMutability": "nonpayable",
			"type": "function"
		},
		{
			"inputs": [
				{
					"internalType": "uint256",
					"name": "liquidityFee",
					"type": "uint256"
				}
			],
			"name": "setBuyLiquidityFeePercent",
			"outputs": [],
			"stateMutability": "nonpayable",
			"type": "function"
		},
		{
			"inputs": [
				{
					"internalType": "uint256",
					"name": "MarketingFee",
					"type": "uint256"
				}
			],
			"name": "setBuyMarketingFeePercent",
			"outputs": [],
			"stateMutability": "nonpayable",
			"type": "function"
		},
		{
			"inputs": [
				{
					"internalType": "uint256",
					"name": "taxFee",
					"type": "uint256"
				}
			],
			"name": "setBuyTaxFeePercent",
			"outputs": [],
			"stateMutability": "nonpayable",
			"type": "function"
		},
		{
			"inputs": [
				{
					"internalType": "bool",
					"name": "_bool",
					"type": "bool"
				}
			],
			"name": "setContractFeesEnabled",
			"outputs": [],
			"stateMutability": "nonpayable",
			"type": "function"
		},
		{
			"inputs": [
				{
					"internalType": "address",
					"name": "_address",
					"type": "address"
				},
				{
					"internalType": "bool",
					"name": "value",
					"type": "bool"
				}
			],
			"name": "setIsBanned",
			"outputs": [],
			"stateMutability": "nonpayable",
			"type": "function"
		},
		{
			"inputs": [
				{
					"internalType": "address",
					"name": "_address",
					"type": "address"
				},
				{
					"internalType": "bool",
					"name": "value",
					"type": "bool"
				}
			],
			"name": "setIsPair",
			"outputs": [],
			"stateMutability": "nonpayable",
			"type": "function"
		},
		{
			"inputs": [
				{
					"internalType": "address",
					"name": "_address",
					"type": "address"
				}
			],
			"name": "setLiqWalletAddress",
			"outputs": [],
			"stateMutability": "nonpayable",
			"type": "function"
		},
		{
			"inputs": [
				{
					"internalType": "address",
					"name": "_address",
					"type": "address"
				}
			],
			"name": "setMarketingWalletAddress",
			"outputs": [],
			"stateMutability": "nonpayable",
			"type": "function"
		},
		{
			"inputs": [
				{
					"internalType": "uint256",
					"name": "maxTxPercent",
					"type": "uint256"
				}
			],
			"name": "setMaxTxPercent",
			"outputs": [],
			"stateMutability": "nonpayable",
			"type": "function"
		},
		{
			"inputs": [
				{
					"internalType": "uint256",
					"name": "_amount",
					"type": "uint256"
				}
			],
			"name": "setNumTokensSellToAddToLiquidity",
			"outputs": [],
			"stateMutability": "nonpayable",
			"type": "function"
		},
		{
			"inputs": [
				{
					"internalType": "address",
					"name": "_router",
					"type": "address"
				}
			],
			"name": "setRouter",
			"outputs": [],
			"stateMutability": "nonpayable",
			"type": "function"
		},
		{
			"inputs": [
				{
					"internalType": "uint256",
					"name": "liquidityFee",
					"type": "uint256"
				}
			],
			"name": "setSellLiquidityFeePercent",
			"outputs": [],
			"stateMutability": "nonpayable",
			"type": "function"
		},
		{
			"inputs": [
				{
					"internalType": "uint256",
					"name": "MarketingFee",
					"type": "uint256"
				}
			],
			"name": "setSellMarketingFeePercent",
			"outputs": [],
			"stateMutability": "nonpayable",
			"type": "function"
		},
		{
			"inputs": [
				{
					"internalType": "uint256",
					"name": "taxFee",
					"type": "uint256"
				}
			],
			"name": "setSellTaxFeePercent",
			"outputs": [],
			"stateMutability": "nonpayable",
			"type": "function"
		},
		{
			"inputs": [
				{
					"internalType": "bool",
					"name": "_enabled",
					"type": "bool"
				}
			],
			"name": "setSwapAndLiquifyEnabled",
			"outputs": [],
			"stateMutability": "nonpayable",
			"type": "function"
		},
		{
			"inputs": [
				{
					"internalType": "bool",
					"name": "_enabled",
					"type": "bool"
				}
			],
			"name": "setSwapEnabled",
			"outputs": [],
			"stateMutability": "nonpayable",
			"type": "function"
		},
		{
			"inputs": [],
			"name": "swapAndLiquifyEnabled",
			"outputs": [
				{
					"internalType": "bool",
					"name": "",
					"type": "bool"
				}
			],
			"stateMutability": "view",
			"type": "function"
		},
		{
			"inputs": [],
			"name": "swapEnabled",
			"outputs": [
				{
					"internalType": "bool",
					"name": "",
					"type": "bool"
				}
			],
			"stateMutability": "view",
			"type": "function"
		},
		{
			"inputs": [],
			"name": "symbol",
			"outputs": [
				{
					"internalType": "string",
					"name": "",
					"type": "string"
				}
			],
			"stateMutability": "pure",
			"type": "function"
		},
		{
			"inputs": [
				{
					"internalType": "uint256",
					"name": "rAmount",
					"type": "uint256"
				}
			],
			"name": "tokenFromReflection",
			"outputs": [
				{
					"internalType": "uint256",
					"name": "",
					"type": "uint256"
				}
			],
			"stateMutability": "view",
			"type": "function"
		},
		{
			"inputs": [],
			"name": "totalFees",
			"outputs": [
				{
					"internalType": "uint256",
					"name": "",
					"type": "uint256"
				}
			],
			"stateMutability": "view",
			"type": "function"
		},
		{
			"inputs": [],
			"name": "totalSupply",
			"outputs": [
				{
					"internalType": "uint256",
					"name": "",
					"type": "uint256"
				}
			],
			"stateMutability": "pure",
			"type": "function"
		},
		{
			"inputs": [
				{
					"internalType": "address",
					"name": "recipient",
					"type": "address"
				},
				{
					"internalType": "uint256",
					"name": "amount",
					"type": "uint256"
				}
			],
			"name": "transfer",
			"outputs": [
				{
					"internalType": "bool",
					"name": "",
					"type": "bool"
				}
			],
			"stateMutability": "nonpayable",
			"type": "function"
		},
		{
			"inputs": [
				{
					"internalType": "address",
					"name": "sender",
					"type": "address"
				},
				{
					"internalType": "address",
					"name": "recipient",
					"type": "address"
				},
				{
					"internalType": "uint256",
					"name": "amount",
					"type": "uint256"
				}
			],
			"name": "transferFrom",
			"outputs": [
				{
					"internalType": "bool",
					"name": "",
					"type": "bool"
				}
			],
			"stateMutability": "nonpayable",
			"type": "function"
		},
		{
			"inputs": [
				{
					"internalType": "address",
					"name": "newOwner",
					"type": "address"
				}
			],
			"name": "transferOwnership",
			"outputs": [],
			"stateMutability": "nonpayable",
			"type": "function"
		},
		{
			"inputs": [],
			"name": "uniswapV2Pair",
			"outputs": [
				{
					"internalType": "address",
					"name": "",
					"type": "address"
				}
			],
			"stateMutability": "view",
			"type": "function"
		},
		{
			"inputs": [],
			"name": "uniswapV2Router",
			"outputs": [
				{
					"internalType": "contract IUniswapV2Router02",
					"name": "",
					"type": "address"
				}
			],
			"stateMutability": "view",
			"type": "function"
		},
		{
			"inputs": [
				{
					"internalType": "uint256",
					"name": "_amount",
					"type": "uint256"
				},
				{
					"internalType": "address",
					"name": "to",
					"type": "address"
				}
			],
			"name": "withdrawalBNB",
			"outputs": [],
			"stateMutability": "nonpayable",
			"type": "function"
		},
		{
			"inputs": [
				{
					"internalType": "address",
					"name": "_tokenAddr",
					"type": "address"
				},
				{
					"internalType": "uint256",
					"name": "_amount",
					"type": "uint256"
				},
				{
					"internalType": "address",
					"name": "to",
					"type": "address"
				}
			],
			"name": "withdrawalToken",
			"outputs": [],
			"stateMutability": "nonpayable",
			"type": "function"
		},
		{
			"stateMutability": "payable",
			"type": "receive"
		}
	]
}